:020000040800F2
:1000000040160020B1010008832F00086B2A000869
:10001000812F0008D9150008FD3F000800000000EE
:100020000000000000000000000000002531000872
:10003000DB15000800000000852F000825320008AD
:10004000CB010008CB010008CB010008CB01000860
:10005000CB010008CB010008CB010008CB01000850
:10006000CB010008CB010008CB010008CB01000840
:10007000CB010008CB010008CB010008CB01000830
:10008000CB010008CB010008CB010008CB01000820
:10009000CB010008CB010008CB010008CB01000810
:1000A000CB010008CB010008CB010008CB01000800
:1000B000CB010008CB010008CB010008CB010008F0
:1000C000CB010008CB010008CB010008CB010008E0
:1000D000CB010008CB010008CB010008CB010008D0
:1000E000CB010008CB010008CB01000800F002F8AA
:1000F00000F04EF80AA090E8000C82448344AAF174
:100100000107DA4501D100F043F8AFF2090EBAE871
:100110000F0013F0010F18BFFB1A43F0010318473B
:100120000879000028790000103A24BF78C878C107
:10013000FAD8520724BF30C830C144BF04680C60ED
:10014000704700000023002400250026103A28BF35
:1001500078C1FBD8520728BF30C148BF0B60704739
:10016000662905F07680642900F0928000207047AF
:100170001FB59DE8030000F0ABF900F0A1FC0400FE
:100180000020002104F0DEFBE0601FBD10B510BDB3
:1001900000F0B3FD1146FFF7EBFF04F06DF900F03E
:1001A000D1FD03B4FFF7F2FF03BC03F053FF0000DF
:1001B0000948804709480047FEE7FEE7FEE7FEE7FB
:1001C000FEE7FEE7FEE7FEE7FEE7FEE70448054937
:1001D000054A064B7047000075320008ED00000824
:1001E0004004002040160020400600204006002069
:1001F000704770B5064600F04FF9056806F10B0030
:1002000020F00704B4429CBF002070BD2B466A68F2
:10021000BAB11068A04210D304F1080188423CBF73
:100220005068586007D35168101941601168091B64
:10023000016058601460101D70BD13465268002A9A
:10024000E7D12146284600F02FF90028DED170BD05
:100250000FB4044910B503AA029800F01BFC10BCAF
:100260005DF814FB000000200FB41CB5074B06AA74
:100270007B4469460090059800F0F3FB0020694636
:1002800000F002FC1CBC5DF814FB00001508000027
:100290002DE9F0410646002410687529314616A55F
:1002A00010D0AFF30080002802DA404213A507E027
:1002B00031688A0701D512A502E0490704D511A5C6
:1002C000012401E0AFF3008000210A2206F1240797
:1002D00009E0B0FBF2FCB0FBF2F302FB1C00303093
:1002E00078541846491C0028F3D123462A46304644
:1002F000BDE8F04100F049B9000000002D00000009
:100300002B000000200000002DE9F05F8946044624
:100310004FF0000ADFF824B1FB44C0F820A02046CB
:10032000E168884700287DD0252806D0D4E901213E
:100330009047206A401C2062F1E700255F46204676
:10034000E16888472028064607DB312E05D2B81918
:1003500010F8200C08B10543F1E7A80701D525F0F6
:100360000405C4F81CA00027C4F818A02A2E09D040
:10037000304603F068FE38B304EB8708303EC8F817
:10038000186019E059F8041B204604EB87029161BC
:10039000E1688847012F064618D1E069002820DA75
:1003A00025F020051DE0D8F8180000EB800006EBD2
:1003B00040003038C8F818002046E16888470646F3
:1003C00003F041FE0028EED1012F0AD02E2E08D1D5
:1003D0002046E16888477F1C0646022F45F020052D
:1003E000C4DBA069002803DA404245F00105A061A2
:1003F000E80701D025F01005A6B1A6F141001928A3
:1004000002D8203645F400654A463146204625602C
:100410004D46FFF7A5FE60B1012807D0ED1D25F080
:10042000070000E007E000F1080978E705F104099A
:1004300075E730467AE7206ABDE8F09FEA7500006C
:100440004FF0000200B5134694469646203922BF6D
:10045000A0E80C50A0E80C50B1F12001BFF4F7AFB8
:10046000090728BFA0E80C5048BF0CC05DF804EB9A
:10047000890028BF40F8042B08BF704748BF20F808
:10048000022B11F0804F18BF00F8012B7047704706
:10049000704770477047000000487047E80300202D
:1004A000704770477047704738B504460A460020C9
:1004B0006946AFF30080002808BF38BD02460099A6
:1004C000204600F001FB012038BD012000F00EBCE9
:1004D000F8B5AFF30080054600200C46102000BFA1
:1004E0000646A819A0420DD9324669460020AFF34E
:1004F0000080070008BF00F0F9FB0098A04218BF79
:100500000546C419FFF7C8FF05600746F01D20F037
:1005100007004619284600F00AF8B44208BFF8BDA3
:10052000A21B31463868BDE8F84000F0CDBA002182
:100530000160C0E9011070471020704770B5044693
:10054000051FFFF7A9FF0068002C14BF446870BDA9
:10055000002C18BFAC423CBF20466468F8D3016849
:100560000A18AA4218BF456003D12A6805461144FB
:10057000016028684119A1421CBF6C6070BD6168B0
:10058000696021680844286070BD2DE9F0470D4678
:1005900099469246044600F124080168880604D56D
:1005A000E06921F01001216000E00120A84201DD96
:1005B000471B00E00027A1697A1902EB0900081A1D
:1005C000A0612078C00602D42046AFF30080002648
:1005D00008E0D4E901211AF806009047206A401C7F
:1005E000761C20624E45F4DB2078C0060AD52046F2
:1005F000AFF3008006E0D4E9012130209047206A63
:10060000401C2062381EA7F10107F4DC07E0D4E9A2
:10061000012118F805009047206A401C2062281E1E
:10062000A5F10105F3DC2046AFF300802078000639
:1006300002D50220BDE8F0870120FBE770472DE9D5
:10064000FF4F0C461E464FF0FF378BB0D2E900013A
:10065000DDF860800A908A46C1F30A5505B93D4627
:10066000002108464FF00000BAF1000F00F44000EE
:1006700005DA00EB80004FF4400101EA50004FEA38
:100680009059B9F1010F00DDB9460A9850EA4A00C5
:100690000ED044F61050A5F2FF3545432F14B8F1A3
:1006A000000F1ED07542291E1EDDC9F100021CE09C
:1006B000B8F1010F4FF0000001D0302103E0F24308
:1006C00005E02154401CB042FBDB304600220021F3
:1006D00021540B99C1F80880C1E900200FB0BDE892
:1006E000F08FBD1B6D1CDEE74A4600DA694206A8A2
:1006F00000F08AFA06AB93E8070003AB83E8070033
:1007000050460A9900F0ADFB8DE80700A0F50050B7
:100710001F3800900398002D09DD42F21F014A4660
:10072000084403A90390684600F00CFE08E0A0F519
:1007300000504A461F3803A90390684600F016FE91
:100740008DE807000004000C03D04FF0FF30410893
:1007500000E01046B8F1000F03D0002200921546C9
:100760001EE0751E05D400F0C9F9303262556D1EC9
:10077000F9D5B3460122084302D000227F1C04E0D1
:100780002078302801D100227F1E002A099786D0C8
:100790001DE0112D07DA00F0B1F9303262556D1C01
:1007A00050EA0102F5D1084302D00098C8B10EE02A
:1007B0000021681E05E0235C625C63542254401EE5
:1007C000491C8142F7DBAB46A81B401E0990002064
:1007D00004F80B000B98099AC0F80880C0E9002BB8
:1007E0007CE711264FF0000859E72DE9F04F8846C5
:1007F0000446D21D22F0070191B0D1E90001CDE9F4
:100800000A0103F0FCFB02460B98C00F01D02D201B
:1008100007E02068810701D52B2002E0202101EAB2
:10082000C000032A099001D0072A05DB0346414690
:10083000204600F0A9F90BE12078800601D5E06997
:1008400000E00620B8F1650F814606D0B8F1660FCA
:1008500018D0B8F1670F70D131E00020B9F1110F55
:10086000009001DB112301E009F101030AAA01A9AB
:100870000CA8FFF7E4FEDDE90C70002609F1010584
:10088000834647E001204B4600904FF000470AAAFC
:1008900001A90CA8FFF7D3FEDDE90DB00C995D4668
:1008A000002610B909F101000D18B9EB050003D4B9
:1008B000C0F1FF3609F10105A5EB09002BE0B9F104
:1008C000010F01DA4FF001090020B9F1110F00907A
:1008D000484601DD112300E003460AAA01A90CA83D
:1008E000FFF7ADFEDDE90C704D460026834620780B
:1008F00000070AD4AB4500DA5D4601A8012D04DDEE
:10090000411911F8011C302907D04F4502DA17F1BF
:10091000040F04DA012082460FE06D1EEEE7002F7F
:1009200002DCED1B3E4403E0781CA84200DD7D1C88
:10093000B81B00F1010A4FF000472078000703D4EC
:10094000AA4501DB4FF0FF3A0021B7F1004F0DF14E
:1009500043088DF8431024D002202B23002F01DA06
:100960007F422D230A21021EA0F1010000DC5FB1AD
:1009700097FBF1FC97FBF1F201FB1C7C17460CF195
:10098000300C08F801CDEEE7A8F1010003702188D2
:10099000090501D5452100E06521A0F1010800F815
:1009A000011C09980FA9A1EB0807FF1D00B1012048
:1009B000411901EBEA70A1693844081A401EA06190
:1009C0002078C00602D42046AFF30080099828B1F1
:1009D000D4E901219047206A401C20622078C0069B
:1009E00022D52046AFF300801EE0002E04DBB34585
:1009F00002DD01A8805D00E03020D4E901219047AC
:100A0000206A401C2062761CAAF101005FEA000AFD
:100A10000AD100F055F8C0680168405CD4E90121B2
:100A20009047206A401C2062281EA5F10105DCDCED
:100A300007E0D4E9012118F8010B9047206A401C17
:100A40002062381EA7F10107F3DC2046AFF30080D7
:100A5000032011B043E6000001694A1C02610878D6
:100A6000704700B58FB0CDE90131002105910549EE
:100A70007944CDE9031011466846FFF745FC0FB0F5
:100A800000BD0000E5FFFFFF0A6802F8010B0A60E5
:100A900070470000074B70B50D467B44FFF7E1FF40
:100AA0000446284600F01EF910B14FF0FF3070BD2B
:100AB000204670BD8739000000487047E0030020E1
:100AC0000048704700040020034640688C46002818
:100AD00018BF88423CBF03464068F8D318681844E2
:100AE000884207D00CF1030020F00700001D411AD6
:100AF000521A0146081D0A60FFF720BD30B5B0F15B
:100B00000A024FEA900E71F100034EEA817EB0EBCB
:100B10000E0061EB91014FEA101E4EEA017E10EBD0
:100B20000E0041EB11114FEA102E4EEA016E10EB50
:100B30000E0041EB11214FEA104E4EEA014E10EB30
:100B40000E0041EB1141401841F100014FEAD00085
:100B500040EA41704FEAD10110EB80054FEA810471
:100B600044EA907444EB01046D1944EB0404521BF5
:100B7000A3414FF0000348BF0A3200D530BD401CEE
:100B800041F1000130BD00002DE9F0411F4604464F
:100B900003260168072A01F4006004DB08B116A5EA
:100BA00005E016A503E008B115A500E015A521F0A4
:100BB00010002060A069C01EA0610FB1401EA0619E
:100BC0002046AFF300804FB1D4E901213846904769
:100BD000206A401C2062C01C206206E0206AFAE7FE
:100BE000D4E9012115F8010B9047761EF8D2204672
:100BF000AFF30080BDE8F0814E414E006E616E00A3
:100C0000494E4600696E66002DE9F047814616465A
:100C10008AB0334878440DC88DE80D0030487844D8
:100C2000801C03AC0DC884E80D0041F69B300844DD
:100C3000372190FBF1F290FBF1F5A5F1800501FB66
:100C400012041B3C02D56442012000E00020DFF8C2
:100C500090A080460027FA44AAF1BE0A0DE0E00702
:100C600009D03246684607EB47010AEB810100F0E4
:100C70007DFB8DE8070064107F1C002CEFD1184F1E
:100C80007F44AC3F18E0E80714D007EB04100DF1E7
:100C9000180A90E80E008AE80E00C068F04201D100
:100CA00098190890324606A903A800F05FFB03AB31
:100CB00083E807006D10641C002DE4D132466946BC
:100CC000B8F1000F03A802D000F03CFB01E000F0F7
:100CD0004DFBC9E90001C9F808200AB0BDE8F0875A
:100CE0007C6D0000007B00F08000704710B500F0C4
:100CF00037F8BDE8104000F02EB87546FFF7DCFE6F
:100D0000AE4605006946534620F00700854618B0F8
:100D100020B5FFF75BFABDE820404FF000064FF02A
:100D200000074FF000084FF0000B21F00701AC4620
:100D3000ACE8C009ACE8C009ACE8C009ACE8C0093F
:100D40008D46704710B50446AFF300802046BDE8DD
:100D50001040FFF726BA002801D003F07BB9704796
:100D600010B5012805D0002103A000F061F8012092
:100D700010BD09A1F8E7000053494752544D454DB5
:100D80003A204F7574206F662068656170206D652C
:100D90006D6F7279000000003A2048656170206D27
:100DA000656D6F727920636F72727570746564001F
:100DB0004FF0013C50F8042B51F8043B9A4221D1EA
:100DC000A2EB0C03934313EACC1317D150F8042B76
:100DD00051F8043B9A4215D1A2EB0C03934313EA5A
:100DE000CC130BD150F8042B51F8043B9A4209D193
:100DF000A2EB0C03934313EACC13DBD04FF00000BB
:100E0000704700BFD01A01BAB1FA81F101F01801A0
:100E100022FA01F0CB40C1F12001DBB2C0B2C01A0E
:100E20002CFA01F3D11A914311EAC311E6D17047AC
:100E300070B505460C460A2000E06D1C03F00BF966
:100E400035B128780028F8D102E0641C03F003F9DA
:100E500014B120780028F8D1BDE870400A2003F0D2
:100E6000FAB85FEA400C08BF91F0000F4FEA8C23FC
:100E70004FEAC12243EA51514FEA1C5018BF00F516
:100E8000F0404FEA300018BF41F000415FEA6C5C6F
:100E900000F02980BCF1FF3F08BF40F08040704760
:100EA000130C06BF12044FF0100C4FF0000C130E81
:100EB00004BF12020CF1080C130F04BF12010CF155
:100EC000040C930F04BF92000CF1020CD30F04BF6B
:100ED00052000CF1010C11464FF00002A0F11F006E
:100EE000A0EB0C00704711F0004F08BF704731F0C5
:100EF00000413FF4D5AF0B0C06BF09044FF0100CB6
:100F00004FF0000C0B0E04BF09020CF1080C0B0F84
:100F100004BF09010CF1040C8B0F04BF89000CF114
:100F2000020CCB0F04BF49000CF1010CCCF12003E3
:100F3000A0EB0C0022FA03F302FA0CF241EA0301DF
:100F400000F10100704720F07F4C80EA030023F09D
:100F50007F47ACEB070303F57C5300F0004003F13F
:100F6000FF032DE980494FEA154B09B44FEA1443BA
:100F700025EA0B4E24EA03480FF2042606EB13275A
:100F800049083E785FEA320203FB0667C7F50007AF
:100F900007FB06F64FEA54374FEAD64606F102063B
:100FA00007FB066CCCF1005C4FEA1C472CEA074CAF
:100FB00007FB06F40CFB06F504EB15464FEA961604
:100FC00034BF00204FF000404FEAD13706FB07FC4A
:100FD0004FEA1C4C0CFB0BF7D21B03FB0CF761EB2D
:100FE00007010CFB0EF7B0EB074072EB17420CFB4E
:100FF00008F734BFA2EB0742B2EB074261EB17419F
:101000004FEA0C444FEA910706FB07FC4FEA1C4CE1
:101010000CFB0BF7B0EBC74072EB573203FB0CF73E
:1010200034BFA2EBC742B2EBC74261EB57310CFBB6
:101030000EF7B0EBC70072EB57720CFB08F734BF2A
:10104000A2EBC702B2EBC70261EB5771039F4FEAF5
:10105000816141EA921104EBCC044FEAD1374FEAA7
:10106000826206FB07FC42EA90124FEA80604FEA78
:101070001C4C0CFB0BF7D21B03FB0CF761EB0701BD
:101080000CFB0EF7B0EB074072EB17420CFB08F7B6
:1010900034BFA2EB0742B2EB074261EB17414FEAC4
:1010A0008C554FEA910704EB9C2406FB07FC4FEAA2
:1010B0001C4C0CFB0BF7B0EBC74072EB573203FB39
:1010C0000CF734BFA2EBC742B2EBC74261EB57311A
:1010D0000CFB0EF7B0EBC70072EB57720CFB08F776
:1010E00034BFA2EBC702B2EBC70261EB577115EB3D
:1010F0004C254FEA816141EA92114FEA82624FEA40
:10110000D13742EA901206FB07FC44F100044FEA93
:1011100080604FEA1C4C0CFB0BF7D21B03FB0CF757
:1011200061EB07010CFB0EF7B0EB074072EB1742C7
:101130000CFB08F734BFA2EB0742B2EB074261EBAE
:10114000174115EB1C154FEA813141EA92414FEAF4
:10115000823242EA90424FEA80304FEA0C7644F104
:10116000000448EA03434EEA0B484FF0000EB2EB8E
:10117000080C71EB030724BF624639464EEB0E0E96
:101180004FF0000B0018524149414BEB0B0BB2EBF7
:10119000080C71EB03077BF1000B24BF6246394654
:1011A0004EEB0E0E4FF0000B0018524149414BEB35
:1011B0000B0BB2EB080C71EB03077BF1000B24BFA8
:1011C000624639464EEB0E0E51EA020718BF46F052
:1011D000010616EB0E7655F1000254F1000103D51D
:1011E000BDE88901BDE80088BDE88901BDE8004887
:1011F000B619524141EB0101A3F101037047808010
:101200007F7E7D7C7B7A7978777676757473727160
:1012100071706F6E6E6D6C6C6B6A6A696868676618
:1012200066656464636362616160605F5F5E5E5DAA
:101230005D5C5C5B5B5A5A5959585857575656551E
:1012400055555454535352525251515050504F4F80
:101250004F4E4E4D4D4D4C4C4C4B4B4B4A4A4A49D0
:101260004949484848474747474646464545454413
:101270004444444343434342424242414141002BA0
:1012800026D4770021D01CB54FEA370703B44FF0BE
:1012900010004FF010014FF000000FBCBDE81040EF
:1012A0000BF1010BBBF1010F08BF5FEA170722BF6B
:1012B00012F1010211F101014FF0004143F100036D
:1012C00000F0004043EA00007047F9D35708DAE71E
:1012D00046EA064613F1400F4FEA16461FDD13F1AA
:1012E000200FDFBF16430A46002120335B42C8D0DF
:1012F000C3F1200746EA064602FA07F74FEA164608
:1013000046EA0706C3F1200722FA03F201FA07F7BB
:1013100021FA03F14FF0000342EA0702B1E746EA7F
:10132000020646EA06464FEA164646EA0106BCBFF2
:1013300046EA0646360C4FF000034FF000024FF02D
:1013400000019EE72DE9C048934630B491E838008B
:1013500007C831EA400C48BF34EA430C03D5FFF715
:10136000F2FDFFF78CFFF0BCBDE800882DE9C04816
:10137000934630B491E8380007C810F0804F08BF9A
:1013800013F0804F03D100F005F8FFF778FFF0BCB1
:10139000BDE8008820F07F4780EA030023F07F4CFF
:1013A00007EB0C03A3F57C5300F00040A3F1FE0310
:1013B00092F0000F00F0B38095F0000F00F07780FE
:1013C0002DE901494FEA11404FEA144621EA00484D
:1013D00000FB06FC24EA064708FB06F607FB08F8B4
:1013E00000FB07F718EB06484CEB164C4FEA124B84
:1013F00018EB07484FEA15464CEB174022EA0B4E14
:101400000BFB06FC25EA06470EFB06F607FB0EFE65
:101410000BFB07F71EEB064E4CEB164C4FF000068D
:101420001EEB074E4CEB174B18EB0B0840F100007E
:1014300018EB0E0B58EB000840F100008F1A4FF02C
:1014400000013CBFC943661B14BFB5EB040C00216F
:101450003CBFC943F61B4FEA17444EEA8E0E27EAFB
:1014600004454FEA1C4704FB07622CEA074C05FBC6
:1014700007F70CFB05F604FB0CFC16EB074642EBEA
:10148000174216EB0C4642EB1C421BEB060658EBD0
:101490000202414146EA9E0601D5BDE80189B6191E
:1014A000524141EB0101A3F10103BDE801894FEA7B
:1014B00014454FEA114724EA054621EA074C05FB8B
:1014C00007F406FB07F70CFB06F105FB0CFC11EB20
:1014D000074144EB17444FEA124711EB0C4144EB30
:1014E0001C4422EA074C05FB07F206FB07F70CFB3E
:1014F00006F605FB0CFC16EB074642EB174216EB13
:101500000C4642EB1C456A1854F1000148BF704775
:10151000B619524141EB0101A3F10103704795F067
:10152000000F37D04FEA11424FEA144721EA024632
:1015300024EA074C02FB07F106FB07F70CFB06F455
:1015400002FB0CFC14EB074441EB17414FEA154733
:1015500014EB0C4441EB1C4125EA074C02FB07F558
:1015600006FB07F70CFB06F602FB0CFC16EB074626
:1015700045EB174516EB0C4645EB1C42121951F191
:10158000000148BF7047B619524141EB0101A3F178
:10159000010370474FEA14454FEA114724EA054614
:1015A00021EA074C05FB07F106FB07F70CFB06F2E7
:1015B0004FF0000605FB0CFC12EB074241EB174114
:1015C00012EB0C4251EB1C4148BF7047921841EBA3
:1015D0000101A3F101037047FEE7704770B515469E
:1015E00001F0B9FA0C48407901F0CAFD0B4C002219
:1015F0004021204600F01BFC01225102084800F067
:1016000016FC284601F0F8FD2046BDE87040012296
:10161000402100F00CBC00001E000020000C014026
:101620000008014070470022AFF3008030B50E4B38
:10163000054601205C7A012C15D8587A00241C54E8
:10164000587A03EB800045605D7A03F108002A5464
:10165000587A421C5A72303008703A2048702F2055
:101660008870CC70002030BDD40300202DE9F05FDD
:1016700081462D481E46DDF82CB0038888464B4530
:1016800002D34188414504D2BDE8F05F27A0FEF7B0
:10169000DFBDF088410700D0012101EBD000318986
:1016A000203A484380B2424330684FF0800A87189E
:1016B000002534E0002429E0ABF57F41FF3907D055
:1016C000387804F007022AFA02F1084207D10EE046
:1016D000397804F007022AFA02F0014210D008EB30
:1016E000050081B209EB040080B20A9A06E008EB1B
:1016F000050081B209EB040080B25A4600F080FA7E
:10170000E043400700D17F1C641CA4B2F088A042D3
:10171000D2D8B079400700D07F1C6D1CADB23089A3
:10172000A842C7D8BDE8F09F1E0000204552523A9B
:1017300064726177206368617220706F696E7420D3
:101740006F7574206F662073637265656E206172B9
:101750006561210D0A0000002DE9FF4F80466948B0
:101760001546C2F101090288002485B00F464245A2
:1017700002D34088B8427CD209B063A0BDE8F04FE4
:10178000FEF766BD139810B101284BD0A2E008EB1C
:10179000040007EB050A02901FFA8AF180B2129B3F
:1017A000089A00F015F908EB05003E190190B1B256
:1017B00080B2129B089A00F00BF9A8EB040000908D
:1017C0001FFA8AF180B2129B089A00F001F9A8EB87
:1017D000050BB1B21FFA8BF0129B089A00F0F8F8D3
:1017E0000098A7EB050A1FFA8AF180B2129B089AAB
:1017F00000F0EEF83E1BB1B21FFA8BF0129B089A74
:1018000000F0E6F802981FFA8AF180B2129B089A5B
:1018100000F0DEF80198B1B280B2129B089A00F095
:10182000D7F857E0264653E008EB0400039007EB97
:10183000060B1FFA8BF180B2129B089A00F0C8F8D1
:1018400008EB060007EB040A02901FFA8AF180B247
:10185000129B089A00F0BCF8A8EB040001901FFA54
:101860008BF180B2129B089A00F0B2F81FFA8AF14D
:1018700000E040E0A8EB0600009080B2129B089ABE
:1018800000F0A6F80198A7EB060B1FFA8BF180B2C7
:10189000129B089A00F09CF80098A7EB040A1FFA24
:1018A0008AF180B2129B089A00F092F803981FFA0E
:1018B0008BF180B2129B089A00F08AF802981FFA06
:1018C0008AF180B2129B089A00F082F8761CB6B2B8
:1018D000AE42A9D9B9F1000F04DA09EB440000F1D6
:1018E000030906E0611B09EB41006D1E00F10509CB
:1018F000ADB2641CA4B2A5423FF644AF09B0BDE846
:10190000F08F00001E0000204552523A6369726356
:101910006C652063656E74657220706F696E7420EB
:101920006F7574206F662073637265656E206172D7
:101930006561210D0A0000002DE9FC5F99461546FE
:1019400082460E46824201D32A1A00E0421B90468C
:10195000894502D3A9EB010201E0A1EB09029346FC
:10196000A8EB0B044FF0FF32AA4501D9104600E066
:10197000012001904E4500D80122002700920E98C8
:101980007F1C012804D1032097FBF0F100FB1170AC
:1019900028B9DDE90C233146504600F019F8AA4574
:1019A00001D14E4512D06000CBF10001884206DB28
:1019B000019AA4EB0B040AEB02011FFA81FA4045DD
:1019C000DDDC00984444304486B2D8E7BDE8FC9F93
:1019D0002DE9FF5F804617481F4689460288424529
:1019E00025D342884A4522D3002582461DE008EBD4
:1019F00005060024A6F1010B13E000BFBAF80010A1
:101A00008E420CD8BAF8020009EB0401814206D8D4
:101A1000491E89B21FFA8BF0029A00F0F1F8641C9B
:101A2000A4B2BC42EAD36D1CADB2BD42DFD3BDE867
:101A3000FF9F00001E0000202DE9FE4F81462B482D
:101A400092460C46DDE90D5102880C9E1F464A4520
:101A500006D34088A04203D3524501D3B84204D2F2
:101A6000BDE8FE4F22A0FEF7F3BB002001292BD0DA
:101A7000002927D1CDE900658046234602905246D1
:101A800019464846FFF758FFCDE900654A463B46F0
:101A900021461046CDF80880FFF74EFFCDE90065DE
:101AA0003B46524619464846CDF80880FFF744FFAA
:101AB000CDE9006552463B4621461046CDF80880E8
:101AC000FFF73AFFBDE8FE8F80460BE0CDE90065E9
:101AD0002346524619464846CDF80880FFF72CFFAA
:101AE000641CA4B2BC42F1D3ECE700001E0000204D
:101AF0004552523A6C696E6520706F696E74206F42
:101B00007574206F662073637265656E20617265FF
:101B100061210D0A000000002DE9FC5F1E461746FA
:101B20008846814604460D46DFF850A0DDF834B003
:101B30001EE0F188BAF800C00B19634503D9338958
:101B40004C462B449DB23389BAF802002B448342A1
:101B500002D90819454684B20C99CDE9001B3346D9
:101B6000294620467F1CFFF781FDF088204484B27F
:101B70003A78002ADDD1BDE8FC9F00001E0000205D
:101B80002DE9F0471546DDF820A01C460E4680469C
:101B9000A84201D990460546A64201D91E460C46E8
:101BA00023462A463146404601F0BDFA11484079A5
:101BB00001F0E6FADFF8409000224021484600F0AC
:101BC00036F9012251020D4800F031F90027A5EB4A
:101BD0000805A01B454304E0504601F00DFB7F1CA7
:101BE000BFB2BD42F8DC4846BDE8F04701224021C3
:101BF00000F01DB91E000020000C0140000801404B
:101C0000064B30B41C88844205D35B888B4202D3D8
:101C100030BCFFF7E3BC30BC704700001E00002062
:101C200070B5044600F008F90546601C02D004486F
:101C30000078044400F000F9401BA042FAD370BDC4
:101C4000500000202DE9F84FDFF8B891002409F189
:101C5000040A0AF1040B23460F270BF1040EC9E016
:101C60000125A5402A40AA427DD1674ED1F804C083
:101C7000ACEB0608B44532D014DCBCF1030F3AD00B
:101C800009DCBCF1000F2AD0BCF1010F1CD0BCF163
:101C9000020F31D11DE0BCF1110F17D0BCF1120FB2
:101CA0002AD119E0B8F5881F19D006DCB8F5803FB5
:101CB00015D0B8F5801F1FD111E0B8F5001F0ED068
:101CC000B8F5041F18D10AE0CB6815E0CB681B1DDE
:101CD00012E0CB6808330FE0CB680C330CE08B6864
:101CE0002BB1012B4FF0080303D0456104E004231E
:101CF00002E0056100E00023FF2A01D8064601E06A
:101D000000F104064FEA840501D9A5F12005D6F8B3
:101D1000008007FA05FC28EA0C0803FA05F548EAF2
:101D20000508C6F800804D68ED0062D5374DAE69F4
:101D300046F00106AE61AD6924F0030605F0010529
:101D40000095334D06EB050CDCF80850A607360F5E
:101D500007FA06F825EA0805DFF8B880404503D100
:101D60004FF0000817E044E0DFF8AC80404502D1B6
:101D70004FF001080FE0DFF8A480404502D14FF09A
:101D8000020808E0DFF89880404502D14FF00308D0
:101D900001E04FF0040808FA06F848EA0508CCF814
:101DA00008804D68D9F80060ED034D4601D5164313
:101DB00000E096432E604D68DAF80060AD035546AA
:101DC00001D5164300E096432E604D68DBF80060B5
:101DD000ED025D4601D5164300E096432E604D6846
:101DE000DEF80060AD02754601D5164300E096436B
:101DF0002E60641C0D682A46E5407FF431AFBDE8D3
:101E0000F88F000000040140000011100010024093
:101E10000000014000080140000C0140001001409A
:101E2000001401408068084000D0012070470AB1CA
:101E3000016170470904FBE70148806870470000B2
:101E40005000002002488168027811448160704788
:101E500050000020074810B5016841F010010160F2
:101E6000032000F067F8002000F006F800F024F8E6
:101E7000002010BD0020024070B50D4D04464FF407
:101E80007A712878B1FBF0F00A490968B1FBF0F0EB
:101E900000F014FD48B9102C07D200222146501E34
:101EA00000F028F800206C6070BD012070BD0000BB
:101EB000500000205C0000200C4808B5816941F00A
:101EC00001018161816901F001010091C16941F065
:101ED0008051C161C06900F08050009004484168A1
:101EE00021F0E06141F00071416008BD0010024046
:101EF00000000140F0B40E4B1B680C46C3F30223F4
:101F0000C3F10705042D00D90425191D072901D2A5
:101F1000002300E0DB1E012606FA05F1491E2140E0
:101F200099409E40761E16403143F0BC02F07BB8CB
:101F30000CED00E0064900F0070208684FF6FF03C9
:101F4000184040EA0220034A10430860704700002E
:101F50000CED00E00000FA052DE9F0470F46050002
:101F600061D0434E306800F00700B84209D23068B3
:101F700020F0070038433060306800F00700B842B6
:101F800051D128683B4C810712D5400703D56068C2
:101F900040F4E06060602878000703D5606840F492
:101FA000605060606068A96820F0F00008436060DD
:101FB0002878C00728D06868012810D02168022836
:101FC00010D0890700292EDA616821F0030101434E
:101FD0006160FFF731FF804641F288390DE02168EA
:101FE0008903EFE78901EDE7FFF726FFA0EB080182
:101FF000494502D90320BDE8F0876068696800F0B0
:102000000C00B0EB810FEFD1306800F00700B84250
:102010000BD9306820F0070038433060306800F09A
:102020000700B84201D00120E5E72878400705D530
:102030006068E96820F4E060084360602878000781
:1020400006D56068296920F4605040EAC1006060EC
:1020500000F038F86168084AC1F30311515CC840C8
:102060000649086006480068FFF706FF0020C2E73F
:102070000020024000100240EE7800085C000020C2
:10208000540000200448054900684968044AC1F327
:102090000221515CC84070475C00002000100240E3
:1020A000FE7800080448054900684968044AC1F3FD
:1020B000C221515CC84070475C0000200010024003
:1020C000FE78000812A185B00FC98DE80F0014A09A
:1020D000144A006804905168134801F00C03042B63
:1020E00010D0082B0ED1C1F38343C9031DF80300A0
:1020F0000AD5516804AAC1F34041515C0A4A5043D1
:10210000B0FBF1F005B0704708494843FAE700001A
:1021100002030405060708090A0B0C0D0E0F101028
:10212000010200000010024000127A0000093D0088
:102130002DE9F84F040070D02078C04DC00749D079
:102140006868C0F38100012807D06868C0F3810087
:10215000022809D16868C00306D52868800339D5EC
:1021600060680028E7D035E06068B0F5803F0BD0AC
:1021700010B1B0F5A02F11D0286820F4803028606D
:10218000286820F4802002E0286840F4803028602D
:10219000606890B1FFF750FE06460AE0286840F4F8
:1021A00080202860F0E700BFFFF746FE801B642810
:1021B00073D828688003F7D50CE0FFF73DFE06468C
:1021C00005E000BFFFF738FE801B6428F0D82868C0
:1021D0008003F7D420789A4E80074FF001094FF022
:1021E000000839D5686810F00C0F07D06868C0F394
:1021F0008100022809D16868C00306D428688007D6
:1022000014D52069012808D110E02069B0B1C6F8C2
:102210000090FFF711FE074605E00AE1FFF70CFE0C
:10222000C01B0228C4D828688007F7D528686169D0
:1022300020F0F80040EAC10028600DE0C6F80080F8
:10224000FFF7FAFD074604E0FFF7F6FDC01B022882
:1022500023D828688007F7D4207800072CD5794840
:10226000A169D9B1C0F80090FFF7E6FD074604E088
:10227000FFF7E2FDC01B02280FD8686A8007F7D578
:1022800071484FF4FA510068B0FBF1F0009000BFC4
:102290000098411E0091FAD20EE080E0C0F8008064
:1022A000FFF7CAFD074604E0FFF7C6FDC01B022882
:1022B00075D8686A8007F7D42078400760D5E86948
:1022C0000027C00008D4E86940F08050E861E86960
:1022D000012700F0805000905C480168C90513D4C4
:1022E0000168834641F480710160FFF7A5FD8246D5
:1022F00006E000BFFFF7A0FDA0EB0A0064284ED85F
:10230000DBF80000C005F5D5E06801280AD008B167
:10231000052813D0286A20F001002862286A20F0DE
:10232000040002E0286A40F001002862E06841F2FF
:10233000883B98B1FFF780FD82460BE0286A40F0A9
:1023400004002862EEE700BFFFF776FDA0EB0A016C
:1023500059455AD8286A8007F6D50CE0FFF76CFD7E
:10236000824605E0FFF768FDA0EB0A0159454CD80D
:10237000286A8007F6D41FB1E86920F08050E86130
:10238000E06988B36968C1F38101022944D0022859
:10239000C6F8608004D0FFF74FFD044638E034E013
:1023A000FFF74AFD074604E0FFF746FDC01B022881
:1023B0002BD828688001F7D4206AB0F5803F05D17A
:1023C0006868A16820F4003008436860D4E9080117
:1023D0000843696821F4741108436860C6F8609086
:1023E000FFF72AFD044606E025E000BFFFF724FDC5
:1023F000001B022809D828688001F7D51BE000BF20
:10240000FFF71AFD001B022802D90320BDE8F88F50
:1024100028688001F4D40EE00128F7D06868226AA9
:1024200000F48031914204D1616A00F47010884256
:1024300001D00120EAE70020E8E700000010024098
:1024400000004242800442425C00002000700040D4
:1024500070B5040009D0606A002540B1256165614E
:10246000A56294F8510040B10CE0012070BD606895
:10247000B0F5827FF4D0E561F2E784F85050204651
:1024800000F040F8022084F851002068016821F033
:1024900040010160A088218900F4827001F40441A8
:1024A0000843A18901F400610843217C01F0020185
:1024B0000843217D01F001010843218B01F40071E3
:1024C0000843217F01F03801084394F8201001F0FF
:1024D00080010843218D01F4005108432168086000
:1024E000A069042101EA1040216848602068C169A0
:1024F00021F40061C1616565012084F8510000206C
:1025000070BD000030B585B00024009401940294A1
:10251000039400681449884223D11448816941F426
:1025200080518161816901F480510491816941F098
:102530000401816180690E4D00F004000490A02028
:102540000090022001900320039069462846FFF77F
:1025500079FB4020CDE90004694628460294FFF744
:1025600071FB05B030BD000000300140001002409A
:10257000000801402DE9F84F044690F8500000276C
:102580001D461646894601280DD04FF0010B84F8F0
:1025900050B0FFF751FC804694F85100BA4601282C
:1025A00004D0022793E00220BDE8F88FB9F1000FB4
:1025B00073D0002E71D0032084F85100C4F854A0C9
:1025C000C4F83090A686E686C4F838A0A4F83CA0EB
:1025D000A4F83EA0C4F844A0C4F840A0A068B0F598
:1025E000004F09D12068016821F040010160206896
:1025F000016841F48041016020680168490603D404
:10260000016841F040010160E068B0F5006F60686A
:1026100003D030B3012E24D041E008B1012E1CD1EB
:10262000206B21680088C86006E0206881688907FF
:1026300009D5216B0988C160206B801C2063E08E66
:10264000401EE08609E0FFF7F7FBA0EB0800A84278
:1026500002D3681C01D031E07DB3E08E0028E4D1C4
:1026600020E0206B21680078087306E0206881680C
:10267000890709D5216B09780173206B401C206301
:10268000E08E401EE0860AE0FFF7D6FBA0EB0800D4
:10269000A84203D3681C02D010E017E06DB1E08EB1
:1026A0000028E3D142462946204600F0A3FC08B1A9
:1026B00020206065A06818B106E0FFE7032706E068
:1026C0002068C16880680090606D00B1012784F8BF
:1026D00051B084F850A0384666E72DE9F84F04461B
:1026E00090F8500000270A9E1D4692468B464FF0F8
:1026F000010901280ED0012084F85000FFF79CFB4F
:10270000804694F85100616801280CD0B1F5827FB1
:1027100007D102E00220BDE8F88FA16809B90428BA
:1027200001D00227C2E0BBF1000F27D0BAF1000FA1
:1027300024D01DB394F85100042802D0052084F859
:10274000510000206065C4F838A0E587A587C4F86B
:1027500030B0E586A586206460642068016849067B
:1027600003D4016841F040010160E068B0F5006FFA
:10277000606805D0E8B3012D46D07FE0012795E0E1
:1027800008B1012D39D1206B21680088C860206B09
:10279000801C2063E08E401EE0862EE02068816869
:1027A00089070FD5E18E69B1B9F1010F0AD1216B0B
:1027B0000988C160206B801C2063E08E401EE0868B
:1027C0004FF0000920688168C9070CD0E18F51B132
:1027D000C068A16B0880A06B801CA063E08F401EC6
:1027E000E0874FF00109FFF727FBA0EB0800B0429C
:1027F00000E009E001D3701C50D1E08E0028CDD15B
:10280000E08F0028CAD13FE0206B21680078087370
:10281000206B401C2063E08E401EE0862EE0206886
:10282000816889070FD5E18E69B1B9F1010F0AD12D
:10283000216B09780173206B401C2063E08E401EE1
:10284000E0864FF0000920688168C9070CD0E18F4D
:1028500051B1C068A16B0870A06B401CA063E08FF1
:10286000401EE0874FF00109FFF7E6FAA0EB0800F1
:10287000B04202D3701C01D010E07EB1E08E00287F
:10288000CDD1E08F0028CAD142463146204600F023
:10289000B1FB28B101272020606507E0032705E090
:1028A000A06818B92068C16880680090012084F889
:1028B0005100002084F8500038462CE710B5401E27
:1028C000B0F1807F01D3012010BD4FF0E0246061A2
:1028D0000F21601701F0A7FB0020A06107202061F5
:1028E000002010BD70B5040004D094F83900002514
:1028F00010B106E0012070BD84F83850204600F089
:1029000023F8242084F839002068C16821F400519C
:10291000C160204601F0D0F82068016921F490419F
:1029200001612068416921F02A0141612068C16884
:1029300041F40051C160E563202084F8390084F837
:102940003A00002070BD000030B585B0002400942E
:1029500001940294039400681449884223D11448D6
:10296000C16941F40031C161C16901F400310491D0
:10297000816941F00401816180690E4D00F004001D
:1029800004900420009002200190032003906946E7
:102990002846FFF757F90820CDE900046946284684
:1029A0000294FFF74FF905B030BD0000004400402D
:1029B00000100240000801402DE9F843044690F859
:1029C00039001F4616460D4620284CD1C5B1BEB170
:1029D00094F83800012846D0012084F838004FF0E0
:1029E0000008C4F83C80212084F83900FFF724FA5D
:1029F000A6848146E684A068B0F5805F03D004E039
:102A00000120BDE8F883206928B12E465FF000055B
:102A100084F838800EE00026FAE78021204601F095
:102A2000A7F8A0B9AEB116F8010B21684860E08C98
:102A3000401EE084E08C4B464FF0000200970028D7
:102A4000EBD14FF04001204601F092F830B1032065
:102A5000D7E735F8020BC0F30800E6E7202084F83A
:102A600039000020CDE70220CBE7FEE72DE9F04159
:102A700007460021084600F06EF81248407900F041
:102A80007FFB114D002240212846FFF7D0F901229B
:102A900051020E48FFF7CBF9082000F0BBFA0024E2
:102AA0004FF41636384600F0A7FB641CB442F9D345
:102AB000012240212846FFF7BAF9BDE8F04118206D
:102AC00000F0A8BA1E000020000C014000080140E0
:102AD000F0B40F492C242A254FF4A0724FF4F07360
:102AE0002B2678B101280DD002280BD0032809D05D
:102AF00001270F710B804A804C718D71CE71F0BC33
:102B000000F008B800270F710A804B80F4E700003E
:102B10001E00002010B50021082812D2DFE800F0C6
:102B2000110406080A0C0E1080210AE0402108E07A
:102B3000C02106E0202104E0602102E0A02100E0A5
:102B4000E02141F00804362000F01AFB2046BDE8E1
:102B5000104000F033BB0B46024600F0E4BA000020
:102B600070B501226F4D140221462846FFF75FF928
:102B70000120FFF755F8002221462846FFF757F9B4
:102B80005020FFF74DF8012221462846FFF74FF964
:102B90000A20FFF745F87820FFF742F8112000F0EF
:102BA000EFFA7820FFF73CF8F02000F0E9FAC320B4
:102BB00000F004FBF02000F0E3FA962000F0FEFAAB
:102BC000362000F0DDFA482000F0F8FAE82000F0A6
:102BD000D7FA402000F0F2FA822000F0EFFA072046
:102BE00000F0ECFA182000F0E9FA272000F0E6FAED
:102BF0000A2000F0E3FAB62000F0E0FA332000F0FB
:102C0000DDFAC22000F0BCFAA72000F0D7FAC520F8
:102C100000F0B6FA252000F0D1FAB72000F0B0FAA3
:102C2000462000F0CBFAE02000F0AAFAF02000F0F5
:102C3000C5FA072000F0C2FA112000F0BFFA1020F8
:102C400000F0BCFA112000F0B9FA0B2000F0B6FA3F
:102C50003C2000F0B3FA432000F0B0FA4B2000F023
:102C6000ADFA0B2000F0AAFA172000F0A7FA162000
:102C700000F0A4FA1B2000F0A1FA1D2000F09EFA3B
:102C8000E12000F07DFAF02000F098FA072000F033
:102C900095FA112000F092FA0F2000F08FFA102020
:102CA00000F08CFA1A2000F089FA392000F086FA38
:102CB000552000F083FA4A2000F080FA0B2000F043
:102CC0007DFA162000F07AFA152000F077FA1A2023
:102CD00000F074FA1D2000F071FAF02000F050FAB4
:102CE0003C2000F06BFAF02000F04AFA692000F076
:102CF00065FA3A2000F044FA552000F05FFA782097
:102D0000FEF78EFF292000F03BFA0720FFF7E0FED8
:102D10004FF6FF70FFF7AAFEBDE8704002A0FDF776
:102D200097BA0000000801404C43442046696E6990
:102D3000736820496E69740D0A0000007CB529484B
:102D4000002686844FF6FF70FFF790FE1F2428238D
:102D50005A220A2105200094FEF712FFE502CDE970
:102D60000054214B21A20F210520FEF7D5FE5A2346
:102D70001A463C2105200094FEF702FFCDE90054DD
:102D8000194B1CA241210520FEF7C6FE8D235022BF
:102D9000722105200095FEF7F3FE4FF4FC600090D1
:102DA000B72350229C210520FEF7EAFEE1235022A2
:102DB000C62105200094FEF7E3FE40F20B135022DB
:102DC000F02105200096FEF7DBFE4FF6E070009044
:102DD00040F2351350224FF48D710520FEF7D0FEDE
:102DE0007CBD0000940300201000002043414C49AA
:102DF00042000000434C45415200000010B5044918
:102E00000448FEF710FC0249491E087010BD00007E
:102E100049000020340000202DE9F04786B000264C
:102E200033480096019602960396816941F00401A9
:102E30008161816901F004010491816941F0080117
:102E40008161816901F008010491816941F01001FB
:102E500081618069DFF89CA000F0100004900122DD
:102E60004FF48A615046FEF7E2FFDFF88C800122C2
:102E700080214046FEF7DBFFDFF880904FF440777B
:102E8000012239464846FEF7D2FF4FF48060012404
:102E9000CDE900040220CDE9024069465046FEF724
:102EA000D1FE8020CDE90004032569464046CDE9E6
:102EB0000245FEF7C7FECDE9007469464846CDE9F4
:102EC0000245FEF7BFFE2820CDE9000669460294C0
:102ED0005046FEF7B7FE5020CDE900046946504643
:102EE000CDE90245FEF7AEFE06B0BDE8F087000072
:102EF00000100240000C0140001001400008014099
:102F0000104810B50E4901604FF4827141600021F4
:102F10008160C1604FF400720161C0E905121022A6
:102F2000C0E90721416281620A21C162FFF790FA7C
:102F3000002803D0BDE81040FEF774BB10BD0000B0
:102F400000300140680000200C4810B50A490160BB
:102F50004FF4E1314160002181600C22C160C0E981
:102F600004128161C161FFF7BDFC002803D0BDE8F8
:102F70001040FEF757BB10BD00440040C0000020C9
:102F8000FEE770477047000070B5002422460CA190
:102F90000C4801F0EDF820B1BDE870400AA0FDF743
:102FA00057B90EA0FDF754F9064D503D0D20FDF721
:102FB00020F945F82400641CE4B2142CF6D370BD4B
:102FC0002F000000500100206661746673206E6F50
:102FD00074206D6F756E7465640D0A0066617466A9
:102FE00073206D6F756E74207375636365737321E1
:102FF0000D0A000038B50B460092044600228021DD
:1030000000F034F8002804D0606D40F020006065C6
:10301000032038BD064910B5C8610846FFF718FA05
:10302000002803D0BDE81040FEF7FCBA10BD000038
:103030006800002010B50446FEF7FEFE0146024877
:10304000C0E9011410BD00002800002010B5FEF7F3
:10305000F3FE05494A688968801A884201D2012036
:1030600010BD002010BD0000280000202DE9F8430D
:103070001E46914688460446089DFEF7DDFE401B2D
:10308000351AFEF7D9FE074625480068C0F3CB3055
:10309000684338E0701C37D0FEF7CEFEC01BA84254
:1030A00003D215B1009860B32CE02068416821F08C
:1030B000E00141606068B0F5827F0BD1A068B0F597
:1030C000004F02D0B0F5806F04D12068016821F074
:1030D00040010160A06AB0F5005F09D12068016875
:1030E00021F4005101602068016841F40051016041
:1030F000012084F85100002084F850000320BDE82E
:10310000F8830025401E00902068816838EA01009D
:1031100004D000214945BDD10020F0E70121F9E7A5
:103120005C00002070472DE9F04107461D4614461B
:103130000E462A2000F024F8380A00F03FF8F8B2D2
:1031400000F03CF8641EC4F3072000F037F8E0B24A
:1031500000F034F82B2000F013F8300A00F02EF8BD
:10316000F0B200F02BF86D1EC5F3072000F026F832
:10317000E8B200F023F8BDE8F0412C20AFF3008066
:1031800031B50B4C002240212046FEF750FE0022B4
:1031900061150848FEF74BFEFF23012269460648E9
:1031A000FFF7E8F9012240212046FEF740FE38BD36
:1031B000000C0140000801406800002031B50B4CB4
:1031C000002240212046FEF732FE0122510208482B
:1031D000FEF72DFEFF23012269460648FFF7CAF9D4
:1031E000012240212046FEF722FE38BD000C01409E
:1031F000000801406800002038B50446000A8DF838
:103200000000FF23012269460548FFF7B3F98DF856
:103210000040FF23012269460148FFF7ABF938BDA2
:1032200068000020FEF70EBE30B58FB0282168463A
:10323000FDF706F914210AA8FDF702F9022401207E
:10324000049000941020059000254FF46010CDE903
:10325000085007946846FEF76BFF0AA90F2081E823
:1032600031006002CDE90D0502210AA8FEF774FEC7
:103270000FB030BD704700002DE9F04F4FF6FF7BD7
:10328000002689B037465D465846FFF7EFFBB84841
:103290004FF47844B74B0480B74A32211E20CDE961
:1032A0000045FEF739FC14212246084600F0AAF931
:1032B000B24C00202075A061012000F039FA207D79
:1032C0000121B1EB901F4BD120F04000207504A8E4
:1032D000218820F8261000EB8600761C00276189E3
:1032E000F6B24180062E3BD2DFE806F03A03101F0B
:1032F0002E4A14215A46084600F084F9A0484FF49B
:1033000078420088143880B2142127E09C4D5A4638
:1033100014212888143880B200F074F968884FF4BA
:103320007842143881B2142018E0954D5A466888C6
:10333000143881B2142000F065F96888143881B21D
:103340002888143880B207E05846FFF78FFB8C4876
:1033500041880088490840084FF4784200F052F94B
:103360000A20FEF75DFC7F1CBFB2B7F57A7FA3D9B8
:1033700084A0FCF76DFF00F075F909B0BDE8F08F8F
:10338000BDF81400BDF81010401A00B20390BDF84B
:103390001C00BDF81810401A00B20290BDF81E00C3
:1033A000BDF81610401A00B20190BDF81A00BDF821
:1033B0001210401A00B20090029801F03DFC054640
:1033C0000E46039801F038FC2A46334601F0DCFA39
:1033D00005468846009801F02FFC0646894601986C
:1033E00001F02AFC32464B4601F0CEFA81468A466D
:1033F000002213462846414601F036FC01D288F0EF
:103400000048002213464846514601F02DFC01D2E7
:103410008AF0004A4FF066363246644B28464146F1
:1034200001F022FC7CD3624A624B2846414601F0FF
:10343000ABFC75D332465D4B4846514601F014FC57
:103440006ED35B4A5B4B4846514601F09DFC67D307
:10345000039941F6FE7001F6FF71814260D801992F
:1034600001F6FF7181425BD8029901F6FF7181423A
:1034700056D8009901F6FF71814251D8039800286F
:103480004ED0019800284BD00298002848D00098D0
:10349000002845D03A4E30884000503801F0EEFD0B
:1034A0000746DDE90210084401F0E8FD394601F065
:1034B00003FDA06170884000503801F0DFFD064632
:1034C000DDE90010084401F0D9FD314601F0F4FCBB
:1034D000E061BDF820002084BDF8220060845C46D5
:1034E0005846FFF7C3FA1F20CDE90004214B32A252
:1034F0006E212D20FEF710FB4FF4FA60FEF790FBD3
:10350000CDE9009A2A46434604A800F06FF940F638
:10351000B830FEF785FB30A0FCF79AFE2DE7FFE7F9
:1035200000264FF4FA60FEF77BFB15485A464188A7
:1035300000884908400800F065F814214FF47842EB
:10354000084600F05FF829A0FCF782FECDE9009A5A
:103550002A46434604A800F049F94FF47841CDE9E2
:10356000001B044B044A32211E20FEF7D5FAA3E6C5
:103570001C00002004000020AC7900089403002007
:103580001E00002063616C696272617465206F7552
:103590007474696D652C496E697420546F75636825
:1035A000205061642E2E2E0D0A0000006666EE3F4C
:1035B000CDCCCCCCCCCCF03F546F7563682053633A
:1035C0007265656E2043616C6962726174696F6EC9
:1035D000204F4B210000000043616C6962726174EE
:1035E000696F6E206F7665720D0A000073686F77E1
:1035F0002063616C69627261746520696E666F0D2B
:103600000A0000002DE9FE43164605464FF001086A
:103610000A3082B2CDE900680027A5F10A000C4605
:1036200080B20B460297FEF787F904F10A0083B2D5
:103630001438CDE9006881B22A4610460297FEF799
:103640007BF90223324621462846FEF7C1F9CDE92F
:1036500000873346062221462846FEF77DF8BDE85E
:10366000FE8300000648054981610649C16140F2B8
:10367000FF71018441840021818470471F85FBC054
:1036800094030020B81E354170B505460C469020C5
:1036900000F07EF92880D02000F07AF9208070BDFB
:1036A0007FB50C460546694602A8FFF7EDFF01A964
:1036B00003A8FFF7E9FFBDF80C30BDF808209342DE
:1036C00003D803F13200824205D39A422ED802F188
:1036D000320083422AD2BDF80410BDF800008142B6
:1036E00003D801F13206B04205D388421ED800F15A
:1036F0003206B1421AD240F6FF76B24216D0AAB1D3
:10370000B34213D093B1B04210D078B1B1420DD0D2
:1037100061B1D01840082880BDF80000BDF8041041
:10372000084440082080012004B070BD0020FBE761
:1037300070B5054620212A48FEF774FB294C30B1AC
:10374000207D010640D520F08000207543E025490A
:1037500024480A3115B1FFF7A3FF2BE0FFF7A0FFC4
:1037600040B3214E3088400801F0A0FC0546208877
:10377000218C401A00B201F081FCA16901F09CFB90
:10378000294601F037FB01F059FC20807088400881
:1037900001F08CFC05466089618C401A00B201F092
:1037A0006DFCE16901F088FB294601F023FB01F083
:1037B00045FC6081207D00060DD4C0202075208846
:1037C00020816089608206E00020208160824FF6BF
:1037D000FF7020806081207D00F0800070BD0000BF
:1037E000000C0140940300201E0000202DE9FF5F23
:1037F00088B0074600244FF6FF754FF478484FF025
:10380000A00900BF37F82430621C36A102A8FCF7DB
:103810002BFD04EB8401CDE9008509EB8106334BD8
:1038200002AA31462820FEF777F907EB8400621CD4
:1038300043882FA102A8FCF717FDCDE9008531468A
:103840002A4B02AA8C20FEF767F9641CE4B2052C0F
:10385000D8D304EB8400B42101EB80032649009502
:1038600009EB800409882820491E8AB22146FEF708
:1038700087F94FF0700A8DF808A078208DF80900BC
:10388000DDE90A234FF03A0B02AE8DF80AB01BA116
:10389000F01CFCF7E9FCCDE900854FF000098DF83C
:1038A0000F9047462146114B02AA2820FEF734F913
:1038B0008DF808A079208DF809008DF80AB0DDE9AF
:1038C00016230EA1F01CFCF7CFFCCDE900758DF896
:1038D0000F902146054B02AA8C20FEF71DF90CB073
:1038E000BDE8F09F7825643A2564000004000020BC
:1038F0007925643A256400001E000020252E3266DA
:103900000000000071B583B000208DF808008DF82C
:1039100004003020FFF77EFB1B4E002210213046B2
:10392000FEF785FAFF24012301AA03A91748009492
:10393000FEF7D3FE4FF4C871491EFDD28DF8084042
:10394000012301AA02A911480094FEF7C6FE9DF8C2
:1039500004004FF6FF7101EA0025012301AA02A924
:103960000A480094FEF7B9FE9DF8040001220543C1
:10397000EC0810213046FEF75AFA1020FFF74AFBF8
:1039800004B0204670BD0000000C0140680000201B
:10399000FEB50026074635466C463846FFF7B2FFAF
:1039A00024F81500D020401EFDD26D1CEDB2052D6F
:1039B000F3D30020411C0B460BE000BF34F810206D
:1039C00034F81150AA4203D924F8105024F81120D9
:1039D000491CC9B20529F1D3D8B20428EAD3012081
:1039E00034F81010401CC0B20E440428F8D3032051
:1039F000B6FBF0F0FEBD00000226294D294C002048
:103A0000FFF796FE207D0006F9D520882988884298
:103A1000F5D261896A889142F1D2821F542A12D26A
:103A20000A2909D9282907D20A4601461EA0FCF70F
:103A30000FFCFFF721FC03E03C2904D95A2902D2EC
:103A4000FFF77CF9DBE74A2A24D2722904D98D29B1
:103A500002D24FF478401BE09C2904D9B72902D246
:103A60004FF4FC6014E0C62903D9E12901D21F20DC
:103A70000EE0F02904D9B1F5857F01D8002007E0D8
:103A8000B1F58D7F06D9B1F59A7F03D84FF6E07076
:103A9000A084B4E7A28C3346FDF79AFFAFE700009D
:103AA0001E000020940300204C434420783A2564F3
:103AB00020793A25640D0A0070B504460068016952
:103AC000E26821F44051114301612169A068084373
:103AD000616908432168CA6841F20C639A43024352
:103AE000CA6020684169A26921F4407111434161B3
:103AF0001E492068884202D1FEF7D4FA01E0FEF7A1
:103B0000C1FA00EBC00101EB001260686421800083
:103B1000B2FBF0F3B3FBF1F36FF018067343B2FBA3
:103B2000F0F5B2FBF0F605EB8305322303EB051548
:103B3000B5FBF1F5B6FBF1F605F0F00505EB061562
:103B4000B2FBF0F6B2FBF0F0B0FBF1F06FF0180250
:103B5000504306EB800003EB0010B0FBF1F021684E
:103B600000F00F002844886070BD0000003801405C
:103B70002DE9F041984617460E460446069D1DE085
:103B8000681C1BD02DB1FEF757F9A0EB0800A84226
:103B900014D92068C16821F4D071C16020684169DE
:103BA00021F001014161202084F8390084F83A00B5
:103BB000002084F838000320BDE8F0812068006808
:103BC00036EA000004D00020B842D9D00020F3E744
:103BD0000120F9E72DE9F84310B10120BDE8F88391
:103BE000444D287880077CD4DFF80C814FF4807135
:103BF000D8F80000C1610A24FF2000F06BFE641EAB
:103C000014F0FF04F8D100263146304600F0C3FD21
:103C100001285CD14FF47A70FFF70CFA4FF4D5719C
:103C2000082000F0B8FD012808D00021A92000F0EC
:103C3000B2FD012836D80226A92435E06F46FF20C0
:103C400000F048FE3855641CE4B2042CF7D39DF80C
:103C5000020001283BD19DF80300AA2837D1440770
:103C6000FFF7F4F928B12146A92000F094FD0028BF
:103C7000F6D1FFF7EBF950B300213A2000F08BFDAD
:103C800028BB0024FF2000F025FE3855641CE4B258
:103C9000042CF7D39DF80000400601D50C2616E051
:103CA000042614E001263446FFF7D0F928B100219C
:103CB000204600F070FD0028F6D1FFF7C7F928B1C3
:103CC0004FF40071102000F066FD00B100266E7008
:103CD00000F004FA4EB1D8F800000821C16128783C
:103CE00000E004E020F0010000E0012028702878C6
:103CF00074E7000028000020680000207FB514460B
:103D0000030002D0042004B070BD6B4E3078C007B1
:103D100001D00320F7E7012561B101290DD06648E4
:103D20000329407848D004297ED0042500F0D6F934
:103D30002846E8E700F072FDBAE00021092000F013
:103D40002AFD0028F2D11021684600F0FDFC002871
:103D5000ECD09DF800100120B0EB911F0CD19DF824
:103D600009109DF8082001EB02229DF8071000EBD6
:103D70000140104480021DE09DF805009DF80A10E6
:103D800000F00F0000EBD1109DF809109DF80720FE
:103D900001F0030100EB41019DF80800800900EBF0
:103DA00082009DF8062002F0030200EB8220401CF6
:103DB000C91F3EE020607DE040074FF000011AD5AA
:103DC0008D2000F0E8FC0028B0D1FF2000F082FD3B
:103DD0001021684600F0B8FC0028A7D03025FF204D
:103DE00000F078FD6D1E15F0FF05F8D19DF80A0072
:103DF000010910201DE0092000F0CDFC002895D11C
:103E00001021684600F0A0FC00288FD07078800751
:103E100011D59DF80A009DF80B108006400E00EBAE
:103E2000D1109DF80D1000E013E0FF2202EB91117C
:103E3000401C8840BEE79DF80B008107C90E01EBCE
:103E400050109DF80A10401CC1F38401491C4843DE
:103E5000B0E710F0060FC0D06A460B211846FFF7F6
:103E60004DFF0028B0D19DF80000800904D19DF8D5
:103E70000A0040067FF55AAFD4E9001470780007B5
:103E800001D449026402202000F085FC00289BD167
:103E90002146212000F07FFC002895D1002126201A
:103EA00000F079FC00288FD147F2305000F0FEFC82
:103EB000002892D0002539E72800002070B51C4664
:103EC0000D4630B92CB11C480178C90703D0032036
:103ED00070BD042070BD4078000700D452024FF43A
:103EE0000076012C114604D0122000F054FC60B181
:103EF00018E0112000F04FFCC0B93146284600F010
:103F000023FC98B100F0EAF814E03146284600F0AE
:103F10001BFC18B1641E05F50075F6D100210C20BC
:103F200000F039FC00F0DAF814B903E000F0D6F83C
:103F3000012070BD002070BD2800002008B10120C4
:103F400070470148007870472800002070B51C4673
:103F500015460E4630B92CB122490878C00703D067
:103F6000032070BD042070BD0878400701D50220F1
:103F700070BD4878010700D45502012C0CD010F018
:103F8000060F03D01946972000F005FC294619209A
:103F900000F001FC68B11AE02946182000F0FBFB94
:103FA000D0B9FE21304600F0A5FCA8B100F096F88B
:103FB00015E0FC21304600F09DFC18B1641E06F5AA
:103FC0000076F6D1FD21002000F094FC20B100F035
:103FD00085F824B1012070BD00F080F8FAE70020D8
:103FE00070BD000028000020FFF7F4BDFFF786BE7B
:103FF000FFF764BFFFF7A2BFFFF7A8BFFEE74900C6
:1040000050EAC12018BF04204A0D18BF40F001003B
:1040100040F2FF72B2EB515F08BF40F0020001288E
:1040200008BF052070470907090E002804DB00F1CE
:10403000E02080F80014704700F00F0000F1E0204D
:1040400080F8141D704730380A2801D201207047CB
:10405000002070477047704710B50446002084F870
:104060000402401EC4F82C02204600F051FB08B1A7
:10407000032010BDB4F8FE01A0F52A41553901D046
:10408000022010BD94F83600B4F8371040EA012140
:104090000848B0EB012F08D094F85210B4F8532020
:1040A00041EA0221B0EB012F01D1002010BD012017
:1040B00010BD00000046415430B50021064A0C46B0
:1040C00001EB410352F82350854201D142F82340CD
:1040D000491C0229F4D330BDBC03002010B50122D5
:1040E00091020448FDF7A3FEBDE81040FF2000F058
:1040F000F1BB0000000C0140084910B50B5C002228
:1041000053B901220A540A1801EB8000127A406860
:104110000168104688470246104610BDD4030020AF
:1041200030B4054D2C1805EB8000247A4068856872
:104130002046AC4630BC6047D4030020044A111826
:1041400002EB8000097A4068426808461047000088
:10415000D403002030B4054D2C1805EB8000247AE0
:104160004068C5682046AC4630BC6047D403002098
:104170002DE9F74181B0904602980090684600F022
:104180005DF9040003D50B2004B0BDE8F0810E4EAC
:10419000002756F8245025B12846FFF78DFF85F8F3
:1041A00000720198002801D080F8007246F82400BF
:1041B00002D0B8F1010F01D00020E5E7002202A9EA
:1041C00001A800F003F8DFE7640000202DE9FF47B5
:1041D0004FF000090746C0F800901646084600F068
:1041E0002DF9050003D50B2004B0BDE8F0878A48FF
:1041F00050F82540A4B13C6094F8000228B194F82E
:104200000102FFF79BFFC1070CD084F80092E8B2CF
:1042100084F80102FFF770FFC10708D00320E3E72D
:104220000C20E1E70EB1400704D40020DCE71EB10A
:10423000400701D50A20D7E7002529462046FFF789
:104240000BFF012823D100204FEA0D0704EB0011DA
:1042500091F8C22101F5DF712AB10A7AD1F809106B
:1042600042EA012100E0002147F82010401C042808
:10427000ECD3002657F826502DB129462046FFF7EB
:10428000EBFE08B909E00220761C042EF2D30328C5
:1042900001D0E0BB01E00120A6E7B4F80B00B0F5C7
:1042A000007F60D1E28A2AB994F82400D4F825105E
:1042B00040EA0122C4F81822217C84F80312012963
:1042C00001D002294FD1607B514384F80202F0B142
:1042D000431E184247D1B4F81130A4F808321E0723
:1042E00041D1B4F813602EB994F82060D4F821704D
:1042F00046EA0726B4F80EC0BCF1000F33D00CEB31
:10430000010707EB1317BE422DD3F61B00E02AE08E
:10431000B6FBF0F038B3012640F6F678404500D3FE
:1043200002264FF6F678404500D30326801C2F4422
:10433000C4F82872AC44C4F81402C4E9875C032EA4
:1043400013D083B16144C4F82412022E19D000F0B6
:10435000010100EB400001EB500000BF00F2FF1034
:10436000B2EB502F0FD20D203EE7002BFBD194F87B
:104370002C10D4F82D30800041EA0321C4F8241217
:10438000ECE74000EAE74FF0FF30C4F81002C4F851
:104390000C02802084F80502032E30D1208E0128E3
:1043A0002DD12046691C00F0B3F940BB84F805927A
:1043B000B4F8FE01A0F52A41553920D12078D4F86F
:1043C000011040EA01201549884218D194F8E4010F
:1043D000D4F8E51140EA0120114988420FD194F840
:1043E000E801D4F8E91140EA0120C4F8100294F879
:1043F000EC01D4F8ED1140EA0120C4F80C020649A2
:1044000084F80062091F0888401C0880A4F806028E
:104410002046FFF751FE08E7640000205252614138
:104420007272416113B54FF6FF730122694602486B
:10443000FEF7C2FA00981CBDC000002010B504466B
:104440004FF0FF302268002A13D0114600E0491CCB
:104450000B78212B0ED33A2BF9D112F8013B303BCC
:104460000A2B06D28A4204D1002B02D1491C1846DD
:10447000216010BD002010BD0EB5FDF7EBFCFEF76E
:10448000D3FEFEF7C9FCFEF73BFDFEF75DFDFEF730
:10449000B5FC85A0FBF7DCFEFFF7E4F8FEF760FB58
:1044A0004FF47847002402250097CDE901544FF4DA
:1044B000A0760A22334601211046FDF73DFA4FF659
:1044C000E030CDE900050F22334601210294104669
:1044D000FDF732FA4FF6E07ACDF800A0CDE90154AD
:1044E0001422334601211046FDF726FA4FF4FC68EA
:1044F000CDF80080CDE90154192233460121104640
:10450000FDF71AFA40F2FF70CDE900051E2233468E
:10451000012102941046FDF70FFA4FF01F09CDF864
:104520000090CDE901542322334601211046FDF7C6
:1045300003FA48F61F00CDE9000528223346012181
:1045400002941046FDF7F8F90126CDE900460A234A
:104550004FF4F072194646200294FDF7EDF90097EA
:10456000CDE9015614234FF4F07219464620FDF7A9
:10457000E3F94FF0030BCDF800A01E23CDE901B401
:104580001A0119464620FDF7D7F904204FF61F01FE
:10459000CDE9001028234FF4F07202961946462008
:1045A000FDF7CAF90097CDE9016478236422502110
:1045B0004620FDF741FACDF80080CDE9016478236B
:1045C0008C2250216E20FDF737FACDF80090CDE90E
:1045D00001647823B42250219620FDF72DFA782328
:1045E0004FF482725021DC200097FDF7C9FA78233E
:1045F0004FF4A57250214FF49170CDF80080FDF773
:10460000BFFA78234FF4C87250214FF4B470CDF83C
:104610000090FDF7B5FA009601964FF4B97643463F
:104620001422B4213046FDF797F8CDE900543B46FB
:104630001E22B4213046FDF78FF8CDE900B41F23C8
:104640002822B4213046FDF787F84FF6FF751E4B40
:104650001EA2A0215020CDE90045FDF75DFACDE96D
:104660000075194B1CA2C3215020FDF755FACDE966
:104670000095154B1BA2E6215020FDF74DFACDE920
:104680000075114B1CA240F209115020FDF744FAAD
:104690004FF4FA60FDF7C4FAFEF776FCFEF74EFB26
:1046A000FFF7AAF9FCE70000332E35696E63682036
:1046B0004C434420446973706C61792064656D6F6C
:1046C0002E2E2E0D0A000000100000203031323353
:1046D00034353637383900005345454E4752454149
:1046E000542100007777772E7365656E6772656178
:1046F000742E636F6D000000332E35696E63682081
:104700004C434420446973706C61792100000000BF
:1047100070B50546D0F82C020C460026A04210D0F9
:10472000284600F093F806000BD195F8010201230A
:1047300022462946FFF7F4FC08B1741E0126C5F88D
:104740002C42304670BD000070B505460C46C820AE
:10475000FEF770FCFF2000F0BDF8FF2803D0FE2814
:1047600006D0002070BDFEF771FC0028F2D1F8E7FA
:104770002646002404E000BF00F0ACF82855641C75
:10478000B4424FF0FF00F7D300F0A4F8FF2000F090
:10479000A1F8012070BD70B504460D46000607D58E
:1047A00004F07F0400213720FFF7F5FF012822D80D
:1047B0000C2C04D0FFF792FC00F030F8D0B144F09C
:1047C000400000F087F8280E00F084F8C5F3074099
:1047D00000F080F8C5F3072000F07CF8E8B200F0A4
:1047E00079F8012044B1082C08D000F073F80C2CA3
:1047F00012D006E0FF2070BD952000E0872000F079
:1048000069F80A24FF2000F065F80106F3D5641E5C
:1048100014F0FF04F6D170BDFF20F0E710B50022C0
:104820004FF480610848FDF702FBFF2000F052F8CA
:104830004FF4FA7000F03AF808B1012010BDFFF70C
:104840004DFC002010BD0000000C01402DE9F0419E
:10485000044690F80402002728B3D4F82C5294F8A8
:10486000010201232A462146FFF774FC08B1012703
:1048700019E0002084F80402D4F82002D4F81812B9
:10488000281A88420FD294F803620AE0D4F818027A
:104890000123054494F801022A462146FFF75AFCF9
:1048A000761E022EF2D23846BDE8F08170B505467C
:1048B000FDF7C2FA0446FF2000F00CF8FF2806D0EE
:1048C000FDF7BAFA001BA842F5D3002070BD012005
:1048D00070BD000001B582B032200090012301AA12
:1048E00002A90348FDF7F9FE9DF804000EBD000083
:1048F0006800002070B505460C464FF4FA70FFF7CB
:10490000D5FF00281BD02046FFF7E4FFFD2C17D071
:104910004FF400760024285DFFF7DCFF641CB442EE
:10492000F9D3FF20FFF7D6FFFF20FFF7D3FFFF20CB
:10493000FFF7D0FF00F01F00052801D0002070BD58
:10494000012070BD10B500290AD00878002807D0D2
:1049500005487844FCF72CFA002801D0002010BD4F
:104960000248784410BD0000F6300000EE30000030
:10497000491058BFC1F140415B1058BFC3F14043DB
:104980008B42EFF3008070472DE9C04130B4DFF86F
:10499000A0C23CEA111418BF3CEA131400F0EC80EA
:1049A00081EA03051CEA111444EAD57418BF1CEA15
:1049B000131500F0C780A4EB05044FF0004545EA4D
:1049C000C12145EAC32341EA505143EA525304F15D
:1049D0007F74994204F500344FEAC0204FEAC222A6
:1049E00008BF904200F09C804FEA13650FF240161A
:1049F000765D4FEA134506FB05F7C7F1807706FBA6
:104A000007F74FEAD737A7FB03687642C8F5803827
:104A1000A7FB06CE38BFA8F1010807FB08E64FF058
:104A2000000EA6FB028CE6FB03CEDCF1000CCEF1FF
:104A3000004E38BFAEF1010EA6FB0C584FF0000738
:104A40004FF00005E6FB0E87A1FB08C6A0FB07CED2
:104A500016EB0E0645F10005E1FB076515F1E04E8A
:104A60007EBFA4F580345FEA46066D4116F18007EB
:104A700045F100054FEA17274FEA066647EA056742
:104A8000A6F1DE46B6F1805F4FEA15251FD93846FC
:104A900024F0010C05EBC471BCF1FE6F01EB0C11AD
:104AA00002D8F0BCBDE8008124425CBF01F5801E45
:104AB0009EEAC47F02D4F0BCBDE80081244238D411
:104AC000F0BCA1F1C041BDE8004100F057B94FEA88
:104AD000D22242EA43524FEAD323A7FB02864FEA8F
:104AE000D02040EA415007FB03661EEA0E0F4FEA52
:104AF000D12105FB026658BFA6EB0056B6EB005667
:104B00004FEA520E4EEAC37E18EB0E0E56EB530ED2
:104B1000BDD518EB02085E417F1C55F10005B6E7D4
:104B20004FF480154FF000074FF000064FF00008DB
:104B3000ADE7F0BC4FF0000001F1C04101F00041D1
:104B4000BDE8008111EA0C1F0CEA131500D00CE03F
:104B500013EA0C1F00F025804FF00000F0BC81EA42
:104B6000030101F00041BDE80081F0BCBDE8004157
:104B700081EA030100F002B9F0BCBDE8004170B564
:104B800000F0AEF8097EFC3E00F007B881EA0301B0
:104B90004FF0000001F00041704781EA030100F08E
:104BA000EDB8F0BCBDE800414FF00000214970476E
:104BB000FFFDFBF9F7F5F4F2F0EEEDEBE9E8E6E4E2
:104BC000E3E1E0DEDDDBDAD8D7D5D4D3D1D0CFCD69
:104BD000CCCBCAC8C7C6C5C4C2C1C0BFBEBDBCBBA2
:104BE000BAB9B8B7B6B5B4B3B2B1B0AFAEADACAB9D
:104BF000AAA9A8A8A7A6A5A4A3A3A2A1A09F9F9E77
:104C00009D9C9C9B9A999998979796959594939328
:104C1000929191908F8F8E8E8D8C8C8B8B8A8989BF
:104C20008888878786858584848383828281818042
:104C30000000FF070000F87F10F0004248BF40422C
:104C4000B0FA80F310FA03F10AD0C3F11D0303F5A3
:104C500080634FEA415002EB035202EBD1217047CF
:104C60004FF000007047000051EA030C17D41CF508
:104C7000801F58BFBCF5801F00F10680994218BF05
:104C8000704708BF9042704707D711F5801F58BF83
:104C900013F5801F19D499427047894270471CF55B
:104CA000801F08D5BCF5801FF7D58B4218BF704711
:104CB00008BF824270474FF4001C1CEB410F38BF05
:104CC0001CEB430F01D28B42704770B500F008F81F
:104CD000922449004FF000514FF08053FFF748BE37
:104CE0000EF1020E2EF0030E5EF8046B364205D470
:104CF000012A43EB030515F5001F12D8012841EBEB
:104D0000010C1CF5001F0CD80ED14FEAD17C15F513
:104D1000001F0CEB4C0C0CF1020C08BF4CEBD37CCD
:104D200004E04FF0080C01E04FEAD37C0CEB4C059B
:104D300026FA05F606F00706B6F1040C06D20EEBCD
:104D4000860CBDE870404CF0010C6047DFE80CF0C9
:104D5000090B02024FF000414FF00000A1F50021C5
:104D600070BD19461046012851EB010418BFD4F557
:104D7000001484BF002001F0004170BD0808A0F5B8
:104D800000114FEA3101704753EA010C17D41CF5AA
:104D9000801F58BFBCF5801F00F106808B4218BFF2
:104DA000704708BF8242704707D713F5801F58BF6E
:104DB00011F5801F19D48B4270479B4270471CF538
:104DC000801F08D5BCF5801FF7D5994218BF7047E2
:104DD00008BF904270474FF4001C1CEB430F38BFD4
:104DE0001CEB410F01D2994270470FB40CBC03BCBD
:104DF000FFF76BBF90EA010F48BF81F0004100F15F
:104E0000BA81421A3CBF801A89184FEAD0524FF03B
:104E10007F4C1CEA410FA2EBD15318BF9CEA026FF2
:104E200000F03B804FF0004C4CEA00204CEA01219E
:104E300021FA03FC10EB0C0C1ED202F1FF325FEAE8
:104E40001C2040EBC25038BF70471CF07F0F4FEA68
:104E5000400C18BFBCF17F4F38BF7047C3F120032F
:104E6000994008BF20F00100BCF17F4F38BF704768
:104E7000A0F1C04000F073B94FEA3C00000A40EBDB
:104E8000C25028BF1CF0FF0F4FEA400CE6D018BFFD
:104E9000BCF17F4F38BF7047EAE79CEA026F05D04C
:104EA00010EA5C0F08BF00F00040704710B500F03A
:104EB00010F900BF64FBBE3E4FF47F0C1CEAD01219
:104EC0001EBF1CEAD11392EA0C0F93EA0C0F00F0FC
:104ED000858090EA010F48BF42F4807240F4000CD4
:104EE00041F400002CF07F4120F07F4000B581426A
:104EF000A2EB03020FF2081CACEB504EC0F1000015
:104F00009EF800E04FEA4E0E00FB0EFC38BF490051
:104F10004FEA2C1C02F5FA020CFB0EF34FEACE1EF0
:104F20004FEA112C4FEAC1210EEB635E42EB2242A5
:104F30000EFB0CFC4FEA1C5300FB03114FEA112C33
:104F40004FEA01310EFB0CFC4FEADC4C00FB0C116C
:104F5000C14228BF09184CEB03335DF804EB10EB9A
:104F6000410143EBC250B2F57C0F38BF704729D5E1
:104F700012F0F00F1CBF00F1C04000F0004070477D
:104F8000008182838485868788898B8C8D8E8F9122
:104F90009293959697999A9C9D9FA0A2A3A5A7A846
:104FA000AAACAEB0B2B3B5B7B9BCBEC0C2C5C7C972
:104FB000CCCED1D4D7D9DCDFE2E6E9ECF0F3F7FAD6
:104FC000FE0000004FEA400C0CF1807CBCF17E4FEB
:104FD00028BF7047B0F1C04000F0C1B890EA010F9F
:104FE0000CEAD11348BF42F48072624538BF634572
:104FF00007D213F47F0F16D080EA010000F00040C2
:10500000704710B500F065F8097EFC3E00F005B869
:1050100080EA010000F00040704780EA010000F0E3
:10502000004000F09CB812F47F0F04BF02487047A4
:1050300080EA010000F093B80000C07FC10DD1F1FB
:105040009E0206DB4FEA002343F0004323FA02F0FE
:105050007047004207D54FEA4001B1F1FE4F02D23E
:105060004FF00000704710B500F033F849922480EB
:10507000002070476FEA20007047000010F00041E8
:1050800048BF4042B0FA80F310FA03F2C3F19D0327
:105090000BD051EAC35101EB1220530638BF7047C1
:1050A00000F1010008BF20F001007047B0FA80F362
:1050B00010FA03F2C3F19D030AD0D90501EB1220C7
:1050C000530638BF704700F1010008BF20F001000F
:1050D00070470EF1020E2EF0030E5EF8044B2442D0
:1050E00004D44FEA4102B2F17F4F11D84FEA400396
:1050F000B3F17F4F0CD80ED14FEAD07CB2F17F4F85
:105100000CEB4C0C0CF1020C08BF4CEBD17C04E016
:105110004FF0080C01E04FEAD17C0CEB4C0324FA71
:1051200003F404F00704B4F1040C06D20EEB840C73
:10513000BDE810404CF0010C6047DFE80CF00708B8
:1051400002024FF00040A0F5800010BD084642006A
:1051500018BFD2F1807288BF00F0004010BDFF215F
:1051600041EAD050C005704790EA010F48BF81F076
:1051700000413FF546AE421A04D882F00042A0EB4F
:10518000020011444FEAD0524FF07F4C1CEA410F0D
:10519000A2EBD15318BF9CEA026F4AD04FF0004CEB
:1051A0004CEA00204CEA012121FA03FCB0EB0C0C84
:1051B0000FD412F0FE0F36D05FEA4C001DD500125E
:1051C00040EBC25038BF70471CF03F0F18BF70470C
:1051D0000BE0A2F101025FEA1C2040EBC25038BF95
:1051E00070471CF07F0F18BF7047C3F12003994030
:1051F00014BF401E20F00100704780084FEA1223C0
:1052000008BF7047B0FA80FCA2EB0C02CCF1280C6E
:1052100060FA0CF093EA122F04BF00EBC250704703
:105220004FEAC3707047130A5FEADC1008BF70478B
:10523000F6E79CEA026F04D010EA5C0F08BF00207A
:10524000704710B5FFF745FF40DFF63E81F00040A4
:105250007047FBF7CABA0000000000000000000021
:10526000000000000000000000000000000000003E
:1052700000000000000000000C000C000C000C00FE
:105280000C000C000C000C0000000C0000000000E2
:10529000000000000000000000001DC01DC00880CC
:1052A00008800880000000000000000000000000EE
:1052B00000000000000000000D800D800D800D80BA
:1052C0003FC01B003FC01B001B001B001B00000059
:1052D00000000000000004001F8031803180380091
:1052E0001E000F000380318031803F000400040065
:1052F000000000000000000018002400240018C076
:1053000007801E0031800240024001800000000042
:10531000000000000000000000000F00180018004E
:1053200018000C001D80370033001D8000000000B5
:10533000000000000000000000000700070002005D
:105340000200020000000000000000000000000059
:1053500000000000000000000300030006000E0033
:105360000C000C000C000C000E00060003000300F3
:105370000000000000000000180018000C000600EB
:10538000060006000600060006000C001C001800BF
:105390000000000000000000060006003FC03FC003
:1053A0000F001F80198000000000000000000000B6
:1053B00000000000000000000000000004000400E5
:1053C00004003F800400040004000000000000000E
:1053D00000000000000000000000000000000000CD
:1053E0000000000000000000060004000C0008009F
:1053F00008000000000000000000000000000000A5
:1054000000003F80000000000000000000000000DD
:10541000000000000000000000000000000000008C
:1054200000000000000000000C000C000000000064
:1054300000000000000000C000C0018001800300E7
:10544000030006000C000C001800180030003000AB
:1054500000000000000000000E001B0031803180C1
:1054600031803180318031801B000E00000000004F
:10547000000000000000000006003E0006000600DC
:10548000060006000600060006003FC000000000FF
:1054900000000000000000000F0019803180318002
:1054A000030006000C00180030003F8000000000E0
:1054B00000000000000000003F0061800180030048
:1054C0001F0003800180018061803F000000000018
:1054D0000000000000000000070007000F000B00A4
:1054E0001B00130033003F8003000F80000000000A
:1054F00000000000000000001F80180018001800C5
:105500001F0011800180018021801F000000000029
:10551000000000000000000007801C0018003000A0
:10552000370039803180318019800F000000000081
:1055300000000000000000007F00430003000600A0
:105540000600060006000C000C000C000000000025
:1055500000000000000000001F0031803180318019
:105560001F0031803180318031801F000000000039
:1055700000000000000000001E0033003180318078
:1055800033801D800180030007003C000000000004
:1055900000000000000000000000000000000C00FF
:1055A0000C000000000000000C000C0000000000D7
:1055B00000000000000000000000000000000300E8
:1055C00003000000000000000600040008000800BE
:1055D0000000000000000000000000C00300040004
:1055E0001800600018000400030000C00000000064
:1055F00000000000000000000000000000000000AB
:105600007FC000007FC0000000000000000000001C
:10561000000000000000000000006000180004000E
:10562000030000C003000400180060000000000038
:10563000000000000000000000001F0031803180E9
:10564000018007000C000C0000000C0000000000AE
:1056500000000000000000000E00110021002100E9
:105660002700290029002700200011000E0000005B
:10567000000000000000000000003F000F000900D3
:10568000198019801F8030C030C079E00000000010
:10569000000000000000000000007F003180318029
:1056A00031803F003180318031807F000000000078
:1056B000000000000000000000001F4030C06040FB
:1056C000600060006000604030801F00000000004B
:1056D000000000000000000000007F00318030C0AA
:1056E00030C030C030C030C031807F0000000000CA
:1056F000000000000000000000007F80308030804B
:1057000032003E003200308030807F800000000098
:10571000000000000000000000007FC0304030406A
:1057200032003E003200300030007C0000000000FB
:10573000000000000000000000001E80318060803A
:105740006000600067C0618031801F0000000000C1
:10575000000000000000000000007BC031803180AC
:1057600031803F803180318031807BC0000000007B
:10577000000000000000000000003FC0060006001E
:10578000060006000600060006003FC000000000FC
:10579000000000000000000000001FC00300030024
:1057A000030003006300630063003E00000000008C
:1057B000000000000000000000007BC031803300CA
:1057C00036003C003E003300318079C0000000000C
:1057D000000000000000000000007E00180018001B
:1057E000180018001840184018407FC00000000042
:1057F00000000000000000000000E0E060C071C098
:105800007BC06AC06EC064C060C0FBE000000000E6
:105810000000000000000000000073C031803980EB
:105820003D803580378033803180798000000000F2
:10583000000000000000000000001F00318060C078
:1058400060C060C060C060C031801F000000000008
:10585000000000000000000000007F003180318067
:10586000318031803F00300030007E0000000000B9
:10587000000000000000000000001F00318060C038
:1058800060C060C060C060C031801F000CC01F805D
:10589000000000000000000000007F003180318027
:1058A00031803E003300318031807CE00000000018
:1058B000000000000000000000001F8031803180E7
:1058C00038001F000380318031803F00000000005D
:1058D000000000000000000000007F804C804C8031
:1058E0004C800C000C000C000C003F00000000007D
:1058F000000000000000000000007BC0318031800B
:10590000318031803180318031801F000000000003
:10591000000000000000000000007BC031803180EA
:105920001B001B001B000A000E000E000000000000
:1059300000000000000000000000FBE060C064C048
:105940006EC06EC02A803B803B803180000000002A
:10595000000000000000000000007BC031801B0040
:105960000E000E000E001B0031807BC00000000006
:105970000000000000000000000079E030C0198045
:105980000F0006000600060006001F800000000051
:10599000000000000000000000003F802180230084
:1059A000060004000C00188030803F8000000000DA
:1059B000000000000000000007800600060006004E
:1059C0000600060006000600060006000600078026
:1059D00000000000000030003000180018000C002B
:1059E0000C000600030003000180018000C000C01D
:1059F00000000000000000001E0006000600060077
:105A000006000600060006000600060006001E004E
:105A100000000000000004000A000A0011002080BD
:105A200020800000000000000000000000000000D6
:105A30000000000000000000000000000000000066
:105A40000000000000000000000000000000000056
:105A500000000000FFE00800040002000000000059
:105A60000000000000000000000000000000000036
:105A700000000000000000000000000000001F0007
:105A8000018001801F80318033801DC00000000034
:105A900000000000000000007000300030003700FF
:105AA000398030C030C030C039807700000000003D
:105AB00000000000000000000000000000001E8048
:105AC000318060806000608031801F000000000035
:105AD00000000000000000000380018001801D80A4
