:020000040800F2
:10000000E815002001010008732200084B1D0008BC
:1000100071220008B7080008ED3200080000000057
:10002000000000000000000000000000152400088F
:10003000B908000800000000752200081525000816
:100040001B0100081B0100081B0100081B01000820
:100050001B0100081B0100081B0100081B01000810
:100060001B0100081B0100081B0100081B01000800
:100070001B0100081B0100081B0100081B010008F0
:100080001B0100081B0100081B0100081B010008E0
:100090001B0100081B0100081B0100081B010008D0
:1000A0001B0100081B0100081B0100081B010008C0
:1000B0001B0100081B0100081B0100081B010008B0
:1000C0001B0100081B0100081B0100081B010008A0
:1000D0001B0100081B0100081B0100081B01000890
:1000E0001B0100081B0100081B010008DFF80CD0F1
:1000F00000F0AEFB0048004755400008E81500201E
:100100000648804706480047FEE7FEE7FEE7FEE7B1
:10011000FEE7FEE7FEE7FEE7FEE7FEE767250008ED
:10012000ED000008202A04DB203A21FA02F0002129
:10013000704721FA02F3D040C2F1200291400843F7
:1001400019467047D2B201E000F8012B491EFBD2DC
:1001500070470022F6E710B513460A4604461946D2
:10016000FFF7F0FF204610BDF0B480EA0102D40F83
:100170004200B2EB410F02D20246084611464A0045
:1001800042D0C30DDDB2C1F3C752AD1A202D35DA0E
:10019000C1F3160141F4000204B15242C5F1200638
:1001A00002FA06F12A411044B3EBD05F23D0C4B168
:1001B000012DA0EBC35009DCF0BC4FF0004202EA75
:1001C000C352DBB200F5000000F086B9400000F138
:1001D000807000EBC350A0F1807040EAD1704900FC
:1001E00009E0490841EAC071A0EBC35000F50000E6
:1001F000400800EBC350F0BC00F065B96142012239
:1002000002EB4101001BF6E7F0BC704781F00041B2
:10021000AAE780F00040A7E730B480EA010202F0CC
:10022000004530F0004221F0004013D090B1C30DE2
:10023000D40DC2F31601C0F31600E41A41F4000114
:1002400040F400027D34914201D3641C00E0490077
:10025000002C02DA30BC002070474FF4000000236D
:10026000914201D3891A034340084FEA4101F7D173
:1002700051B1914202D14FF0004105E002D24FF05E
:10028000010101E06FF0010103EBC450284430BCD0
:1002900000F019B92DE9F04D81EA030404F0004B98
:1002A00021F0004514464FF0000A23F0004150EAC7
:1002B000050220D054EA01021DD0C5F30A570246B8
:1002C000C5F31303C1F31300C1F30A5640F48015BC
:1002D00043F48013A7EB0608101BD64608F2FD383E
:1002E00073EB050002D308F1010801E092185B41AD
:1002F000B8F1000F03DA00200146BDE8F08D0020C0
:100300004FF48011064684460EE0171B73EB050779
:1003100005D3121B63EB050306434CEA010C4908A5
:100320004FEA300092185B4150EA0107EDD152EAE2
:10033000030012D082EA040083EA0501084305D0D5
:10034000101BAB4106D20122002306E000224FF031
:10035000004302E06FF0010253101AEB06004CEB71
:10036000085110EB0A0041EB0B01BDE8F04D00F025
:10037000E1B8C10F80EAE0700844CA079623002163
:1003800000F0AAB896230022114600F0A5B80EB5D9
:10039000C10F80EAE0700844CA07002140F23343ED
:1003A0008DE80E000A460B4600F0D3F803B000BDFE
:1003B00020F00040C10DC0F3160040F400007F297A
:1003C00001DA00207047962903DCC1F19601C8408C
:1003D000704796398840704730B5041E71F10004AB
:1003E00004DB4FF00044404264EB0101141E73F142
:1003F000000405DB1C464FF00043524263EB04034C
:100400008B4208BF824230BD30B5041E71F100043A
:1004100004DB4FF00044404264EB0101141E73F111
:10042000000405DB1C464FF00043524263EB04031B
:10043000994208BF904230BD30B50B4601460020BE
:100440002022012409E021FA02F59D4205D303FA96
:1004500002F5491B04FA02F52844151EA2F1010217
:10046000F1DC30BD2DE9F05F0546002092469B4649
:1004700088460646814640241BE0284641464746BA
:100480002246FFF74FFE53465A46C01A914110D3F9
:1004900011461846224600F0EDF92D1A67EB0108C7
:1004A0004F4622460120002100F0E4F917EB000935
:1004B0004E41201EA4F10104DFDC484631462A46A5
:1004C0004346BDE8F09F0029A8BF7047401C490083
:1004D00008BF20F00100704710B4B0FA80FC00FAA9
:1004E0000CF050EA010404BF10BC704749B1CCF1D4
:1004F000200421FA04F411FA0CF118BF0121214360
:100500000843A3EB0C01CB1D4FEA00614FEA10201A
:1005100042BF002010BC704700EBC35010440029BC
:10052000A4BF10BC7047401C490008BF20F0010068
:1005300010BC704710B5141E73F1000408DA401C9B
:1005400041F1000192185B411A4301D120F00100F2
:1005500010BD2DE9F04D92469B4611B1B1FA81F2E2
:1005600002E0B0FA80F22032904600F083F90446AF
:100570000F4640EA0A0041EA0B0153465A46084337
:1005800013D0114653EA010019D0C8F14002504679
:10059000FFF7C8FD05460E4650465946424600F054
:1005A00069F9084305D0012004E020463946BDE83A
:1005B000F08D0020054346EAE0762C4337430A9845
:1005C0006305E40AA0EB08000022FD0A44EA475450
:1005D0000A3002D500200146E9E7010510196941FA
:1005E000DDE9084500196941BDE8F04DA2E72DE9B4
:1005F000FE4F804681EA0300C00F0C46009021F0B8
:10060000004123F00045B8EB0200A94105D2404665
:10061000214690461C460B46024623F000401043FC
:1006200047D0270DC7F30A00C3F30A510290401ABE
:10063000019040286BDAC3F3130040F4801B00984C
:10064000924620B10023D2EB030A63EB0B0B019817
:100650005946C0F14002504600F00CF906460D46DE
:1006600050465946019A00F014F910EB0800614118
:10067000002487EA115284EAE7731A4340D0009AB3
:1006800062B3019A012A4FEA075215DC001B61EBA5
:1006900002014FF0004202EA0752CDE90042001C7D
:1006A00041F5801132462B46FFF753FF03B0BDE8FA
:1006B000F08F40462146F9E7001B61EB0201001C68
:1006C00041F5801300185B412018A2F5001747EB95
:1006D000030140EAD570B6196D4111E06D084FEA8B
:1006E000360645EAC0754FEA0752001B61EB02016E
:1006F000001C41F5801149084FEA300000195141B2
:1007000032462B4603B0BDE8F04FFFF713BF009809
:10071000012240000023D0EB020263EBE07300985B
:1007200021464FEAE074B8EB000061EB0401E9E711
:1007300083F000435BE781F0004158E72DE9FE4F6D
:1007400081EA030404F0004421F0004100944FF0DA
:10075000000B23F0004350EA01045ED052EA030488
:100760005BD0C3F30A54C1F30A552C44A4F2F3340A
:100770000194A0FB0254C1F3130141F48011C3F3AF
:10078000130343F4801301FB024400FB034E840A6D
:10079000970A44EA815447EA8357A4FB0768029505
:1007A0008D0A05FB07854FEA932C04FB0C542705A3
:1007B000029D4FEA065847EA1637B5EB08056EEB7F
:1007C000070C870E920E47EA811742EA8312A7FBB5
:1007D0000201B6EB0B0164EB00042B0D43EA0C3372
:1007E0005E1844EB1C50DA465146E7FB0201C5F3A4
:1007F00013044FEA0B3343EA14534FEA0432019CCB
:1008000043EA0603A4F10C040294009CCDE900B471
:10081000FFF79FFE03B0BDE8F08F00200146F9E727
:10082000C1F30A52C1F3130140F2FF3341F48011C6
:100830009A4202DA00200146704740F233439A425E
:10084000A2F2334202DC5242FFF76CBC00F012B855
:10085000064C074D06E0E06840F0010394E807000D
:1008600098471034AC42F6D3FFF744FCB86C00084C
:10087000D86C0008202A04DB203A00FA02F100209C
:1008800070479140C2F1200320FA03F319439040CE
:100890007047202A06DBCB17203A41FA02F043EAE0
:1008A000E07306E041FA02F3D040C2F12002914029
:1008B000084319467047FEE77047000070B51546BB
:1008C00001F0B9FA0C48407901F0D2FD0B4C00223E
:1008D0004021204600F01BFC01225102084800F094
:1008E00016FC284601F000FE2046BDE870400122BB
:1008F000402100F00CBC00003A000020000C014038
:100900000008014070470022AFF3008030B50E4B65
:10091000054601205C7A012C15D8587A00241C5415
:10092000587A03EB800045605D7A03F108002A5491
:10093000587A421C5A72303008703A2048702F2082
:100940008870CC70002030BD200100202DE9F05FC0
:1009500081462D481E46DDF82CB0038888464B455D
:1009600002D34188414504D2BDE8F05F27A002F0E0
:10097000BFBCF088410700D0012101EBD0003189D4
:10098000203A484380B2424330684FF0800A8718CB
:10099000002534E0002429E0ABF57F41FF3907D082
:1009A000387804F007022AFA02F1084207D10EE073
:1009B000397804F007022AFA02F0014210D008EB5D
:1009C000050081B209EB040080B20A9A06E008EB48
:1009D000050081B209EB040080B25A4600F080FAAB
:1009E000E043400700D17F1C641CA4B2F088A04201
:1009F000D2D8B079400700D07F1C6D1CADB23089D1
:100A0000A842C7D8BDE8F09F3A0000204552523AAC
:100A100064726177206368617220706F696E742000
:100A20006F7574206F662073637265656E206172E6
:100A30006561210D0A0000002DE9FF4F80466948DD
:100A40001546C2F101090288002485B00F464245CF
:100A500002D34088B8427CD209B063A0BDE8F04F11
:100A600002F046BC139810B101284BD0A2E008EB6D
:100A7000040007EB050A02901FFA8AF180B2129B6C
:100A8000089A00F015F908EB05003E190190B1B283
:100A900080B2129B089A00F00BF9A8EB04000090BA
:100AA0001FFA8AF180B2129B089A00F001F9A8EBB4
:100AB000050BB1B21FFA8BF0129B089A00F0F8F800
:100AC0000098A7EB050A1FFA8AF180B2129B089AD8
:100AD00000F0EEF83E1BB1B21FFA8BF0129B089AA1
:100AE00000F0E6F802981FFA8AF180B2129B089A89
:100AF00000F0DEF80198B1B280B2129B089A00F0C3
:100B0000D7F857E0264653E008EB0400039007EBC4
:100B1000060B1FFA8BF180B2129B089A00F0C8F8FE
:100B200008EB060007EB040A02901FFA8AF180B274
:100B3000129B089A00F0BCF8A8EB040001901FFA81
:100B40008BF180B2129B089A00F0B2F81FFA8AF17A
:100B500000E040E0A8EB0600009080B2129B089AEB
:100B600000F0A6F80198A7EB060B1FFA8BF180B2F4
:100B7000129B089A00F09CF80098A7EB040A1FFA51
:100B80008AF180B2129B089A00F092F803981FFA3B
:100B90008BF180B2129B089A00F08AF802981FFA33
:100BA0008AF180B2129B089A00F082F8761CB6B2E5
:100BB000AE42A9D9B9F1000F04DA09EB440000F103
:100BC000030906E0611B09EB41006D1E00F10509F8
:100BD000ADB2641CA4B2A5423FF644AF09B0BDE873
:100BE000F08F00003A0000204552523A6369726368
:100BF0006C652063656E74657220706F696E742019
:100C00006F7574206F662073637265656E20617204
:100C10006561210D0A0000002DE9FC5F994615462B
:100C200082460E46824201D32A1A00E0421B9046B9
:100C3000894502D3A9EB010201E0A1EB0902934629
:100C4000A8EB0B044FF0FF32AA4501D9104600E093
:100C5000012001904E4500D80122002700920E98F5
:100C60007F1C012804D1032097FBF0F100FB1170D9
:100C700028B9DDE90C233146504600F019F8AA45A1
:100C800001D14E4512D06000CBF10001884206DB55
:100C9000019AA4EB0B040AEB02011FFA81FA40450A
:100CA000DDDC00984444304486B2D8E7BDE8FC9FC0
:100CB0002DE9FF5F804617481F4689460288424556
:100CC00025D342884A4522D3002582461DE008EB01
:100CD00005060024A6F1010B13E000BFBAF80010CE
:100CE0008E420CD8BAF8020009EB0401814206D802
:100CF000491E89B21FFA8BF0029A00F0F1F8641CC9
:100D0000A4B2BC42EAD36D1CADB2BD42DFD3BDE894
:100D1000FF9F00003A0000202DE9FE4F81462B483E
:100D200092460C46DDE90D5102880C9E1F464A454D
:100D300006D34088A04203D3524501D3B84204D21F
:100D4000BDE8FE4F22A002F0D3BA002001292BD02B
:100D5000002927D1CDE900658046234602905246FE
:100D600019464846FFF758FFCDE900654A463B461D
:100D700021461046CDF80880FFF74EFFCDE900650B
:100D80003B46524619464846CDF80880FFF744FFD7
:100D9000CDE9006552463B4621461046CDF8088015
:100DA000FFF73AFFBDE8FE8F80460BE0CDE9006516
:100DB0002346524619464846CDF80880FFF72CFFD7
:100DC000641CA4B2BC42F1D3ECE700003A0000205E
:100DD0004552523A6C696E6520706F696E74206F6F
:100DE0007574206F662073637265656E206172652D
:100DF00061210D0A000000002DE9FC5F1E46174628
:100E00008846814604460D46DFF850A0DDF834B030
:100E10001EE0F188BAF800C00B19634503D9338985
:100E20004C462B449DB23389BAF802002B448342CE
:100E300002D90819454684B20C99CDE9001B334606
:100E4000294620467F1CFFF781FDF088204484B2AC
:100E50003A78002ADDD1BDE8FC9F00003A0000206E
:100E60002DE9F0471546DDF820A01C460E468046C9
:100E7000A84201D990460546A64201D91E460C4615
:100E800023462A463146404601F0C5FA11484079CA
:100E900001F0EEFADFF8409000224021484600F0D1
:100EA00036F9012251020D4800F031F90027A5EB77
:100EB0000805A01B454304E0504601F015FB7F1CCC
:100EC000BFB2BD42F8DC4846BDE8F04701224021F0
:100ED00000F01DB93A000020000C0140000801405C
:100EE000064B30B41C88844205D35B888B4202D306
:100EF00030BCFFF7E3BC30BC704700003A00002074
:100F000070B5044600F008F90546601C02D004489C
:100F10000078044400F000F9401BA042FAD370BDF1
:100F2000200000202DE9F84FDFF8B891002409F1E6
:100F3000040A0AF1040B23460F270BF1040EC9E043
:100F40000125A5402A40AA427DD1674ED1F804C0B0
:100F5000ACEB0608B44532D014DCBCF1030F3AD038
:100F600009DCBCF1000F2AD0BCF1010F1CD0BCF190
:100F7000020F31D11DE0BCF1110F17D0BCF1120FDF
:100F80002AD119E0B8F5881F19D006DCB8F5803FE2
:100F900015D0B8F5801F1FD111E0B8F5001F0ED095
:100FA000B8F5041F18D10AE0CB6815E0CB681B1D0B
:100FB00012E0CB6808330FE0CB680C330CE08B6891
:100FC0002BB1012B4FF0080303D0456104E004234B
:100FD00002E0056100E00023FF2A01D8064601E097
:100FE00000F104064FEA840501D9A5F12005D6F8E1
:100FF000008007FA05FC28EA0C0803FA05F548EA20
:101000000508C6F800804D68ED0062D5374DAE6921
:1010100046F00106AE61AD6924F0030605F0010556
:101020000095334D06EB050CDCF80850A607360F8B
:1010300007FA06F825EA0805DFF8B880404503D12D
:101040004FF0000817E044E0DFF8AC80404502D1E3
:101050004FF001080FE0DFF8A480404502D14FF0C7
:10106000020808E0DFF89880404502D14FF00308FD
:1010700001E04FF0040808FA06F848EA0508CCF841
:1010800008804D68D9F80060ED034D4601D5164340
:1010900000E096432E604D68DAF80060AD035546D7
:1010A00001D5164300E096432E604D68DBF80060E2
:1010B000ED025D4601D5164300E096432E604D6873
:1010C000DEF80060AD02754601D5164300E0964398
:1010D0002E60641C0D682A46E5407FF431AFBDE800
:1010E000F88F0000000401400000111000100240C1
:1010F0000000014000080140000C014000100140C8
:10110000001401408068084000D0012070470AB1F7
:10111000016170470904FBE70148806870470000DF
:1011200020000020024881680278114481607047E5
:1011300020000020074810B5016841F0100101604F
:10114000032000F067F8002000F006F800F024F813
:10115000002010BD0020024070B50D4D04464FF434
:101160007A712878B1FBF0F00A490968B1FBF0F018
:1011700000F014FD48B9102C07D200222146501E61
:1011800000F028F800206C6070BD012070BD0000E8
:10119000200000202C0000200C4808B5816941F097
:1011A00001018161816901F001010091C16941F092
:1011B0008051C161C06900F08050009004484168CE
:1011C00021F0E06141F00071416008BD0010024073
:1011D00000000140F0B40E4B1B680C46C3F3022321
:1011E000C3F10705042D00D90425191D072901D2D3
:1011F000002300E0DB1E012606FA05F1491E21400E
:1012000099409E40761E16403143F0BC02F094B8DF
:101210000CED00E0064900F0070208684FF6FF03F6
:10122000184040EA0220034A10430860704700005B
:101230000CED00E00000FA052DE9F0470F4605002F
:1012400061D0434E306800F00700B84209D23068E0
:1012500020F0070038433060306800F00700B842E3
:1012600051D128683B4C810712D5400703D56068EF
:1012700040F4E06060602878000703D5606840F4BF
:10128000605060606068A96820F0F000084360600A
:101290002878C00728D06868012810D02168022863
:1012A00010D0890700292EDA616821F0030101437B
:1012B0006160FFF731FF804641F288390DE0216817
:1012C0008903EFE78901EDE7FFF726FFA0EB0801AF
:1012D000494502D90320BDE8F0876068696800F0DD
:1012E0000C00B0EB810FEFD1306800F00700B8427E
:1012F0000BD9306820F0070038433060306800F0C8
:101300000700B84201D00120E5E72878400705D55D
:101310006068E96820F4E0600843606028780007AE
:1013200006D56068296920F4605040EAC100606019
:1013300000F038F86168084AC1F30311515CC840F5
:101340000649086006480068FFF706FF0020C2E76C
:1013500000200240001002408C4500082C000020B4
:10136000240000200448054900684968044AC1F384
:101370000221515CC84070472C0000200010024040
:101380009C4500080448054900684968044AC1F3BF
:10139000C221515CC84070472C0000200010024060
:1013A0009C45000812A185B00FC98DE80F0014A05C
:1013B000144A006804905168134801F00C03042B90
:1013C00010D0082B0ED1C1F38343C9031DF80300CD
:1013D0000AD5516804AAC1F34041515C0A4A5043FE
:1013E000B0FBF1F005B0704708494843FAE7000048
:1013F00002030405060708090A0B0C0D0E0F101056
:10140000010200000010024000127A0000093D00B5
:101410002DE9F84F040070D02078C04DC00749D0A6
:101420006868C0F38100012807D06868C0F38100B4
:10143000022809D16868C00306D52868800339D519
:1014400060680028E7D035E06068B0F5803F0BD0D9
:1014500010B1B0F5A02F11D0286820F4803028609A
:10146000286820F4802002E0286840F4803028605A
:10147000606890B1FFF750FE06460AE0286840F425
:1014800080202860F0E700BFFFF746FE801B64283D
:1014900073D828688003F7D50CE0FFF73DFE0646B9
:1014A00005E000BFFFF738FE801B6428F0D82868ED
:1014B0008003F7D420789A4E80074FF001094FF04F
:1014C000000839D5686810F00C0F07D06868C0F3C1
:1014D0008100022809D16868C00306D42868800703
:1014E00014D52069012808D110E02069B0B1C6F8F0
:1014F0000090FFF711FE074605E00AE1FFF70CFE3A
:10150000C01B0228C4D828688007F7D528686169FD
:1015100020F0F80040EAC10028600DE0C6F8008025
:10152000FFF7FAFD074604E0FFF7F6FDC01B0228AF
:1015300023D828688007F7D4207800072CD579486D
:10154000A169D9B1C0F80090FFF7E6FD074604E0B5
:10155000FFF7E2FDC01B02280FD8686A8007F7D5A5
:1015600071484FF4FA510068B0FBF1F0009000BFF1
:101570000098411E0091FAD20EE080E0C0F8008091
:10158000FFF7CAFD074604E0FFF7C6FDC01B0228AF
:1015900075D8686A8007F7D42078400760D5E86975
:1015A0000027C00008D4E86940F08050E861E8698D
:1015B000012700F0805000905C480168C90513D4F1
:1015C0000168834641F480710160FFF7A5FD824602
:1015D00006E000BFFFF7A0FDA0EB0A0064284ED88C
:1015E000DBF80000C005F5D5E06801280AD008B195
:1015F000052813D0286A20F001002862286A20F00C
:10160000040002E0286A40F001002862E06841F22C
:10161000883B98B1FFF780FD82460BE0286A40F0D6
:1016200004002862EEE700BFFFF776FDA0EB0A0199
:1016300059455AD8286A8007F6D50CE0FFF76CFDAB
:10164000824605E0FFF768FDA0EB0A0159454CD83A
:10165000286A8007F6D41FB1E86920F08050E8615D
:10166000E06988B36968C1F38101022944D0022886
:10167000C6F8608004D0FFF74FFD044638E034E040
:10168000FFF74AFD074604E0FFF746FDC01B0228AE
:101690002BD828688001F7D4206AB0F5803F05D1A7
:1016A0006868A16820F4003008436860D4E9080144
:1016B0000843696821F4741108436860C6F86090B3
:1016C000FFF72AFD044606E025E000BFFFF724FDF2
:1016D000001B022809D828688001F7D51BE000BF4D
:1016E000FFF71AFD001B022802D90320BDE8F88F7E
:1016F00028688001F4D40EE00128F7D06868226AD7
:1017000000F48031914204D1616A00F47010884283
:1017100001D00120EAE70020E8E7000000100240C5
:1017200000004242800442422C0000200070004031
:1017300070B5040009D0606A002540B1256165617B
:10174000A56294F8510040B10CE0012070BD6068C2
:10175000B0F5827FF4D0E561F2E784F8505020467E
:1017600000F040F8022084F851002068016821F060
:1017700040010160A088218900F4827001F40441D5
:101780000843A18901F400610843217C01F00201B2
:101790000843217D01F001010843218B01F4007110
:1017A0000843217F01F03801084394F8201001F02C
:1017B00080010843218D01F400510843216808602D
:1017C000A069042101EA1040216848602068C169CD
:1017D00021F40061C1616565012084F85100002099
:1017E00070BD000030B585B00024009401940294CF
:1017F000039400681449884223D11448816941F454
:1018000080518161816901F480510491816941F0C5
:101810000401816180690E4D00F004000490A02055
:101820000090022001900320039069462846FFF7AC
:1018300079FB4020CDE90004694628460294FFF771
:1018400071FB05B030BD00000030014000100240C7
:10185000000801402DE9F84F044690F85000002799
:101860001D461646894601280DD04FF0010B84F81D
:1018700050B0FFF751FC804694F85100BA46012859
:1018800004D0022793E00220BDE8F88FB9F1000FE1
:1018900073D0002E71D0032084F85100C4F854A0F6
:1018A000C4F83090A686E686C4F838A0A4F83CA018
:1018B000A4F83EA0C4F844A0C4F840A0A068B0F5C5
:1018C000004F09D12068016821F0400101602068C3
:1018D000016841F48041016020680168490603D431
:1018E000016841F040010160E068B0F5006F606898
:1018F00003D030B3012E24D041E008B1012E1CD119
:10190000206B21680088C86006E02068816889072C
:1019100009D5216B0988C160206B801C2063E08E93
:10192000401EE08609E0FFF7F7FBA0EB0800A842A5
:1019300002D3681C01D031E07DB3E08E0028E4D1F1
:1019400020E0206B21680078087306E02068816839
:10195000890709D5216B09780173206B401C20632E
:10196000E08E401EE0860AE0FFF7D6FBA0EB080001
:10197000A84203D3681C02D010E017E06DB1E08EDE
:101980000028E3D142462946204600F0ABFC08B1CE
:1019900020206065A06818B106E0FFE7032706E095
:1019A0002068C16880680090606D00B1012784F8EC
:1019B00051B084F850A0384666E72DE9F84F044648
:1019C00090F8500000270A9E1D4692468B464FF025
:1019D000010901280ED0012084F85000FFF79CFB7C
:1019E000804694F85100616801280CD0B1F5827FDF
:1019F00007D102E00220BDE8F88FA16809B90428E8
:101A000001D00227C2E0BBF1000F27D0BAF1000FCE
:101A100024D01DB394F85100042802D0052084F886
:101A2000510000206065C4F838A0E587A587C4F898
:101A300030B0E586A58620646064206801684906A8
:101A400003D4016841F040010160E068B0F5006F27
:101A5000606805D0E8B3012D46D07FE0012795E00E
:101A600008B1012D39D1206B21680088C860206B36
:101A7000801C2063E08E401EE0862EE02068816896
:101A800089070FD5E18E69B1B9F1010F0AD1216B38
:101A90000988C160206B801C2063E08E401EE086B8
:101AA0004FF0000920688168C9070CD0E18F51B15F
:101AB000C068A16B0880A06B801CA063E08F401EF3
:101AC000E0874FF00109FFF727FBA0EB0800B042C9
:101AD00000E009E001D3701C50D1E08E0028CDD188
:101AE000E08F0028CAD13FE0206B2168007808739E
:101AF000206B401C2063E08E401EE0862EE02068B4
:101B0000816889070FD5E18E69B1B9F1010F0AD15A
:101B1000216B09780173206B401C2063E08E401E0E
:101B2000E0864FF0000920688168C9070CD0E18F7A
:101B300051B1C068A16B0870A06B401CA063E08F1E
:101B4000401EE0874FF00109FFF7E6FAA0EB08001E
:101B5000B04202D3701C01D010E07EB1E08E0028AC
:101B6000CDD1E08F0028CAD142463146204600F050
:101B7000B9FB28B101272020606507E0032705E0B5
:101B8000A06818B92068C16880680090012084F8B6
:101B90005100002084F8500038462CE710B5401E54
:101BA000B0F1807F01D3012010BD4FF0E0246061CF
:101BB0000F21601701F0C0FB0020A0610720206109
:101BC000002010BD70B5040004D094F83900002541
:101BD00010B106E0012070BD84F83850204600F0B6
:101BE00023F8242084F839002068C16821F40051CA
:101BF000C160204601F0D8F82068016921F49041C5
:101C000001612068416921F02A0141612068C168B1
:101C100041F40051C160E563202084F8390084F864
:101C20003A00002070BD000030B585B0002400945B
:101C300001940294039400681449884223D1144803
:101C4000C16941F40031C161C16901F400310491FD
:101C5000816941F00401816180690E4D00F004004A
:101C60000490042000900220019003200390694614
:101C70002846FFF757F90820CDE9000469462846B1
:101C80000294FFF74FF905B030BD0000004400405A
:101C900000100240000801402DE9F843044690F886
:101CA00039001F4616460D4620284CD1C5B1BEB19D
:101CB00094F83800012846D0012084F838004FF00D
:101CC0000008C4F83C80212084F83900FFF724FA8A
:101CD000A6848146E684A068B0F5805F03D004E066
:101CE0000120BDE8F883206928B12E465FF0000589
:101CF00084F838800EE00026FAE78021204601F0C3
:101D0000AFF8A0B9AEB116F8010B21684860E08CBD
:101D1000401EE084E08C4B464FF000020097002804
:101D2000EBD14FF04001204601F09AF830B103208A
:101D3000D7E735F8020BC0F30800E6E7202084F867
:101D400039000020CDE70220CBE7FEE72DE9F04186
:101D500007460021084600F06EF81248407900F06E
:101D600087FB114D002240212846FFF7D0F90122C0
:101D700051020E48FFF7CBF9082000F0C3FA002407
:101D80004FF41636384600F0AFFB641CB442F9D36A
:101D9000012240212846FFF7BAF9BDE8F04118209A
:101DA00000F0B0BA3A000020000C014000080140E9
:101DB000F0B40F492C242A254FF4A0724FF4F0738D
:101DC0002B2678B101280DD002280BD0032809D08A
:101DD00001270F710B804A804C718D71CE71F0BC60
:101DE00000F008B800270F710A804B80F4E700006C
:101DF0003A00002010B50021082812D2DFE800F0D8
:101E0000110406080A0C0E1080210AE0402108E0A7
:101E1000C02106E0202104E0602102E0A02100E0D2
:101E2000E02141F00804362000F022FB2046BDE806
:101E3000104000F03BBB0B46024600F0ECBA00003D
:101E400070B501226F4D140221462846FFF75FF955
:101E50000120FFF755F8002221462846FFF757F9E1
:101E60005020FFF74DF8012221462846FFF74FF991
:101E70000A20FFF745F87820FFF742F8112000F01C
:101E8000F7FA7820FFF73CF8F02000F0F1FAC320D1
:101E900000F00CFBF02000F0EBFA962000F006FBBF
:101EA000362000F0E5FA482000F000FBE82000F0C2
:101EB000DFFA402000F0FAFA822000F0F7FA07205B
:101EC00000F0F4FA182000F0F1FA272000F0EEFA02
:101ED0000A2000F0EBFAB62000F0E8FA332000F018
:101EE000E5FAC22000F0C4FAA72000F0DFFAC5200E
:101EF00000F0BEFA252000F0D9FAB72000F0B8FAB9
:101F0000462000F0D3FAE02000F0B2FAF02000F012
:101F1000CDFA072000F0CAFA112000F0C7FA10200D
:101F200000F0C4FA112000F0C1FA0B2000F0BEFA54
:101F30003C2000F0BBFA432000F0B8FA4B2000F040
:101F4000B5FA0B2000F0B2FA172000F0AFFA162015
:101F500000F0ACFA1B2000F0A9FA1D2000F0A6FA50
:101F6000E12000F085FAF02000F0A0FA072000F050
:101F70009DFA112000F09AFA0F2000F097FA102035
:101F800000F094FA1A2000F091FA392000F08EFA4D
:101F9000552000F08BFA4A2000F088FA0B2000F060
:101FA00085FA162000F082FA152000F07FFA1A2038
:101FB00000F07CFA1D2000F079FAF02000F058FAC9
:101FC0003C2000F073FAF02000F052FA692000F093
:101FD0006DFA3A2000F04CFA552000F067FA7820AC
:101FE000FEF78EFF292000F043FA0720FFF7E0FEFE
:101FF0004FF6FF70FFF7AAFEBDE8704002A001F0A7
:1020000077B90000000801404C43442046696E69DE
:10201000736820496E69740D0A0000007CB5294878
:10202000002686844FF6FF70FFF790FE1F242823BA
:102030005A220A2105200094FEF712FFE502CDE99D
:102040000054214B21A20F210520FEF7D5FE5A2373
:102050001A463C2105200094FEF702FFCDE900540A
:10206000194B1CA241210520FEF7C6FE8D235022EC
:10207000722105200095FEF7F3FE4FF4FC600090FE
:10208000B72350229C210520FEF7EAFEE1235022CF
:10209000C62105200094FEF7E3FE40F20B13502208
:1020A000F02105200096FEF7DBFE4FF6E070009071
:1020B00040F2351350224FF48D710520FEF7D0FE0B
:1020C0007CBD00002C0100205000002043414C4901
:1020D00042000000434C45415200000010B5044945
:1020E0000448FEF710FC0249491E087010BD0000AC
:1020F00019000020040000202DE9F04786B00026DA
:1021000037480096019602960396816941F02001B6
:102110008161816901F020010491816941F004012C
:102120008161816901F004010491816941F0080134
:102130008161816901F008010491816941F0100118
:1021400081618069DFF89CA000F0100004900122FA
:102150004FF48A615046FEF7DAFFDFF88C800122E7
:1021600080214046FEF7D3FFDFF880904FF44077A0
:10217000012239464846FEF7CAFF4FF48060012429
:10218000CDE900040220CDE9024069465046FEF741
:10219000C9FE8020CDE90004032569464046CDE90B
:1021A0000245FEF7BFFECDE9007469464846CDE919
:1021B0000245FEF7B7FE2820CDE9000669460294E5
:1021C0005046FEF7AFFE5020CDE900046946504668
:1021D000CDE90245FEF7A6FE06B0BDE8F087000097
:1021E00000100240000C01400010014000080140B6
:1021F000104810B50E4901604FF482714160002112
:102200008160C1604FF400720161C0E905121822BB
:10221000C0E90721416281620A21C162FFF788FAA1
:10222000002803D0BDE81040FEF76CBB10BD0000D5
:1022300000300140700000200C4810B50A490160D0
:102240004FF4E1314160002181600C22C160C0E99E
:1022500004128161C161FFF7B5FC002803D0BDE81D
:102260001040FEF74FBB10BD00440040C8000020E6
:10227000FEE770477047000070B5002422460CA1AD
:102280000C4801F063FD20B1BDE870400AA001F0E8
:102290002FB80EA001F02CF8064D503D0D2002F095
:1022A00025F845F82400641CE4B2142CF6D370BD64
:1022B0002F000000A40100206661746673206E6F19
:1022C00074206D6F756E7465640D0A0066617466C6
:1022D00073206D6F756E74207375636365737321FE
:1022E0000D0A000038B50B460092044600228021FA
:1022F00000F034F8002804D0606D40F020006065E4
:10230000032038BD064910B5C8610846FFF710FA2A
:10231000002803D0BDE81040FEF7F4BA10BD00005D
:102320007000002010B50446FEF7F6FE0146024894
:10233000C0E9011410BD00005C00002010B5FEF7DC
:10234000EBFE05494A688968801A884201D201205B
:1023500010BD002010BD00005C0000202DE9F843F6
:102360001E46914688460446089DFEF7D5FE401B52
:10237000351AFEF7D1FE074625480068C0F3CB307A
:10238000684338E0701C37D0FEF7C6FEC01BA84279
:1023900003D215B1009860B32CE02068416821F0A9
:1023A000E00141606068B0F5827F0BD1A068B0F5B4
:1023B000004F02D0B0F5806F04D12068016821F091
:1023C00040010160A06AB0F5005F09D12068016892
:1023D00021F4005101602068016841F4005101605E
:1023E000012084F85100002084F850000320BDE84B
:1023F000F8830025401E00902068816838EA0100BB
:1024000004D000214945BDD10020F0E70121F9E7C2
:102410002C00002070472DE9F04107461D46144668
:102420000E462A2000F024F8380A00F03FF8F8B2EF
:1024300000F03CF8641EC4F3072000F037F8E0B267
:1024400000F034F82B2000F013F8300A00F02EF8DA
:10245000F0B200F02BF86D1EC5F3072000F026F84F
:10246000E8B200F023F8BDE8F0412C20AFF3008083
:1024700031B50B4C002240212046FEF748FE0022D9
:1024800061150848FEF743FEFF230122694606480E
:10249000FFF7E0F9012240212046FEF738FE38BD63
:1024A000000C0140000801407000002031B50B4CC9
:1024B000002240212046FEF72AFE01225102084850
:1024C000FEF725FEFF23012269460648FFF7C2F901
:1024D000012240212046FEF71AFE38BD000C0140C3
:1024E000000801407000002038B50446000A8DF84D
:1024F0000000FF23012269460548FFF7ABF98DF87C
:102500000040FF23012269460148FFF7A3F938BDC7
:1025100070000020FEF706BE30B58FB02821684657
:10252000FDF717FE14210AA8FDF713FE0121080488
:10253000CDE900100024029402250491CDE9075052
:102540004FF4E01009906846FEF762FF0F20CDE9D6
:102550000A056802CDE90C4002210AA80E94FEF794
:102560006BFE0FB030BD70472DE9F04F4FF6FF7B8B
:10257000002689B037465D465846FFF7E7FBB84866
:102580004FF47844B74B0480B74A32211E20CDE97E
:102590000045FEF731FC14212246084600F0AAF956
:1025A000B24C00202075A061012000F039FA207D96
:1025B0000121B1EB901F4BD120F04000207504A801
:1025C000218820F8261000EB8600761C0027618900
:1025D000F6B24180062E3BD2DFE806F03A03101F28
:1025E0002E4A14215A46084600F084F9A0484FF4B8
:1025F00078420088143880B2142127E09C4D5A4656
:1026000014212888143880B200F074F968884FF4D7
:102610007842143881B2142018E0954D5A466888E3
:10262000143881B2142000F065F96888143881B23A
:102630002888143880B207E05846FFF787FB8C489B
:1026400041880088490840084FF4784200F052F968
:102650000A20FEF755FC7F1CBFB2B7F57A7FA3D9DD
:1026600084A000F045FE00F075F909B0BDE8F08FD8
:10267000BDF81400BDF81010401A00B20390BDF868
:102680001C00BDF81810401A00B20290BDF81E00E0
:10269000BDF81610401A00B20190BDF81A00BDF83E
:1026A0001210401A00B200900298FDF770FE054625
:1026B0000E460398FDF76BFE2A463346FDF7EAFD0A
:1026C000054688460098FDF762FE06468946019851
:1026D000FDF75DFE32464B46FDF7DCFD81468A463E
:1026E0000022134628464146FDF776FE01D288F0C7
:1026F00000480022134648465146FDF76DFE01D2C0
:102700008AF0004A4FF066363246644B284641460E
:10271000FDF762FE7CD3624A624B28464146FDF7D4
:1027200073FE75D332465D4B48465146FDF754FE65
:102730006ED35B4A5B4B48465146FDF765FE67D357
:10274000039941F6FE7001F6FF71814260D801994C
:1027500001F6FF7181425BD8029901F6FF71814257
:1027600056D8009901F6FF71814251D8039800288C
:102770004ED0019800284BD00298002848D00098ED
:10278000002845D03A4E308840005038FDF7F1FD22
:102790000746DDE902100844FDF7EBFD3946FDF779
:1027A0003BFDA061708840005038FDF7E2FD064611
:1027B000DDE900100844FDF7DCFD3146FDF72CFD96
:1027C000E061BDF820002084BDF8220060845C46F2
:1027D0005846FFF7BBFA1F20CDE90004214B32A277
:1027E0006E212D20FEF708FB4FF4FA60FEF788FB00
:1027F000CDE9009A2A46434604A800F06FF940F656
:10280000B830FEF77DFB30A000F072FD2DE7FFE74A
:1028100000264FF4FA60FEF773FB15485A464188CC
:1028200000884908400800F065F814214FF4784208
:10283000084600F05FF829A000F05AFDCDE9009AA3
:102840002A46434604A800F049F94FF47841CDE9FF
:10285000001B044B044A32211E20FEF7CDFAA3E6EA
:1028600038000020440000203C6C00082C010020AF
:102870003A00002063616C696272617465206F7553
:102880007474696D652C496E697420546F75636842
:10289000205061642E2E2E0D0A0000006666EE3F69
:1028A000CDCCCCCCCCCCF03F546F75636820536357
:1028B0007265656E2043616C6962726174696F6EE6
:1028C000204F4B210000000043616C69627261740B
:1028D000696F6E206F7665720D0A000073686F77FE
:1028E0002063616C69627261746520696E666F0D48
:1028F0000A0000002DE9FE43164605464FF0010888
:102900000A3082B2CDE900680027A5F10A000C4622
:1029100080B20B460297FEF77FF904F10A0083B2FA
:102920001438CDE9006881B22A4610460297FEF7B6
:1029300073F90223324621462846FEF7B9F9CDE95C
:1029400000873346062221462846FEF775F8BDE883
:10295000FE8300000648054981610649C16140F2D5
:10296000FF71018441840021818470471F85FBC071
:102970002C010020B81E354170B505460C4690204C
:1029800000F07EF92880D02000F07AF9208070BD18
:102990007FB50C460546694602A8FFF7EDFF01A981
:1029A00003A8FFF7E9FFBDF80C30BDF808209342FB
:1029B00003D803F13200824205D39A422ED802F1A5
:1029C000320083422AD2BDF80410BDF800008142D3
:1029D00003D801F13206B04205D388421ED800F177
:1029E0003206B1421AD240F6FF76B24216D0AAB1F0
:1029F000B34213D093B1B04210D078B1B1420DD0F0
:102A000061B1D01840082880BDF80000BDF804105E
:102A1000084440082080012004B070BD0020FBE77E
:102A200070B5054620212A48FEF76CFB294C30B1D1
:102A3000207D010640D520F08000207543E0254927
:102A400024480A3115B1FFF7A3FF2BE0FFF7A0FFE1
:102A500040B3214E30884008FDF794FC054620889D
:102A6000218C401A00B2FDF784FCA169FDF7D4FB6C
:102A70002946FDF779FBFDF79BFC20807088400814
:102A8000FDF780FC05466089618C401A00B2FDF7B5
:102A900070FCE169FDF7C0FB2946FDF765FBFDF71A
:102AA00087FC6081207D00060DD4C0202075208821
:102AB00020816089608206E00020208160824FF6DC
:102AC000FF7020806081207D00F0800070BD0000DC
:102AD000000C01402C0100203A0000202DE9FF5F8E
:102AE00088B0074600244FF6FF754FF478484FF042
:102AF000A00900BF37F82430621C36A102A800F0FC
:102B000007FC04EB8401CDE9008509EB8106334B1A
:102B100002AA31462820FEF76FF907EB8400621CF9
:102B200043882FA102A800F0F3FBCDE900853146D0
:102B30002A4B02AA8C20FEF75FF9641CE4B2052C34
:102B4000D8D304EB8400B42101EB8003264900951F
:102B500009EB800409882820491E8AB22146FEF725
:102B60007FF94FF0700A8DF808A078208DF80900E1
:102B7000DDE90A234FF03A0B02AE8DF80AB01BA133
:102B8000F01C00F0C5FBCDE900854FF000098DF881
:102B90000F9047462146114B02AA2820FEF72CF938
:102BA0008DF808A079208DF809008DF80AB0DDE9CC
:102BB00016230EA1F01C00F0ABFBCDE900758DF8DB
:102BC0000F902146054B02AA8C20FEF715F90CB098
:102BD000BDE8F09F7825643A256400004400002099
:102BE0007925643A256400003A000020252E3266DB
:102BF0000000000071B583B000208DF808008DF84A
:102C000004003020FFF77EFB1B4E002210213046CF
:102C1000FEF77DFAFF24012301AA03A917480094B7
:102C2000FEF7CBFE4FF4C871491EFDD28DF8084067
:102C3000012301AA02A911480094FEF7BEFE9DF8E7
:102C400004004FF6FF7101EA0025012301AA02A941
:102C50000A480094FEF7B1FE9DF8040001220543E6
:102C6000EC0810213046FEF752FA1820FFF74AFB15
:102C700004B0204670BD0000000C01407000002030
:102C8000FEB50026074635466C463846FFF7B2FFCC
:102C900024F81500D020401EFDD26D1CEDB2052D8C
:102CA000F3D30020411C0B460BE000BF34F810208A
:102CB00034F81150AA4203D924F8105024F81120F6
:102CC000491CC9B20529F1D3D8B20428EAD301209E
:102CD00034F81010401CC0B20E440428F8D303206E
:102CE000B6FBF0F0FEBD00000226294D294C002065
:102CF000FFF796FE207D0006F9D5208829888842B6
:102D0000F5D261896A889142F1D2821F542A12D287
:102D10000A2909D9282907D20A4601461EA000F02F
:102D2000E7FAFFF721FC03E03C2904D95A2902D233
:102D3000FFF774F9DBE74A2A24D2722904D98D29D6
:102D400002D24FF478401BE09C2904D9B72902D263
:102D50004FF4FC6014E0C62903D9E12901D21F20F9
:102D60000EE0F02904D9B1F5857F01D8002007E0F5
:102D7000B1F58D7F06D9B1F59A7F03D84FF6E07093
:102D8000A084B4E7A28C3346FDF792FFAFE70000C2
:102D90003A0000202C0100204C434420783A25645E
:102DA00020793A25640D0A0070B50446006801696F
:102DB000E26821F44051114301612169A068084390
:102DC000616908432168CA6841F20C639A4302436F
:102DD000CA6020684169A26921F4407111434161D0
:102DE0001E492068884202D1FEF7CCFA01E0FEF7C6
:102DF000B9FA00EBC00101EB0012606864218000A9
:102E0000B2FBF0F3B3FBF1F36FF018067343B2FBC0
:102E1000F0F5B2FBF0F605EB8305322303EB051565
:102E2000B5FBF1F5B6FBF1F605F0F00505EB06157F
:102E3000B2FBF0F6B2FBF0F0B0FBF1F06FF018026D
:102E4000504306EB800003EB0010B0FBF1F021686B
:102E500000F00F002844886070BD00000038014079
:102E60002DE9F041984617460E460446069D1DE0A2
:102E7000681C1BD02DB1FEF74FF9A0EB0800A8424B
:102E800014D92068C16821F4D071C16020684169FB
:102E900021F001014161202084F8390084F83A00D2
:102EA000002084F838000320BDE8F0812068006825
:102EB00036EA000004D00020B842D9D00020F3E761
:102EC0000120F9E72DE9F84310B10120BDE8F883AE
:102ED000444D287880077CD4DFF80C814FF4807152
:102EE000D8F80000C1610A24FF2001F017FB641E1E
:102EF00014F0FF04F8D100263146304601F06FFA95
:102F000001285CD14FF47A70FFF70CFA4FF4D571B9
:102F1000082001F064FA012808D00021A92001F05E
:102F20005EFA012836D80226A92435E06F46FF2034
:102F300001F0F4FA3855641CE4B2042CF7D39DF880
:102F4000020001283BD19DF80300AA2837D144078D
:102F5000FFF7F4F928B12146A92001F040FA002832
:102F6000F6D1FFF7EBF950B300213A2001F037FA20
:102F700028BB0024FF2001F0D1FA3855641CE4B2CC
:102F8000042CF7D39DF80000400601D50C2616E06E
:102F9000042614E001263446FFF7D0F928B10021B9
:102FA000204601F01CFA0028F6D1FFF7C7F928B136
:102FB0004FF40071102001F012FA00B100266E707B
:102FC00000F07AFE4EB1D8F800000821C1612878DF
:102FD00000E004E020F0010000E0012028702878E3
:102FE00074E700005C000020700000207FB51446EC
:102FF000030002D0042004B070BD6B4E3078C007CF
:1030000001D00320F7E7012561B101290DD0664801
:103010000329407848D004297ED0042500F04CFED6
:103020002846E8E701F01EFABAE00021092001F085
:10303000D6F90028F2D11021684601F0A9F900283C
:10304000ECD09DF800100120B0EB911F0CD19DF841
:1030500009109DF8082001EB02229DF8071000EBF3
:103060000140104480021DE09DF805009DF80A1003
:1030700000F00F0000EBD1109DF809109DF807201B
:1030800001F0030100EB41019DF80800800900EB0D
:1030900082009DF8062002F0030200EB8220401C13
:1030A000C91F3EE020607DE040074FF000011AD5C7
:1030B0008D2001F094F90028B0D1FF2001F02EFA04
:1030C0001021684601F064F90028A7D03025FF20C0
:1030D00001F024FA6D1E15F0FF05F8D19DF80A00E5
:1030E000010910201DE0092001F079F9002895D18F
:1030F0001021684601F04CF900288FD070788007C5
:1031000011D59DF80A009DF80B108006400E00EBCB
:10311000D1109DF80D1000E013E0FF2202EB911199
:10312000401C8840BEE79DF80B008107C90E01EBEB
:1031300050109DF80A10401CC1F38401491C4843FB
:10314000B0E710F0060FC0D06A460B211846FFF713
:103150004DFF0028B0D19DF80000800904D19DF8F2
:103160000A0040067FF55AAFD4E9001470780007D2
:1031700001D449026402202001F031F900289BD1DA
:103180002146212001F02BF9002895D1002126208D
:1031900001F025F900288FD147F2305001F0AAF94B
:1031A000002892D0002539E75C00002070B51C464D
:1031B0000D4630B92CB11C480178C90703D0032053
:1031C00070BD042070BD4078000700D452024FF457
:1031D0000076012C114604D0122001F000F960B1F4
:1031E00018E0112001F0FBF8C0B93146284601F083
:1031F000CFF898B100F060FD14E03146284601F0A8
:10320000C7F818B1641E05F50075F6D100210C2031
:1032100001F0E5F800F050FD14B903E000F04CFDBA
:10322000012070BD002070BD5C00002008B10120AD
:1032300070470148007870475C00002070B51C465C
:1032400015460E4630B92CB122490878C00703D084
:10325000032070BD042070BD0878400701D502200E
:1032600070BD4878010700D45502012C0CD010F035
:10327000060F03D01946972001F0B1F8294619200E
:1032800001F0ADF868B11AE02946182001F0A7F85E
:10329000D0B9FE21304601F051F9A8B100F00CFD83
:1032A00015E0FC21304601F049F918B1641E06F51D
:1032B0000076F6D1FD21002001F040F920B100F0A8
:1032C000FBFC24B1012070BD00F0F6FCFAE7002001
:1032D00070BD00005C000020FFF7F4BDFFF786BE64
:1032E000FFF764BFFFF7A2BFFFF7A8BFFEE700002C
:1032F0000FB4054B10B503A9044A029800F0FEF87C
:1033000010BC5DF814FB0000014000080000002024
:103310000FB4084B10B504A902AA039800F0EEF808
:10332000044602A9002000F080FC204610BC5DF895
:1033300014FB00002B3C00080907090E002804DBE1
:1033400000F1E02080F80014704700F00F0000F159
:10335000E02080F8141D704702E008C8121F08C161
:10336000002AFAD170477047002001E001C1121F06
:10337000002AFBD1704700002DE9FF5F82B00021D9
:10338000DDE90430020DDDF840B0034318D044F607
:103390001050A2F2FF3242431514119801281FD099
:1033A000A5EB0B00401C5FEA000A4FF000064E4FF1
:1033B000DFF83891B046504615D5CAF1000413E045
:1033C000119801244AA3012801D16FEA0B01029848
:1033D000119AC0E90031C0E9024206B0BDE8F09F91
:1033E000CBF10000DFE704460021404A491842EBD8
:1033F0000450CDE9001012E0E00707D032463B460A
:1034000040464946FDF79AF98046894632463B4692
:1034100010461946FDF792F906460F466410002C37
:10342000EAD1DDE90401DDE90023BAF1000F06DA93
:10343000FDF784F942464B46FDF780F905E0FCF7BD
:1034400029FF42464B46FCF725FF04460E46002264
:10345000284BFCF7D9FF03D84FF0FF30014607E0B7
:103460000022254B20463146FDF7C1F8FDF7D8F97B
:10347000102409E0002C0ADB0A220023FCF7F2FFEB
:10348000039B30321A55641E50EA0102F2D1641CCB
:10349000039AC4F111031444119A012A03D00122A2
:1034A00008430DD10AE0084304D000204FF0110B6F
:1034B000119072E7A3EB0B056D1E0DE05B4504DD7B
:1034C0004FF0000205F1010504E003DA4FF00002BD
:1034D000A5F10105002AECD002981199C0E902314A
:1034E000C0E9004579E70000000014400000F03F0B
:1034F000300000000000F0430000E03F2DE9FF4FE6
:1035000095B09B468946064600250FE2252877D1CF
:1035100000242746F84A0121059400E0044316F8E8
:10352000013F203B01FA03F01042F7D130782A28FE
:1035300011D06FF02F033078A0F13002092A16D88D
:10354000059A44F0020402EB820203EB42021044AB
:10355000761C0590EFE759F8042B0592002A03DA50
:10356000504244F40054059044F00204761C307834
:103570002E2816D116F8010F44F004042A280DD085
:103580006FF02F023078A0F13003092B09D807EB38
:10359000870302EB4303C718761CF3E759F8047B53
:1035A000761C30786C280FD006DC4C2817D06828A1
:1035B0000DD06A2814D104E0742810D07A280FD1D5
:1035C0000DE044F400140AE044F4801401E044F4F3
:1035D00040147278824202D104F58014761C761C65
:1035E000307866280BD013DC582877D009DC002807
:1035F00075D04528F6D04628F4D047281AD19DE149
:1036000018E0632835D0642879D0652812D195E177
:10361000702873D008DC6728F1D069286FD06E2835
:103620000DD06F2806D1B5E073282CD0752875D041
:10363000782874D05A46179990476D1C75E1C4F3E9
:103640000250022809D003280DD0D9F80010042810
:103650000DD00D6009F1040967E1D9F80010EA17EF
:10366000C1E90052F6E7D9F800100D80F2E70D70BD
:10367000F0E719F8041B8DF8001000208DF8010008
:10368000EA46012003E059F804AB4FF0FF30610730
:103690004FF0000102D40DE008F101018846B94263
:1036A0000FDA8045F8DB1AF808100029F4D108E099
:1036B00008F1010188468142FADB1AF80810002956
:1036C000F6D105985B46A0EB080721463846179AC5
:1036D00000F094FA284400EB080507E04DE029E1EA
:1036E0000DE01AF8010B5A4617999047B8F10108F6
:1036F000F7D25B4621463846179A13E142E00A2288
:103700000092C4F302524FF0000A022A08D059F87E
:1037100004CB032A4FEAEC710AD00DE029E02AE03D
:1037200009F1070121F00702F2E802C1914609E020
:103730000FFA8CFC4FEAEC71042A03D14FFA8CFC8F
:103740004FEAEC71002907DA0A460021DCF1000C8F
:1037500061EB02012D2202E0220504D52B228DF817
:103760000420012203E0E20701D02022F7E790467F
:1037700059E00A2102E010220DE010214FF0000A6A
:1037800000910BE010224FF0000A44F004040827D7
:10379000009203E008224FF0000A0092C4F30252A4
:1037A000022A05D059F804CB0021032A08D009E0E9
:1037B00009F1070121F00702F2E802C1914605E094
:1037C0001FFA8CFC042A01D10CF0FF0C4FF000080A
:1037D000220728D5702806D0009B83F0100353EAF7
:1037E0000A0305D00EE040228DF80420012208E0F3
:1037F0005CEA010206D030228DF804208DF8050025
:1038000002229046009B83F0080353EA0A030AD180
:103810005CEA010201D1620705D530228DF804204F
:103820004FF001087F1E582804D034A003900EA842
:1038300002900DE036A0F9E753466046009AFCF787
:1038400011FE84460398825C0298401E029002702A
:103850005CEA0100F0D1029806A9081A00F1200ADA
:10386000600702D524F4803400E00127574502DDCB
:10387000A7EB0A0000E0002000EB0A010090059889
:103880004144401A0590E00306D45B462146179A4E
:10389000059800F0B3F90544002706E001A85A4650
:1038A000C05D179990476D1C7F1C4745F6DBE00310
:1038B0000CD55B462146179A059800F09FF9054400
:1038C00004E030205A46179990476D1C0099481E15
:1038D00000900029F5DC08E0029802995A46007829
:1038E000491C0291179990476D1CBAF10001AAF189
:1038F000010AF1DC65E100000928010030313233B2
:10390000343536373839616263646566000000001B
:103910003031323334353637383941424344454605
:103920000000000000F058F90544761C30780028AB
:103930007FF4ECAD19B02846BDE8F08F620700D4E3
:10394000062709F1070222F0070CFCE80223E146F2
:1039500003F000485FEA080C02D00FF2702C0DE073
:103960005FEA045C02D50FF2682C07E05FEAC47CD2
:1039700002D00FF2602C01E0AFF2700C4FF0FF3874
:1039800023F00043CDF850C065280CD006DC452854
:1039900009D046281DD047283DD13DE0662818D0E3
:1039A00067287ED138E00021112F01DB112000E0D3
:1039B000781CCDE9000106A90EA8FFF7DDFCDDE9C2
:1039C0000F010E9A03910021009207F1010A049160
:1039D0004DE04FF000400097CDE9011006A90EA878
:1039E000FFF7CAFCDDE90F0203920E9B119900223A
:1039F000DDF80CA00093049211B9791C00EB010AC8
:103A0000B7EB0A0004D4C0F1FF3007F1010A0490BB
:103A1000AAEB0700019044E0012F00DA0127002102
:103A2000112F01DD112000E03846CDE9000106A983
:103A30000EA8FFF7A1FCDDE90F010E9A039100210A
:103A400004910092BA4621070CD40399514500DA3B
:103A50008A46BAF1010F05DD009AAAF10101515C15
:103A6000302908D0B84202DA10F1040F06DA012139
:103A7000CDE9011015E0AAF10101E9E7002805DC14
:103A8000049901440491AAEB000102E0411C514554
:103A900000DD8A460499401A401C01904FF0004016
:103AA0000290200704D40198504501DBCDF8048032
:103AB00000208DF84F0002980DF14F07B0F1004F34
:103AC00025D02B200E9002984FF0020800280CDA27
:103AD000404202902D200E9007E00A210298FCF748
:103AE000ABFC3031029007F8011DB8F10001A8F1DC
:103AF0000108F2DC02980028EFD1791E0E980870B8
:103B0000307800F0200040F0450007F8020D12A8C0
:103B1000C01B00F107081498007800B1012000EBE9
:103B20000A01019801EBE07105984144401A401EDA
:103B30000590E00306D45B462146179A059800F0ED
:103B40005DF805441498007818B15A4617999047C3
:103B50006D1CE00324D55B462146179A059800F0BA
:103B60004DF805441CE00498002807DBDDE903015B
:103B7000884203DD0098405C179901E017993020D6
:103B80005A469047049805F10105401C049001989D
:103B9000401E019004D12E205A46179990476D1C63
:103BA000BAF10001AAF1010ADDDC05E017F8010B0A
:103BB0005A46179990476D1CB8F10001A8F1010809
:103BC000F4DC5B462146179A0598ABE62D00000011
:103BD0002B000000200000002DE9F04104460025E4
:103BE0001E461746880404D405E039462020B04715
:103BF0006D1C641EF9D52846BDE8F0812DE9F04121
:103C0000044600251E469046C80301D5302700E033
:103C10002027880404D505E041463846B0476D1C8E
:103C2000641EF9D52846BDE8F0810A68531C0B6074
:103C30001070704710B50446002084F80402401E3E
:103C4000C4F82C02204600F087FB08B1032010BD09
:103C5000B4F8FE01A0F52A41553901D0022010BD6B
:103C600094F83600B4F8371040EA01210848B0EB68
:103C7000012F08D094F85210B4F8532041EA0221E1
:103C8000B0EB012F01D1002010BD012010BD0000BC
:103C90000046415430B50021064A0C4601EB410371
:103CA00052F82350854201D142F82340491C022991
:103CB000F4D330BD0801002010B501229102044860
:103CC000FDF725FABDE81040FF2000F027BC0000FA
:103CD000000C0140084910B50B5C002253B90122C9
:103CE0000A540A1801EB8000127A406801681046F5
:103CF00088470246104610BD2001002030B4054D13
:103D00002C1805EB8000247A406885682046AC4674
:103D100030BC604720010020044A111802EB8000EB
:103D2000097A4068426808461047000020010020D8
:103D300030B4054D2C1805EB8000247A4068C56826
:103D40002046AC4630BC6047200100202DE9F741F9
:103D500081B0904602980090684600F05DF904003A
:103D600003D50B2004B0BDE8F0810E4E002756F8B5
:103D7000245025B12846FFF78DFF85F80072019881
:103D8000002801D080F8007246F8240002D0B8F173
:103D9000010F01D00020E5E7002202A901A800F0F0
:103DA00003F8DFE7340000202DE9FF474FF000095A
:103DB0000746C0F800901646084600F02DF90500A9
:103DC00003D50B2004B0BDE8F0878A4850F82540A1
:103DD000A4B13C6094F8000228B194F80102FFF706
:103DE0009BFFC1070CD084F80092E8B284F801026E
:103DF000FFF770FFC10708D00320E3E70C20E1E7DD
:103E00000EB1400704D40020DCE71EB1400701D505
:103E10000A20D7E7002529462046FFF70BFF012897
:103E200023D100204FEA0D0704EB001191F8C221C5
:103E300001F5DF712AB10A7AD1F8091042EA0121AD
:103E400000E0002147F82010401C0428ECD3002695
:103E500057F826502DB129462046FFF7EBFE08B94A
:103E600009E00220761C042EF2D3032801D0E0BB27
:103E700001E00120A6E7B4F80B00B0F5007F60D1A7
:103E8000E28A2AB994F82400D4F8251040EA0122E5
:103E9000C4F81822217C84F80312012901D00229D8
:103EA0004FD1607B514384F80202F0B1431E1842A7
:103EB00047D1B4F81130A4F808321E0741D1B4F844
:103EC00013602EB994F82060D4F8217046EA0726D2
:103ED000B4F80EC0BCF1000F33D00CEB010707EBB8
:103EE0001317BE422DD3F61B00E02AE0B6FBF0F01C
:103EF00038B3012640F6F678404500D302264FF647
:103F0000F678404500D30326801C2F44C4F828725D
:103F1000AC44C4F81402C4E9875C032E13D083B107
:103F20006144C4F82412022E19D000F0010100EB04
:103F3000400001EB500000BF00F2FF10B2EB502F29
:103F40000FD20D203EE7002BFBD194F82C10D4F8B3
:103F50002D30800041EA0321C4F82412ECE7400030
:103F6000EAE74FF0FF30C4F81002C4F80C028020DA
:103F700084F80502032E30D1208E01282DD1204651
:103F8000691C00F0E9F940BB84F80592B4F8FE0121
:103F9000A0F52A41553920D12078D4F8011040EA03
:103FA00001201549884218D194F8E401D4F8E511AC
:103FB00040EA0120114988420FD194F8E801D4F871
:103FC000E91140EA0120C4F8100294F8EC01D4F899
:103FD000ED1140EA0120C4F80C02064984F80062A1
:103FE000091F0888401C0880A4F806022046FFF735
:103FF00051FE08E734000020525261417272416163
:1040000013B54FF6FF73012269460248FDF744FEDF
:1040100000981CBDC800002010B504464FF0FF30CA
:104020002268002A13D0114600E0491C0B78212B8E
:104030000ED33A2BF9D112F8013B303B0A2B06D2B2
:104040008A4204D1002B02D1491C1846216010BDC0
:10405000002010BD0EB5FDF76DF8FEF75DFAFEF716
:104060004BF8FEF7C5F8FEF7E7F8FEF737F885A03E
:10407000FFF73EF9FEF76EFCFDF7E2FE4FF47847DE
:10408000002402250097CDE901544FF4A0760A22BE
:10409000334601211046FCF7BFFD4FF6E030CDE975
:1040A00000050F223346012102941046FCF7B4FDAF
:1040B0004FF6E07ACDF800A0CDE901541422334642
:1040C00001211046FCF7A8FD4FF4FC68CDF80080F4
:1040D000CDE901541922334601211046FCF79CFD1D
:1040E00040F2FF70CDE900051E2233460121029403
:1040F0001046FCF791FD4FF01F09CDF80090CDE977
:1041000001542322334601211046FCF785FD48F671
:104110001F00CDE9000528223346012102941046F4
:10412000FCF77AFD0126CDE900460A234FF4F07230
:10413000194646200294FCF76FFD0097CDE9015621
:1041400014234FF4F07219464620FCF765FD4FF03A
:10415000030BCDF800A01E23CDE901B41A011946C6
:104160004620FCF759FD04204FF61F01CDE9001051
:1041700028234FF4F072029619464620FCF74CFDB6
:104180000097CDE901647823642250214620FCF792
:10419000C3FDCDF80080CDE9016478238C22502145
:1041A0006E20FCF7B9FDCDF80090CDE901647823CD
:1041B000B42250219620FCF7AFFD78234FF4827291
:1041C0005021DC200097FCF74BFE78234FF4A572BA
:1041D00050214FF49170CDF80080FCF741FE782318
:1041E0004FF4C87250214FF4B470CDF80090FCF732
:1041F00037FE009601964FF4B97643461422B42157
:104200003046FCF719FCCDE900543B461E22B42190
:104210003046FCF711FCCDE900B41F232822B4215D
:104220003046FCF709FC4FF6FF751E4B1EA2A0217D
:104230005020CDE90045FCF7DFFDCDE90075194BB5
:104240001CA2C3215020FCF7D7FDCDE90095154BEA
:104250001BA2E6215020FCF7CFFDCDE90075114BE4
:104260001CA240F209115020FCF7C6FD4FF4FA6081
:10427000FCF746FEFEF700F8FDF7D0FEFEF734FD32
:10428000FCE70000332E35696E6368204C43442000
:10429000446973706C61792064656D6F2E2E2E0DEC
:1042A0000A000000500000203031323334353637F8
:1042B000383900005345454E4752454154210000CE
:1042C0007777772E7365656E67726561742E636F9D
:1042D0006D000000332E35696E6368204C43442026
:1042E000446973706C61792100000000F0B50B30F7
:1042F000154D20F007010024144A0FE003688B429B
:104300000BD38B4205D95E1A43184768C3E900678F
:1043100000E04368136002C004E0021D106800283A
:10432000ECD12046002802D1286808B10020F0BD59
:10433000064A07481060074A121A22F00702C0E92D
:10434000002401202860D7E76C00002068000020CE
:10435000EC030020E805002070B50546D0F82C02DB
:104360000C460026A04210D0284600F093F8060024
:104370000BD195F80102012322462946FFF7BEFC26
:1043800008B1741E0126C5F82C42304670BD0000ED
:1043900070B505460C46C820FDF7C4FFFF2000F0AD
:1043A000BDF8FF2803D0FE2806D0002070BDFDF721
:1043B000C5FF0028F2D1F8E72646002404E000BF3C
:1043C00000F0ACF82855641CB4424FF0FF00F7D35E
:1043D00000F0A4F8FF2000F0A1F8012070BD70B536
:1043E00004460D46000607D504F07F04002137205F
:1043F000FFF7F5FF012822D80C2C04D0FFF75CFC56
:1044000000F030F8D0B144F0400000F087F8280EFA
:1044100000F084F8C5F3074000F080F8C5F30720EA
:1044200000F07CF8E8B200F079F8012044B1082CE3
:1044300008D000F073F80C2C12D006E0FF2070BDFD
:10444000952000E0872000F069F80A24FF2000F0A2
:1044500065F80106F3D5641E14F0FF04F6D170BDB3
:10446000FF20F0E710B500224FF480610848FCF708
:104470004EFEFF2000F052F84FF4FA7000F03AF8C8
:1044800008B1012010BDFFF717FC002010BD00008F
:10449000000C01402DE9F041044690F80402002789
:1044A00028B3D4F82C5294F8010201232A4621465D
:1044B000FFF73EFC08B1012719E0002084F8040250
:1044C000D4F82002D4F81812281A88420FD294F88F
:1044D00003620AE0D4F818020123054494F80102AB
:1044E0002A462146FFF724FC761E022EF2D23846D9
:1044F000BDE8F08170B50546FCF70EFE0446FF20CE
:1045000000F00CF8FF2806D0FCF706FE001BA842BE
:10451000F5D3002070BD012070BD000001B582B050
:1045200032200090012301AA02A90348FDF745FAB1
:104530009DF804000EBD00007000002070B5054617
:104540000C464FF4FA70FFF7D5FF00281BD0204629
:10455000FFF7E4FFFD2C17D04FF400760024285D10
:10456000FFF7DCFF641CB442F9D3FF20FFF7D6FF4E
:10457000FF20FFF7D3FFFF20FFF7D0FF00F01F0061
:10458000052801D0002070BD012070BD0000000092
:1045900000000000010203040607080900000000F3
:1045A0000102030400000000000000000000000001
:1045B00000000000000000000000000000000000FB
:1045C0000000000000000C000C000C000C000C00AF
:1045D0000C000C000C0000000C00000000000000AB
:1045E00000000000000000001DC01DC00880088001
:1045F0000880000000000000000000000000000033
:104600000000000000000D800D800D800D803FC077
:104610001B003FC01B001B001B001B000000000014
:104620000000000004001F803180318038001E002F
:104630000F000380318031803F000400040000003F
:1046400000000000000018002400240018C00780AB
:104650001E00318002400240018000000000000086
:1046600000000000000000000F00180018001800F3
:104670000C001D80370033001D800000000000008A
:104680000000000000000000070007000200020018
:104690000200000000000000000000000000000018
:1046A0000000000000000300030006000E000C00E4
:1046B0000C000C000C000E000600030003000000BC
:1046C000000000000000180018000C0006000600A2
:1046D00006000600060006000C001C001800000082
:1046E000000000000000060006003FC03FC00F00B1
:1046F0001F80198000000000000000000000000082
:10470000000000000000000000000400040004009D
:104710003F800400040004000000000000000000CE
:104720000000000000000000000000000000000089
:10473000000000000000060004000C000800080053
:104740000000000000000000000000000000000069
:104750003F8000000000000000000000000000009A
:104760000000000000000000000000000000000049
:104770000000000000000C000C0000000000000021
:104780000000000000C000C00180018003000300A1
:1047900006000C000C00180018003000300000006B
:1047A0000000000000000E001B00318031803180CD
:1047B0003180318031801B000E00000000000000BD
:1047C00000000000000006003E0006000600060093
:1047D00006000600060006003FC0000000000000C2
:1047E0000000000000000F001980318031800300BC
:1047F00006000C00180030003F80000000000000A0
:104800000000000000003F006180018003001F00E5
:1048100003800180018061803F00000000000000F3
:10482000000000000000070007000F000B001B0045
:10483000130033003F8003000F80000000000000E1
:104840000000000000001F801800180018001F0062
:1048500011800180018021801F0000000000000005
:1048600000000000000007801C0018003000370026
:1048700039803180318019800F0000000000000075
:104880000000000000007F00430003000600060057
:10489000060006000C000C000C00000000000000E8
:1048A0000000000000001F003180318031801F00B7
:1048B00031803180318031801F0000000000000015
:1048C0000000000000001E00330031803180338082
:1048D0001D800180030007003C0000000000000074
:1048E0000000000000000000000000000C000C00B0
:1048F0000000000000000C000C00000000000000A0
:1049000000000000000000000000000003000300A1
:10491000000000000000060004000800080000007D
:10492000000000000000000000C0030004001800A8
:10493000600018000400030000C000000000000038
:1049400000000000000000000000000000007FC028
:1049500000007FC000000000000000000000000018
:1049600000000000000000006000180004000300C8
:1049700000C00300040018006000000000000000F8
:1049800000000000000000001F0031803180018025
:1049900007000C000C0000000C00000000000000EC
:1049A0000000000000000E0011002100210027007F
:1049B000290029002700200011000E00000000003F
:1049C00000000000000000003F000F0009001980F7
:1049D00019801F8030C030C079E000000000000066
:1049E00000000000000000007F0031803180318035
:1049F0003F003180318031807F00000000000000E6
:104A000000000000000000001F4030C06040600057
:104A100060006000604030801F0000000000000067
:104A200000000000000000007F00318030C030C076
:104A300030C030C030C031807F0000000000000076
:104A400000000000000000007F80308030803200D5
:104A50003E003200308030807F8000000000000087
:104A600000000000000000007FC0304030403200F5
:104A70003E003200300030007C00000000000000EA
:104A800000000000000000001E8031806080600097
:104A9000600067C0618031801F00000000000000DE
:104AA00000000000000000007BC0318031803180B8
:104AB0003F803180318031807BC0000000000000E9
:104AC00000000000000000003FC0060006000600D5
:104AD00006000600060006003FC0000000000000BF
:104AE00000000000000000001FC0030003000300DE
:104AF00003006300630063003E000000000000004C
:104B000000000000000000007BC031803300360050
:104B10003C003E003300318079C0000000000000FE
:104B200000000000000000007E00180018001800BF
:104B300018001840184018407FC000000000000016
:104B40000000000000000000E0E060C071C07BC019
:104B50006AC06EC064C060C0FBE0000000000000DE
:104B6000000000000000000073C0318039803D80EB
:104B7000358037803380318079800000000000006C
:104B800000000000000000001F00318060C060C015
:104B900060C060C060C031801F00000000000000E5
:104BA00000000000000000007F0031803180318073
:104BB00031803F00300030007E0000000000000027
:104BC00000000000000000001F00318060C060C0D5
:104BD00060C060C060C031801F000CC01F8000003A
:104BE00000000000000000007F0031803180318033
:104BF0003E003300318031807CE000000000000086
:104C000000000000000000001F803180318038006B
:104C10001F000380318031803F0000000000000051
:104C200000000000000000007F804C804C804C8021
:104C30000C000C000C000C003F0000000000000005
:104C400000000000000000007BC031803180318016
:104C500031803180318031801F0000000000000071
:104C600000000000000000007BC0318031801B008C
:104C70001B001B000A000E000E00000000000000D8
:104C80000000000000000000FBE060C064C06EC0D7
:104C90006EC02A803B803B80318000000000000015
:104CA00000000000000000007BC031801B000E00EF
:104CB0000E000E001B0031807BC0000000000000D1
:104CC000000000000000000079E030C019800F00F3
:104CD00006000600060006001F800000000000001D
:104CE00000000000000000003F802180230006003B
:104CF00004000C00188030803F800000000000009D
:104D00000000000000000780060006000600060004
:104D100006000600060006000600060007800000E8
:104D20000000000030003000180018000C000C00DB
:104D30000600030003000180018000C000C00000E5
:104D40000000000000001E0006000600060006002D
:104D50000600060006000600060006001E00000011
:104D60000000000004000A000A00110020802080DA
:104D70000000000000000000000000000000000033
:104D80000000000000000000000000000000000023
:104D90000000000000000000000000000000000013
:104DA0000000FFE008000400020000000000000016
:104DB00000000000000000000000000000000000F3
:104DC0000000000000000000000000001F00018043
:104DD00001801F80318033801DC000000000000072
:104DE0000000000000007000300030003700398003
:104DF00030C030C030C039807700000000000000B3
:104E00000000000000000000000000001E80318053
:104E100060806000608031801F00000000000000A2
:104E20000000000000000380018001801D803380AD
:104E300061806180618033801DC00000000000003F
:104E40000000000000000000000000001F00318092
:104E500060C07FC0600030C01F8000000000000004
:104E600000000000000007E00C000C003F800C0078
:104E70000C000C000C000C003F8000000000000043
:104E80000000000000000000000000001DC0338092
:104E900061806180618033801D80018001801F00FE
:104EA0000000000000007000300030003700398042
:104EB00031803180318031807BC0000000000000F3
:104EC0000000000000000600060000001E000600B2
:104ED00006000600060006003FC0000000000000BB
:104EE0000000000000000600060000003F00030074
:104EF00003000300030003000300030003003E005F
:104F000000000000000070003000300037803600E4
:104F10003C003C003600330077C000000000000079
:104F20000000000000001E0006000600060006004B
:104F300006000600060006003FC00000000000005A
:104F40000000000000000000000000007F8036C06C
:104F500036C036C036C036C076E000000000000023
:104F60000000000000000000000000007700398011
:104F700031803180318031807BC000000000000032
:104F80000000000000000000000000001F00318051
:104F900060C060C060C031801F00000000000000E1
:104FA00000000000000000000000000077003980D1
:104FB00030C030C030C039803700300030007C0055
:104FC0000000000000000000000000001DC0338051
:104FD00061806180618033801D800180018007C015
:104FE0000000000000000000000000007B801CC0EA
:104FF00018001800180018007F00000000000000D2
:105000000000000000000000000000001F80318050
:105010003C001F00038031803F00000000000000C2
:105020000000000000001800180018007F001800A1
:1050300018001800180018800F0000000000000081
:1050400000000000000000000000000073803180BC
:1050500031803180318033801DC0000000000000AD
:105060000000000000000000000000007BC0318054
:1050700031801B001B000E000E000000000000002D
:10508000000000000000000000000000F1E060C02F
:1050900064C06EC03B803B80318000000000000097
:1050A0000000000000000000000000007BC01B00AA
:1050B0000E000E000E001B007BC000000000000070
:1050C00000000000000000000000000079E030C097
:1050D000198019800B000F00060006000C003E002E
:1050E0000000000000000000000000003F80218060
:1050F00003000E00180030803F8000000000000018
:1051000000000000000006000C000C000C000C0069
:105110000C0018000C000C000C000C000600000035
:105120000000000000000600060006000600060061
:105130000600060006000600060006000600000045
:105140000000000000000C0006000600060006003B
:105150000600030006000600060006000C00000022
:105160000000000000000000000000000000180027
:105170002480030000000000000000000000000088
:10518000000000000000000000000000000000001F
:10519000000000000000000000000000000000000F
:1051A00000000000000000000000000000000000FF
:1051B00000000000000000000000000000000000EF
:1051C00000000000000000000000000000000000DF
:1051D0000000038000038000038000038000038040
:1051E00000038000038000038000038000010000B2
:1051F00001000000000000000003800003800000A8
:10520000000000000000000000000000000000009E
:10521000000000000000000000000000000E700010
:105220000E70000E70000420000420000420000412
:10523000200000000000000000000000000000004E
:10524000000000000000000000000000000000005E
:10525000000000000000000000000000000000004E
:105260000000066000066000066000066000066040
:10527000003FF8003FF8000660000CC0003FF80057
:105280003FF8000CC0000CC0000CC0000CC0000CAB
:10529000C00000000000000000000000000000004E
:1052A0000000000000000001800001800007B00045
:1052B0000FF0001870001870001C00000F8000072D
:1052C000E00000F0001830001C30001C70001FE0EF
:1052D000001BC000018000018000018000018000EF
:1052E00000000000000000000000000000000000BE
:1052F00000000780000FC0001CE00018600018606C
:10530000001CE0000FF80007E0001FF00007380065
:1053100006180006180007380003F00001E000003E
:10532000000000000000000000000000000000007D
:10533000000000000000000000000000000000006D
:1053400003F00007F0000C60000C00000C000006E9
:1053500000000700000F9C001DFC0018F0001870F2
:10536000000FFC0007DC000000000000000000004F
:10537000000000000000000000000000000000002D
:105380000000000000038000038000038000010093
:10539000000100000100000100000000000000000A
:1053A00000000000000000000000000000000000FD
:1053B00000000000000000000000000000000000ED
:1053C000000000000000000000000018000038008D
:1053D00000700000F00000E00000E00001C00001EB
:1053E000C00001C00001C00001C00001C00000E019
:1053F0000000E0000070000070000038000018009D
:10540000000000000000000000000000000000009C
:1054100000001800001C00000E00000E0000070035
:105420000007000003800003800003800003800069
:105430000380000380000700000700000F00000E3B
:1054400000001C0000180000000000000000000028
:10545000000000000000000000000180000180004A
:105460000180001DB8001FF80007E00003C0000322
:10547000C0000660000660000000000000000000A0
:10548000000000000000000000000000000000001C
:10549000000000000000000000000000000000000C
:1054A0000000000000000000018000018000018079
:1054B000000180000180003FFC003FFC00018000F3
:1054C00001800001800001800001800000000000D8
:1054D00000000000000000000000000000000000CC
:1054E00000000000000000000000000000000000BC
:1054F00000000000000000000000000000000000AC
:10550000000000000000000000000000000000E0BB
:105510000000C00001C00001800001800003000005
:105520000300000000000000000000000000000078
:10553000000000000000000000000000000000006B
:10554000000000000000001FF8001FF8000000002D
:10555000000000000000000000000000000000004B
:10556000000000000000000000000000000000003B
:10557000000000000000000000000000000000002B
:10558000000000000000000000000000000000001B
:10559000000000000000000000000000000003C048
:1055A0000003C00003C00000000000000000000075
:1055B00000000000000000000000000000180000D3
:1055C000180000380000300000700000600000602B
:1055D0000000C00000C00001800001800003000046
:1055E0000300000600000600000E00000C00001C76
:1055F000000018000018000000000000000000007B
:105600000000000000000000000003C00007E000F0
:105610000C30000C3000181800181800181800186A
:1056200018001818001818001818000C30000C305A
:105630000007E00003C000000000000000000000C0
:10564000000000000000000000000000000000005A
:1056500000000080000780001F80001D8000018086
:1056600000018000018000018000018000018000B5
:105670000180000180000180001FF8001FF8000079
:10568000000000000000000000000000000000001A
:105690000000000000000000000007C0001FF00034
:1056A00038300030180030180000180000300000BA
:1056B000600001C0000380000600000C000018001C
:1056C000003FF8003FF8000000000000000000006C
:1056D00000000000000000000000000000000000CA
:1056E000000003C0000FE0000C700000300000302C
:1056F0000000600003C00003E0000070000018001C
:105700000018000018001838001FF0000FC000003B
:105710000000000000000000000000000000000089
:105720000000000000000000000000E00001E000B8
:1057300001E0000360000660000660000C60000CE1
:1057400060001860003060003FF8003FF800006023
:105750000003F80003F80000000000000000000053
:105760000000000000000000000000000000000039
:1057700000001FF0001FF0001800001800001800C3
:10578000001BC0001FF0001C3000001800001800B3
:105790000018000018003030003FF0000FC000007B
:1057A00000000000000000000000000000000000F9
:1057B0000000000000000000000000F80003F800F6
:1057C0000700000E00000C00001800001BC0001FA6
:1057D000F0001C30001818001818001818000C38B9
:1057E000000FF00003E000000000000000000000D7
:1057F00000000000000000000000000000000000A9
:1058000000001FF8001FF8001818001838000030BA
:105810000000300000700000600000600000E00048
:1058200000C00000C00001C0000180000180000035
:105830000000000000000000000000000000000068
:105840000000000000000000000007E0000FF00072
:105850001C38001818001818000C300007E000076A
:10586000E0000C30001818001818001818001C3838
:10587000000FF00007E00000000000000000000042
:105880000000000000000000000000000000000018
:10589000000007C0000FF0001C3000181800181896
:1058A000001818000C38000FF80003D8000018008A
:1058B00000300000700000E0001FC0001F0000006A
:1058C00000000000000000000000000000000000D8
:1058D00000000000000000000000000000000000C8
:1058E00000000000000003C00003C00003C000006F
:1058F000000000000000000000000000000003C0E5
:105900000003C00003C00000000000000000000011
:105910000000000000000000000000000000000087
:10592000000000000000000000000000000000F087
:105930000000F00000F00000000000000000000087
:1059400000000000E00001C00001800001800003B1
:105950000000020000000000000000000000000045
:105960000000000000000000000000000000000037
:10597000001C00003C0000F00003C0000F00003CD1
:105980000000F000003C00000F000003C00000F029
:1059900000003C00001C00000000000000000000AF
:1059A00000000000000000000000000000000000F7
:1059B00000000000000000000000000000000000E7
:1059C000007FFC007FFC000000000000007FFC0066
:1059D0007FFC00000000000000000000000000004C
:1059E00000000000000000000000000000000000B7
:1059F00000000000000000000000000000000000A7
:105A00007000007800001E000007800001E0000028
:105A10007800001E0000780001E0000780001E00F2
:105A2000007800007000000000000000000000008E
:105A30000000000000000000000000000000000066
:105A4000000000000007C0000FE0001870001830D0
:105A50000018300000700000E00003C00003800068
:105A60000300000000000000000700000700000025
:105A70000000000000000000000000000000000026
:105A80000000000000000000000003E00007F0003C
:105A90000E38000C180018780018F80019D80019F2
:105AA000980019980019980018F800187800180044
:105AB000000C00000E180007F80003E000000000D2
:105AC00000000000000000000000000000000000D6
:105AD00000000000001F80001FC00001C000036024
