:020000040800F2
:10000000E019002001010008CF1100083710000896
:10001000CD110008A9010008011A00080000000025
:10002000000000000000000000000000E5120008D1
:10003000AB01000800000000D1110008691400089D
:100040001B0100081B0100081B0100081B01000820
:100050001B0100081B0100081B0100081B01000810
:100060001B0100081B0100081B0100081B01000800
:100070001B0100081B0100081B0100081B010008F0
:100080001B0100081B0100081B0100081B010008E0
:100090001B0100081B0100081B0100081B010008D0
:1000A0001B0100081B0100081B0100081B010008C0
:1000B0001B0100081B0100081B0100081B010008B0
:1000C0001B0100081B0100081B0100081B010008A0
:1000D0001B0100081B0100081B0100081B01000890
:1000E0001B0100081B0100081B010008DFF80CD0F1
:1000F00000F048F80048004719360008E0190020D1
:100100000648804706480047FEE7FEE7FEE7FEE7B1
:10011000FEE7FEE7FEE7FEE7FEE7FEE7BB140008AA
:10012000ED000008D2B201E000F8012B491EFBD21D
:1001300070470022F6E710B513460A4604461946F2
:10014000FFF7F0FF204610BD421C10F8011B0029EC
:10015000FBD1801A704730B50B46014600202022A3
:10016000012409E021FA02F59D4205D303FA02F5C4
:10017000491B04FA02F52844151EA2F10102F1DC24
:1001800030BD0000064C074D06E0E06840F001037A
:1001900094E8070098471034AC42F6D3FFF7AAFF63
:1001A0000047000820470008FEE77047704700221C
:1001B000AFF3008030B50E4B054601205C7A012C70
:1001C00015D8587A00241C54587A03EB80004560F7
:1001D0005D7A03F108002A54587A421C5A72303072
:1001E00008703A2048702F208870CC70002030BDF5
:1001F000D407002070B5044600F004F90546601CE1
:1002000002D004480078044400F0FCF8401BA042EF
:10021000FAD370BD380000202DE9F84FDFF8B8910F
:10022000002409F1040A0AF1040B23460F270BF1FD
:10023000040EC9E00125A5402A40AA427DD1674E9F
:10024000D1F804C0ACEB0608B44532D014DCBCF1E4
:10025000030F3AD009DCBCF1000F2AD0BCF1010F2A
:100260001CD0BCF1020F31D11DE0BCF1110F17D031
:10027000BCF1120F2AD119E0B8F5881F19D006DC9D
:10028000B8F5803F15D0B8F5801F1FD111E0B8F543
:10029000001F0ED0B8F5041F18D10AE0CB6815E096
:1002A000CB681B1D12E0CB6808330FE0CB680C3322
:1002B0000CE08B682BB1012B4FF0080303D0456194
:1002C00004E0042302E0056100E00023FF2A01D8D6
:1002D000064601E000F104064FEA840501D9A5F1C4
:1002E0002005D6F8008007FA05FC28EA0C0803FA76
:1002F00005F548EA0508C6F800804D68ED0062D5AE
:10030000374DAE6946F00106AE61AD6924F00306D3
:1003100005F001050095334D06EB050CDCF808509F
:10032000A607360F07FA06F825EA0805DFF8B880B1
:10033000404503D14FF0000817E044E0DFF8AC80FF
:10034000404502D14FF001080FE0DFF8A48040459E
:1003500002D14FF0020808E0DFF89880404502D152
:100360004FF0030801E04FF0040808FA06F848EAE5
:100370000508CCF808804D68D9F80060ED034D46BB
:1003800001D5164300E096432E604D68DAF8006010
:10039000AD03554601D5164300E096432E604D68E7
:1003A000DBF80060ED025D4601D5164300E09643A0
:1003B0002E604D68DEF80060AD02754601D516432B
:1003C00000E096432E60641C0D682A46E5407FF4E9
:1003D00031AFBDE8F88F00000004014000001110AB
:1003E000001002400000014000080140000C0140E4
:1003F00000100140001401400AB101617047090476
:10040000FBE70000014880687047000038000020CA
:1004100002488168027811448160704738000020EA
:10042000074810B5016841F010010160032000F099
:1004300067F8002000F006F800F024F8002010BD56
:100440000020024070B50D4D04464FF47A712878B3
:10045000B1FBF0F00A490968B1FBF0F000F014FDBF
:1004600048B9102C07D200222146501E00F028F86F
:1004700000206C6070BD012070BD000038000020BD
:10048000440000200C4808B5816941F001018161F8
:10049000816901F001010091C16941F08051C161A0
:1004A000C06900F0805000900448416821F0E0618C
:1004B00041F00071416008BD0010024000000140A1
:1004C000F0B40E4B1B680C46C3F30223C3F10705BF
:1004D000042D00D90425191D072901D2002300E0AD
:1004E000DB1E012606FA05F1491E214099409E4077
:1004F000761E16403143F0BC01F0A8BA0CED00E0C6
:10050000064900F0070208684FF6FF03184040EA6A
:100510000220034A10430860704700000CED00E021
:100520000000FA052DE9F0470F46050061D0434E63
:10053000306800F00700B84209D2306820F00700A8
:1005400038433060306800F00700B84251D1286865
:100550003B4C810712D5400703D5606840F4E0604A
:1005600060602878000703D5606840F460506060E0
:100570006068A96820F0F000084360602878C00730
:1005800028D06868012810D02168022810D0890777
:1005900000292EDA616821F0030101436160FFF751
:1005A00031FF804641F288390DE021688903EFE789
:1005B0008901EDE7FFF726FFA0EB0801494502D9C5
:1005C0000320BDE8F0876068696800F00C00B0EBBC
:1005D000810FEFD1306800F00700B8420BD93068C6
:1005E00020F0070038433060306800F00700B84260
:1005F00001D00120E5E72878400705D56068E96863
:1006000020F4E060084360602878000706D5606841
:10061000296920F4605040EAC100606000F038F8B9
:100620006168084AC1F30311515CC840064908607B
:1006300006480068FFF706FF0020C2E700200240DE
:1006400000100240E8460008440000203C00002062
:100650000448054900684968044AC1F30221515C15
:10066000C84070474400002000100240F8460008CF
:100670000448054900684968044AC1F3C221515C35
:10068000C84070474400002000100240F8460008AF
:1006900012A185B00FC98DE80F0014A0144A00689C
:1006A00004905168134801F00C03042B10D0082B60
:1006B0000ED1C1F38343C9031DF803000AD5516865
:1006C00004AAC1F34041515C0A4A5043B0FBF1F027
:1006D00005B0704708494843FAE7000002030405E3
:1006E000060708090A0B0C0D0E0F1010010200007E
:1006F0000010024000127A0000093D002DE9F84F79
:10070000040070D02078C04DC00749D06868C0F39D
:100710008100012807D06868C0F38100022809D150
:100720006868C00306D52868800339D5606800284A
:10073000E7D035E06068B0F5803F0BD010B1B0F580
:10074000A02F11D0286820F480302860286820F479
:10075000802002E0286840F480302860606890B112
:10076000FFF750FE06460AE0286840F48020286023
:10077000F0E700BFFFF746FE801B642873D82868A7
:100780008003F7D50CE0FFF73DFE064605E000BF0D
:10079000FFF738FE801B6428F0D828688003F7D460
:1007A00020789A4E80074FF001094FF0000839D5A4
:1007B000686810F00C0F07D06868C0F38100022849
:1007C00009D16868C00306D42868800714D5206959
:1007D000012808D110E02069B0B1C6F80090FFF7F9
:1007E00011FE074605E00AE1FFF70CFEC01B0228D8
:1007F000C4D828688007F7D52868616920F0F80018
:1008000040EAC10028600DE0C6F80080FFF7FAFD5D
:10081000074604E0FFF7F6FDC01B022823D828682E
:100820008007F7D4207800072CD57948A169D9B181
:10083000C0F80090FFF7E6FD074604E0FFF7E2FD91
:10084000C01B02280FD8686A8007F7D571484FF49B
:10085000FA510068B0FBF1F0009000BF0098411E13
:100860000091FAD20EE080E0C0F80080FFF7CAFDE8
:10087000074604E0FFF7C6FDC01B022875D8686A6A
:100880008007F7D42078400760D5E8690027C000CA
:1008900008D4E86940F08050E861E869012700F079
:1008A000805000905C480168C90513D401688346F4
:1008B00041F480710160FFF7A5FD824606E000BFAC
:1008C000FFF7A0FDA0EB0A0064284ED8DBF800007B
:1008D000C005F5D5E06801280AD008B1052813D075
:1008E000286A20F001002862286A20F0040002E053
:1008F000286A40F001002862E06841F2883B98B124
:10090000FFF780FD82460BE0286A40F00400286271
:10091000EEE700BFFFF776FDA0EB0A0159455AD874
:10092000286A8007F6D50CE0FFF76CFD824605E0EB
:10093000FFF768FDA0EB0A0159454CD8286A8007EB
:10094000F6D41FB1E86920F08050E861E06988B30F
:100950006968C1F38101022944D00228C6F8608089
:1009600004D0FFF74FFD044638E034E0FFF74AFDBE
:10097000074604E0FFF746FDC01B02282BD8286875
:100980008001F7D4206AB0F5803F05D16868A1687E
:1009900020F4003008436860D4E90801084369681E
:1009A00021F4741108436860C6F86090FFF72AFDCF
:1009B000044606E025E000BFFFF724FD001B0228E7
:1009C00009D828688001F7D51BE000BFFFF71AFDA2
:1009D000001B022802D90320BDE8F88F2868800197
:1009E000F4D40EE00128F7D06868226A00F4803160
:1009F000914204D1616A00F47010884201D0012054
:100A0000EAE70020E8E70000001002400000424250
:100A100080044242440000200070004070B5040091
:100A200009D0606A002540B125616561A56294F82E
:100A3000510040B10CE0012070BD6068B0F5827FCC
:100A4000F4D0E561F2E784F85050204600F040F819
:100A5000022084F851002068016821F04001016003
:100A6000A088218900F4827001F404410843A1891F
:100A700001F400610843217C01F002010843217D5B
:100A800001F001010843218B01F400710843217F2B
:100A900001F03801084394F8201001F08001084368
:100AA000218D01F40051084321680860A0690421E8
:100AB00001EA1040216848602068C16921F40061A2
:100AC000C1616565012084F85100002070BD0000FF
:100AD00030B585B00024009401940294039400681A
:100AE0001449884223D11448816941F480518161BD
:100AF000816901F480510491816941F004018161AF
:100B000080690E4D00F004000490A02000900220A7
:100B100001900320039069462846FFF77DFB4020A3
:100B2000CDE90004694628460294FFF775FB05B03D
:100B300030BD0000003001400010024000080140BC
:100B40002DE9F84F044690F8500000271D46164640
:100B5000894601280DD04FF0010B84F850B0FFF703
:100B600051FC804694F85100BA46012804D002276F
:100B700093E00220BDE8F88FB9F1000F73D0002E8A
:100B800071D0032084F85100C4F854A0C4F8309008
:100B9000A686E686C4F838A0A4F83CA0A4F83EA037
:100BA000C4F844A0C4F840A0A068B0F5004F09D133
:100BB0002068016821F0400101602068016841F46B
:100BC0008041016020680168490603D4016841F052
:100BD00040010160E068B0F5006F606803D030B399
:100BE000012E24D041E008B1012E1CD1206B2168D8
:100BF0000088C86006E020688168890709D5216BF4
:100C00000988C160206B801C2063E08E401EE08656
:100C100009E0FFF7F7FBA0EB0800A84202D3681C2D
:100C200001D031E07DB3E08E0028E4D120E0206BDC
:100C300021680078087306E020688168890709D573
:100C4000216B09780173206B401C2063E08E401EED
:100C5000E0860AE0FFF7D6FBA0EB0800A84203D32A
:100C6000681C02D010E017E06DB1E08E0028E3D1DF
:100C700042462946204600F0ACFA08B120206065C3
:100C8000A06818B106E0FFE7032706E02068C16806
:100C900080680090606D00B1012784F851B084F83D
:100CA00050A0384666E72DE9F84F044690F850000A
:100CB00000270A9E1D4692468B464FF001090128E7
:100CC0000ED0012084F85000FFF79CFB804694F87A
:100CD0005100616801280CD0B1F5827F07D102E094
:100CE0000220BDE8F88FA16809B9042801D00227C5
:100CF000C2E0BBF1000F27D0BAF1000F24D01DB322
:100D000094F85100042802D0052084F851000020F6
:100D10006065C4F838A0E587A587C4F830B0E586DB
:100D2000A5862064606420680168490603D40168D0
:100D300041F040010160E068B0F5006F606805D0E7
:100D4000E8B3012D46D07FE0012795E008B1012DE1
:100D500039D1206B21680088C860206B801C20631B
:100D6000E08E401EE0862EE02068816889070FD55E
:100D7000E18E69B1B9F1010F0AD1216B0988C16017
:100D8000206B801C2063E08E401EE0864FF000093F
:100D900020688168C9070CD0E18F51B1C068A16B90
:100DA0000880A06B801CA063E08F401EE0874FF09E
:100DB0000109FFF727FBA0EB0800B04200E009E0C3
:100DC00001D3701C50D1E08E0028CDD1E08F0028D7
:100DD000CAD13FE0206B216800780873206B401C6B
:100DE0002063E08E401EE0862EE02068816889073F
:100DF0000FD5E18E69B1B9F1010F0AD1216B0978E4
:100E00000173206B401C2063E08E401EE0864FF093
:100E1000000920688168C9070CD0E18F51B1C06812
:100E2000A16B0870A06B401CA063E08F401EE087A0
:100E30004FF00109FFF7E6FAA0EB0800B04202D339
:100E4000701C01D010E07EB1E08E0028CDD1E08F83
:100E50000028CAD142463146204600F0BAF928B1EE
:100E600001272020606507E0032705E0A06818B986
:100E70002068C16880680090012084F8510000203B
:100E800084F8500038462CE710B5401EB0F1807F42
:100E900001D3012010BD4FF0E02460610F216017E5
:100EA00000F0D4FD0020A06107202061002010BDCB
:100EB00070B5040004D094F83900002510B106E0A4
:100EC000012070BD84F83850204600F023F824201B
:100ED00084F839002068C16821F40051C1602046BF
:100EE00000F0ECFA2068016921F49041016120686A
:100EF000416921F02A0141612068C16841F4005133
:100F0000C160E563202084F8390084F83A000020AD
:100F100070BD000030B585B00024009401940294A7
:100F2000039400681449884223D11448C16941F4EC
:100F30000031C161C16901F400310491816941F05E
:100F40000401816180690E4D00F0040004900420CA
:100F50000090022001900320039069462846FFF785
:100F60005BF90820CDE90004694628460294FFF7A2
:100F700053F905B030BD00000044004000100240AD
:100F8000000801402DE9F843044690F839001F4657
:100F900016460D4620284CD1C5B1BEB194F8380094
:100FA000012846D0012084F838004FF00008C4F82A
:100FB0003C80212084F83900FFF724FAA68481467A
:100FC000E684A068B0F5805F03D004E00120BDE8AE
:100FD000F883206928B12E465FF0000584F8388038
:100FE0000EE00026FAE78021204600F0C3FAA0B9FF
:100FF000AEB116F8010B21684860E08C401EE08419
:10100000E08C4B464FF0000200970028EBD14FF0E8
:101010004001204600F0AEFA30B10320D7E735F8A2
:10102000020BC0F30800E6E7202084F83900002016
:10103000CDE70220CBE7FEE710B504490448FFF7EF
:10104000B6F80249491E087010BD000031000020AA
:101050001C0000202DE9F04786B000263748009696
:10106000019602960396816941F0200181618169B0
:1010700001F020010491816941F0040181618169DD
:1010800001F004010491816941F0080181618169E5
:1010900001F008010491816941F0100181618069CA
:1010A000DFF89CA000F01000049001224FF48A6148
:1010B0005046FFF7A1F9DFF88C80012280214046DD
:1010C000FFF79AF9DFF880904FF440770122394614
:1010D0004846FFF791F94FF480600124CDE9000400
:1010E0000220CDE9024069465046FFF795F880207E
:1010F000CDE90004032569464046CDE90245FFF7E6
:101100008BF8CDE9007469464846CDE90245FFF702
:1011100083F82820CDE90006694602945046FFF77F
:101120007BF85020CDE9000469465046CDE90245E0
:10113000FFF772F806B0BDE8F0870000001002402B
:10114000000C01400010014000080140104810B59B
:101150000E4901604FF48271416000218160C160DD
:101160004FF400720161C0E905121822C0E907219D
:10117000416281620A21C162FFF750FC002803D05E
:10118000BDE81040FFF712B810BD0000003001406C
:10119000240700200C4810B50A4901604FF4E131E2
:1011A0004160002181600C22C160C0E904128161AC
:1011B000C161FFF77DFE002803D0BDE81040FEF7B7
:1011C000F5BF10BD004400407C070020FEE77047DB
:1011D000704738B50B46009204460022802100F08B
:1011E00025F8002804D0606D40F0200060650320E1
:1011F00038BD000010B50446FFF704F90146024867
:10120000C0E9011410BD00000400002010B5FFF774
:10121000F9F805494A688968801A884201D2012094
:1012200010BD002010BD0000040000202DE9F8438F
:101230001E46914688460446089DFFF7E3F8401B8A
:10124000351AFFF7DFF8074625480068C0F3CB30B2
:10125000684338E0701C37D0FFF7D4F8C01BA842B1
:1012600003D215B1009860B32CE02068416821F0EA
:10127000E00141606068B0F5827F0BD1A068B0F5F5
:10128000004F02D0B0F5806F04D12068016821F0D2
:1012900040010160A06AB0F5005F09D120680168D3
:1012A00021F4005101602068016841F4005101609F
:1012B000012084F85100002084F850000320BDE88C
:1012C000F8830025401E00902068816838EA0100FC
:1012D00004D000214945BDD10020F0E70121F9E704
:1012E000440000207047000010B501460024012290
:1012F000044801F03DF900B10224024801F0F6F87B
:10130000204610BD500400202DE9F0410F46044650
:10131000014600261A4801F0F5F968BB2046FEF7A1
:1013200013FF174D0446183D15491548183901F0AB
:10133000C3FA08BB687AF8B12E28F5D0287AC0061F
:10134000F2D4641C2819407A2E28FAD1192E11D211
:101350002819817A42290DD1C17A4D290AD1007B01
:10136000502807D1064A57F826000F3A05A100F089
:1013700059FB761C0024D7E73046BDE8F081000019
:1013800030040020252D31312E3131730000000052
:101390002DE9F04715468CB0884682460122294641
:1013A000684601F0E5F82E4B1E222E49684601F0F2
:1013B000EAF92C4841898289868B41EA02446846D1
:1013C00001F094F8182E03D000200CB0BDE8F0878F
:1013D00001222946684601F0CBF8214B22462149DB
:1013E000684601F0D0F9C6EB06111F20002500EB7E
:1013F000011040091B4E4FEA400906EB4007184B0D
:101400004A461849684601F0BEF93946144B4A4627
:10141000684601F0B8F908EB050081B2504602F0C9
:1014200031F8002404EB440080B23118305C8A7833
:101430004978D208D202890842EA411141EAD00033
:1014400002F0B6F8641CA4B2F02CEBD36D1CADB264
:10145000B5F5A07FD3D3684601F048F80120B4E782
:101460001400002058000020FEF7D2BF30B58FB026
:1014700028216846FEF75DFE14210AA8FEF759FEF2
:1014800001210804CDE900100024029402250491F2
:10149000CDE907504FF4E01009906846FFF72EF9A8
:1014A0000F20CDE90A056802CDE90C4002210AA807
:1014B0000E94FFF737F80FB030BD704770B5044693
:1014C00000680169E26821F440511143016121691A
:1014D000A0680843616908432168CA6841F20C6347
:1014E0009A430243CA6020684169A26921F44071AD
:1014F000114341611E492068884202D1FFF7B8F8C4
:1015000001E0FFF7A5F800EBC00101EB00126068F5
:1015100064218000B2FBF0F3B3FBF1F36FF0180627
:101520007343B2FBF0F5B2FBF0F605EB8305322313
:1015300003EB0515B5FBF1F5B6FBF1F605F0F0058B
:1015400005EB0615B2FBF0F6B2FBF0F0B0FBF1F0E4
:101550006FF01802504306EB800003EB0010B0FB65
:10156000F1F0216800F00F002844886070BD000091
:10157000003801402DE9F041984617460E460446D2
:10158000069D1DE0681C1BD02DB1FEF73BFFA0EBB4
:101590000800A84214D92068C16821F4D071C16044
:1015A0002068416921F001014161202084F839005F
:1015B00084F83A00002084F838000320BDE8F08168
:1015C0002068006836EA000004D00020B842D9D074
:1015D0000020F3E70120F9E72DE9F84310B10120DD
:1015E000BDE8F883444D287880077CD4DFF80C816F
:1015F0004FF48071D8F80000C1610A24FF2002F086
:1016000009FB641E14F0FF04F8D100263146304671
:1016100002F078F901285CD14FF47A70FFF7EAFD07
:101620004FF4D571082002F06DF9012808D000218F
:10163000A92002F067F9012836D80226A92435E04E
:101640006F46FF2002F0E6FA3855641CE4B2042C21
:10165000F7D39DF8020001283BD19DF80300AA288A
:1016600037D14407FFF7D2FD28B12146A92002F067
:1016700049F90028F6D1FFF7C9FD50B300213A20FF
:1016800002F040F928BB0024FF2002F0C3FA3855CD
:10169000641CE4B2042CF7D39DF80000400601D589
:1016A0000C2616E0042614E001263446FFF7AEFDB2
:1016B00028B10021204602F025F90028F6D1FFF7D5
:1016C000A5FD28B14FF40071102002F01BF900B104
:1016D00000266E7000F002FD4EB1D8F8000008211F
:1016E000C161287800E004E020F0010000E0012062
:1016F0002870287874E700000400002024070020E8
:101700007FB51446030002D0042004B070BD6B4EB8
:101710003078C00701D00320F7E7012561B1012926
:101720000DD066480329407848D004297ED004258E
:1017300000F0D4FC2846E8E702F09AF9BAE000216C
:10174000092002F0DFF80028F2D11021684602F0EB
:101750007BF80028ECD09DF800100120B0EB911F21
:101760000CD19DF809109DF8082001EB02229DF88C
:10177000071000EB0140104480021DE09DF80500B9
:101780009DF80A1000F00F0000EBD1109DF8091031
:101790009DF8072001F0030100EB41019DF80800CE
:1017A000800900EB82009DF8062002F0030200EBA6
:1017B0008220401CC91F3EE020607DE040074FF0C2
:1017C00000011AD58D2002F09DF80028B0D1FF202D
:1017D00002F020FA1021684602F036F80028A7D05F
:1017E0003025FF2002F016FA6D1E15F0FF05F8D126
:1017F0009DF80A00010910201DE0092002F082F87E
:10180000002895D11021684602F01EF800288FD0DC
:101810007078800711D59DF80A009DF80B1080069E
:10182000400E00EBD1109DF80D1000E013E0FF22F8
:1018300002EB9111401C8840BEE79DF80B00810728
:10184000C90E01EB50109DF80A10401CC1F3840131
:10185000491C4843B0E710F0060FC0D06A460B2180
:101860001846FFF74DFF0028B0D19DF80000800911
:1018700004D19DF80A0040067FF55AAFD4E9001460
:101880007078000701D449026402202002F03AF87F
:1018900000289BD12146212002F034F8002895D160
:1018A0000021262002F02EF800288FD147F2305078
:1018B00002F09DF9002892D0002539E704000020AD
:1018C00070B51C460D4630B92CB11C480178C907CB
:1018D00003D0032070BD042070BD4078000700D401
:1018E00052024FF40076012C114604D0122002F06F
:1018F00009F860B118E0112002F004F8C0B93146CF
:10190000284601F0A1FF98B100F0E8FB14E0314651
:10191000284601F099FF18B1641E05F50075F6D14F
:1019200000210C2001F0EEFF00F0D8FB14B903E019
:1019300000F0D4FB012070BD002070BD0400002029
:1019400008B101207047014800787047040000206A
:1019500070B51C4615460E4630B92CB122490878A0
:10196000C00703D0032070BD042070BD0878400775
:1019700001D5022070BD4878010700D45502012C22
:101980000CD010F0060F03D01946972001F0BAFFD3
:101990002946192001F0B6FF68B11AE0294618203F
:1019A00001F0B0FFD0B9FE21304602F043F9A8B1F2
:1019B00000F094FB15E0FC21304602F03BF918B131
:1019C000641E06F50076F6D1FD21002002F032F902
:1019D00020B100F083FB24B1012070BD00F07EFB3C
:1019E000FAE7002070BD000004000020FFF7F4BDFE
:1019F000FFF786BEFFF764BFFFF7A2BFFFF7A8BFE0
:101A0000FEE700000FB4054B10B503A9044A029885
:101A100000F03CF810BC5DF814FB0000852C0008B9
:101A2000180000200FB4084B10B504A902AA0398AF
:101A300000F02CF8044602A9002000F0C8F9204666
:101A400010BC5DF814FB0000CF1D00080907090E4B
:101A5000002804DB00F1E02080F80014704700F05B
:101A60000F0000F1E02080F8141D704702E008C864
:101A7000121F08C1002AFAD170477047002001E008
:101A800001C1121F002AFBD1704700002DE9FF4F52
:101A90008BB088460546002606E025280BD0DDE9F8
:101AA0000D1290476D1C761C28780028F5D10FB0D8
:101AB0003046BDE8F08F0024A146A2460122AE497F
:101AC00000E0044315F8013F203B02FA03F008420E
:101AD000F7D128782A2810D06FF02F022878A0F1AB
:101AE0003001092915D809EB890102EB410144F0C5
:101AF000020400EB01096D1CF0E758F8041B5FEAD3
:101B0000010903D544F40054C9F1000944F002046A
:101B10006D1C28782E2817D115F8010F44F0040405
:101B20002A280ED06FF02F022878A0F13001092961
:101B30000AD80AEB8A0102EB410100EB010A6D1C95
:101B4000F2E758F804AB6D1C28786C280FD006DC3F
:101B50004C2817D068280DD06A2814D104E07428C6
:101B600010D07A280FD10DE044F400140AE044F4B8
:101B7000801401E044F440146978814202D104F5F4
:101B800080146D1C6D1C2878692865D006DC00283F
:101B90008DD0632827D0642806D15DE06E2808D058
:101BA00073282AD0752877D0DDE90D129047761C6E
:101BB000E0E0C4F30250022809D003280DD0D8F881
:101BC000001004280DD00E6008F10408D2E0D8F807
:101BD0000010F217C1E90062F6E7D8F800100E8095
:101BE000F2E70E70F0E718F8041B8DF800100020E3
:101BF0008DF80100EB46012003E058F804BB4FF0DC
:101C0000FF3061074FF0000701D40AE07F1C574501
:101C10000DDA8742FADB1BF807100029F6D106E03F
:101C20007F1C8742FCDB1BF807100029F8D1DDE997
:101C30000D23A9EB07008146214600F0B1F830449E
:101C4000C61904E0DDE90D121BF8010B90477F1E59
:101C5000F8D22146484688E058F8040BC4F30251F4
:101C60004FF00A0B032900D100B2042900D140B281
:101C7000002802DA40422D2102E0210505D52B2162
:101C80008DF82410012104E006E0E10710D02021A6
:101C9000F6E708AF089113E058F8040BC4F30251BB
:101CA0004FF00A0B032900D180B2042900D1C0B241
:101CB0000021EEE75946FEF74EFA303107F8011DD4
:101CC0000028F7D1ADEB070000F1200B600702D52B
:101CD00024F4803401E04FF0010ADA4502DDAAEB7A
:101CE0000B0000E00020824600EB0B010898014445
:101CF000A9EB01000A90E00306D4DDE90D2321469B
:101D00000A9800F04DF806444FF0000908E009A9D0
:101D100011F80900DDE90D12904709F10109761C5F
:101D200008998945F3DBE0030CD5DDE90D23214655
:101D30000A9800F035F8064404E0DDE90D12302081
:101D40009047761CBAF10001AAF1010AF5DC05E022
:101D5000DDE90D1217F8010B9047761CBBF100016D
:101D6000ABF1010BF4DC0A982146DDE90D2300F00C
:101D700005F806446D1C97E6092801002DE9F0419D
:101D8000044600251E461746880404D405E039465B
:101D90002020B0476D1C641EF9D52846BDE8F081AF
:101DA0002DE9F041044600251E469046C80301D5A2
:101DB000302700E02027880404D505E04146384656
:101DC000B0476D1C641EF9D52846BDE8F0810A684D
:101DD000531C0B601070704710B50446002084F847
:101DE0000402401EC4F82C02204601F095FC08B104
:101DF000032010BDB4F8FE01A0F52A41553901D0E9
:101E0000022010BD94F83600B4F8371040EA0121E2
:101E10000848B0EB012F08D094F85210B4F85320C2
:101E200041EA0221B0EB012F01D1002010BD0120B9
:101E300010BD000000464154F0B50022164B144678
:101E400002EB420653F826506DB10768BD420BD134
:101E500003EB860586686F68B74205D12D89C68871
:101E6000B54204D000E00124521C022AE8D3022A21
:101E700001D079B904E05CB9022909D01220F0BD83
:101E800002EB420003EB80004089B0F5807F01D077
:101E90000020F0BD1020F0BDBC07002030B50021AF
:101EA000064A0C4601EB410352F82350854201D10A
:101EB00042F82340491C0229F4D330BDBC0700205E
:101EC000426A0068490A90F80202B1FBF0F0121D64
:101ED00002CA19B1884203D3401AF8E700207047BC
:101EE000116808447047D0F81422891E921E8A4255
:101EF00001D800207047D0F8282290F8020201FB98
:101F0000002070472DE9F0410F00054606D000F093
:101F1000C5FE02280BD20120BDE8F081D5F80C6285
:101F20001EB1D5F81402B04208D8012606E0411CC3
:101F3000F2D0D5F814128142EED83E463446D5F898
:101F40001402641CA04202D80224022E0AD32146A5
:101F5000284600F0A3FE38B1411CDDD00128DBD0BB
:101F6000B442ECD10020D7E76FF0704221462846FA
:101F700001F0EDFB30B957B122463946284601F051
:101F8000E6FB20B1012812D001242046C4E7C5F8A1
:101F90000C42D5F81002411CF7D0401EC5F81002C3
:101FA00095F8050240F0010085F80502EDE74FF0D5
:101FB000FF34EAE72DE9F04789460C6800E0641C2D
:101FC00021782F29FBD05C29F9D085690B222021AB
:101FD000284601F09AFB002001460B460826E25CE9
:101FE0005B1C202A2FD92F2A2DD05C2A2BD02E2AF9
:101FF00001D0B04208D3082E32D12E2A30D1082089
:102000000B268906090EEAE7802A29D220A700E0DC
:102010007F1C97F800C0BCF1000F02D09445F7D1A7
:102020001EE0A2F14107192F02D841F0020107E09A
:10203000A2F16107192F03D8203A41F00101D2B271
:102040002A54401CCBE71C44C9F80040202A01D880
:10205000042200E0002218B12878E52803D004E02B
:102060000620BDE8F08705202870082E01D18806DB
:10207000010E01F00300012801D142F01002C1F36A
:102080008100012801D142F00802EA720020E8E74D
:10209000222A2B2C3A3B3C3D3E3F5B5D7C7F00007F
:1020A000401E022815D20C4B00EB400203EB8201CC
:1020B0004889B0F5807F05D008B1401E80B24881C4
:1020C00010B104E00020FAE7002043F822000020CD
:1020D0007047022070470000BC07002010B50122A5
:1020E00091020448FEF788F9BDE81040FF2001F096
:1020F00091BD0000000C01402DE9F041C688044666
:10210000761C30040F46000C2FD0206968B33107CD
:1021100063D1401C2061E168206831B190F802224F
:10212000521E12EA161F05D057E0B0F80802B0425E
:102130001BD952E000F0B2FD054601281AD9681CEF
:1021400032D02068D0F81412A94240D86FB1E168AB
:10215000FFF7D8FE05000BD0012D0BD0681C23D053
:10216000206801F000FDF8B906E00420BDE8F08128
:102170000720FBE70220F9E74FF4007200212068F6
:1021800001F0C3FA29462068FFF7ADFE2168002759
:102190004FF00108C1F82C020FE000BF80F8048264
:1021A000206801F0E0FC08B10120DFE72068D0F8EA
:1021B0002C12491C7F1CC0F82C12206890F80212C7
:1021C000B942EBD8D0F82C12C91BC0F82C12E5602C
:1021D00029462068FFF787FE2061E680206806F028
:1021E0000F0100EB411060610020BFE770B50446AD
:1021F0000D46042020E0206801F08EFA08BB6169DA
:102200000A78AAB1C97AE52A01F03F010AD02E2A3C
:1022100008D00F2906D021F0200108290AD000217A
:10222000A94210D000212046FFF766FF20B108E048
:10223000042006E00121F3E721690029DBD1002811
:1022400001D00021216170BD70B50446002100F06D
:102250002FF80DE02169206801F05EFA50B960693D
:102260000078E52809D040B101212046FFF744FF5E
:102270000028EFD0042807D007E02169206801F08A
:102280004BFA050003D010E0072005460DE02022A0
:102290000021606901F039FAD4E905010B2201F04F
:1022A0002BFA2168012081F80402284670BD000045
:1022B00070B5C18083680D460446012B3AD0206872
:1022C000D0F81412994235D933B990F80012032985
:1022D00006D1D0F824321BB190F80202060114E0B6
:1022E000B0F80812A94225D9D0F8240213E000BFA3
:1022F00000F0D4FC0346401C1AD0022B1AD32068ED
:10230000D0F81402984215D9AD1B2068B542194681
:10231000EED2FFF7E8FDE36060B100EB151020613D
:10232000206805F00F0100EB41106061002070BDD6
:10233000012070BD022070BD084910B50B5C002261
:1023400053B901220A540A1801EB8000127A40683E
:102350000168104688470246104610BDD407002089
:1023600030B4054C231804EB80001B7A40680469E4
:102370001846A44630BC6047D407002030B4054D51
:102380002C1805EB8000247A406885682046AC460E
:1023900030BC6047D4070020044A111802EB8000CB
:1023A000097A40684268084610470000D4070020B8
:1023B00030B4054D2C1805EB8000247A4068C568C0
:1023C0002046AC4630BC6047D40700208AB00020CD
:1023D000099025A101A800F095F94FF4784548B17E
:1023E0000D284FF01003009531D020A2302100209D
:1023F00000F0F4FD22491CA0FEF786FF06460146C8
:1024000020A0FFF7FFFA1E4F01244FF47A7800BF97
:1024100007EB84001FA150F8042C2148FFF702FBB2
:1024200009A91F48FEF760FFA0B101284FF0100373
:10243000009515D01BA25021002000F0CFFD641C98
:10244000B44200D901244046FDF7D4FEE0E71CA2C7
:102450002021CCE70021124A0846FEF799FFEEE75B
:102460001DA24021E8E700002F00000053445F4315
:102470004152445F4F50454E5F4641494C00000079
:102480007C04002066696C65736E756D626572739D
:1024900020256400252D31312E31317300000000DC
:1024A0001007002053445F434152445F46494C4566
:1024B0005F4E4F545F535550504F525445440000A7
:1024C00053445F434152445F4E4F545F464F524D19
:1024D000415454454400000053445F434152445F1B
:1024E0004E4F545F464F554E4400000010B5044611
:1024F00000F009FA00280BD1204601F064FB002807
:1025000006D1A06AFFF7CCFD002801D1002121608F
:1025100010BD00002DE9F74181B09046029800906F
:10252000684600F044FC040003D50B2004B0BDE86D
:10253000F0810E4E002756F8245025B12846FFF7AB
:10254000ADFC85F800720198002801D080F8007277
:1025500046F8240002D0B8F1010F01D00020E5E7D1
:10256000002202A901A800F00BFADFE74C000020CE
:102570002DE9F7478BB006000ED04FF0000802F0AF
:102580001F0727F001020CA96846C6F8008000F07A
:10259000F7F9040004D0AFE009200EB0BDE8F087E1
:1025A00008A8069068460C9900F016FB059D0400EB
:1025B0000BD11DB1780803D0012102E0062404E00C
:1025C00000216846FFF738FC044617F01C0F5FD067
:1025D0004FF0010AD4B1042C13D10020484902E085
:1025E000401C022805D200EB400251F82220002AAC
:1025F000F6D1022804D06846FFF726FE044600E024
:102600001224059D47F0080754B175E0E87A10F0F0
:10261000110F01D007246FE0780701D508246BE083
:10262000380743D500F09BFBA873010AE973010C3E
:102630002974000E687485F80B8085F81C8085F875
:102640001D8085F81E8085F81F802946009800F0BF
:10265000D9FF81460021284601F022FA0099B9F1FC
:10266000000F81F804A21FD000984946D0F82CA290
:1026700001F011F904003FD10099A9F10100C1F85E
:102680000C025146009801F047F804000AD033E0EC
:1026900094BBE87AC10601D504242DE0B90701D521
:1026A000C007B7D1380701D547F020070098D0F808
:1026B0002C02C6E90705780801D0012100E00021BD
:1026C000684600F093FBB062C0B1B77186F807802E
:1026D00047462946009800F095FF3061287FD5F8DD
:1026E0001D1040EA0120C6E90270B76177620098C8
:1026F0003060B0F80602B08020464EE70224FBE7C7
:10270000BC07002073B584B0050009D0002205A9DC
:10271000684600F035F904004FF0000603D02FE0C2
:10272000092006B070BD0098286001A8A86128465D
:10273000059900F051FA040012D1696931B1C87AE3
:10274000C0061CD5009800F05DFFA860009800212D
:10275000B0F80602A8802846FFF7AAFD040002D0C0
:10276000042C0CD00CE0A86838B10021284600F0F9
:102770003DFBE86128B9122402E0EE6101E0052486
:102780002E602046CDE72DE9F84F894600219A4674
:1027900015460446196001F016FA002810D1E079B8
:1027A00000280DD1A079C00709D0D4E90210401A41
:1027B00001274FF0020885427AD9054678E00720C4
:1027C000BDE8F88FA168C8054FD1206890F80222B3
:1027D000521E02EA512212F0FF0610D129B1626A9C
:1027E0002AB12046FFF76CFB04E0206902E0616932
:1027F00000F054FA02281FD3411C43D06061616984
:102800002068FFF770FBB8B130440090680A5FEAB7
:10281000000B28D0206806EB0B0290F802128A42C7
:1028200001D9A1EB060B90F801025B464946009ADC
:10283000FFF7A4FD30BB03E084F807800220BFE768
:10284000216891F8040258B1D1F82C220098101A8E
:10285000584505D209EB40204FF4007200F04CFFC0
:102860004FEA4B261AE00098A0612089C0F30800C7
:10287000C0F50076AE4200D92E46A169206800F06E
:102880004BFF10B1E77101209AE721892068C1F35D
:10289000080101443246484600F02EFFA068B144CA
:1028A0003044A060DAF800008119AD1BCAF80010AE
:1028B000002D87D1002083E7FEB50E46044601F0C7
:1028C00082F9002817D1BEB1C4F818D000212046E3
:1028D000FFF78CFC0025042813D000280BD13146CB
:1028E000204600F03EFA00212046FFF705FC0428B0
:1028F00001D100202561FEBD00212046FFF7D8FC54
:10290000FEBD2561EBE770B5044601F05CF90028D7
:1029100035D1A179890632D5E169206800F0FCFE45
:1029200000282CD1256AE87A40F02000E872207B4C
:102930002877A089000A6877E068000CA877E0682B
:10294000000EE8772846216901F0AAF800F007FA9E
:10295000A875010AE975010C2976000E6876002039
:10296000A874E874A07920F02000A07121680120EB
:1029700081F804022068BDE8704001F099B870BD8C
:102980002DE9FF474FF000090746C0F800901646B2
:10299000084600F00CFA050003D50B2004B0BDE892
:1029A000F0878A4850F82540A4B13C6094F80002B2
:1029B00028B194F80102FFF7EFFCC1070CD084F8AE
:1029C0000092E8B284F80102FFF7B6FCC10708D014
:1029D0000320E3E70C20E1E70EB1400704D4002018
:1029E000DCE71EB1400701D50A20D7E700252946BC
:1029F0002046FFF7F1F9012823D100204FEA0D0707
:102A000004EB001191F8C22101F5DF712AB10A7AB5
:102A1000D1F8091042EA012100E0002147F8201016
:102A2000401C0428ECD3002657F826502DB1294627
:102A30002046FFF7D1F908B909E00220761C042EE0
:102A4000F2D3032801D0E0BB01E00120A6E7B4F8EF
:102A50000B00B0F5007F60D1E28A2AB994F8240017
:102A6000D4F8251040EA0122C4F81822217C84F809
:102A70000312012901D002294FD1607B514384F810
:102A80000202F0B1431E184247D1B4F81130A4F845
:102A900008321E0741D1B4F813602EB994F82060B3
:102AA000D4F8217046EA0726B4F80EC0BCF1000F36
:102AB00033D00CEB010707EB1317BE422DD3F61BE7
:102AC00000E02AE0B6FBF0F038B3012640F6F678D5
:102AD000404500D302264FF6F678404500D3032642
:102AE000801C2F44C4F82872AC44C4F81402C4E912
:102AF000875C032E13D083B16144C4F82412022EE4
:102B000019D000F0010100EB400001EB500000BFC4
:102B100000F2FF10B2EB502F0FD20D203EE7002B3A
:102B2000FBD194F82C10D4F82D30800041EA032119
:102B3000C4F82412ECE74000EAE74FF0FF30C4F895
:102B40001002C4F80C02802084F80502032E30D154
:102B5000208E01282DD12046691C00F0DDFD40BBF0
:102B600084F80592B4F8FE01A0F52A41553920D128
:102B70002078D4F8011040EA01201549884218D184
:102B800094F8E401D4F8E51140EA012011498842A3
:102B90000FD194F8E801D4F8E91140EA0120C4F813
:102BA000100294F8EC01D4F8ED1140EA0120C4F8C9
:102BB0000C02064984F80062091F0888401C08803E
:102BC000A4F806022046FFF769F908E74C00002048
:102BD000525261417272416173B50446019908789D
:102BE0002F2801D05C2801D1491C01910025A56046
:102BF00001980078202805D200212046FFF758FBD5
:102C000065617CBD01A92046FFF7D4F90028F8D101
:102C100000212046FFF74CFBF8B92169206800F03D
:102C20007BFDD0B961690A782AB1CA7A12070ED43D
:102C30000A23A26903E004200FE05B1E06D311F80B
:102C4000015B12F8016BAD1BF7D000E02DB1002144
:102C50002046FFF751FA0028DFD0A169C97A28B1D0
:102C60000428CED14907CCD405207CBD4907FCD42B
:102C70006169C87AC006F7D5206800F0C3FCA0607F
:102C8000C0E7000013B54FF6FF7301226946024802
:102C9000FEF778F900981CBD7C0700202DE9F04173
:102CA0000D46044602290DD3D4F81402A84209D9CE
:102CB00094F800024FF0FF36012807D002282AD0EE
:102CC000032836D001263046BDE8F081D4F8200232
:102CD00005EB550700EB5721204600F01DFD0028AD
:102CE000F1D1C7F308007F1C14F80080D4F820024B
:102CF00000EB5721204600F00FFD0028E3D1C7F379
:102D00000800215C48EA0120E90701D00609DAE75A
:102D1000C0F30B06D7E7D4F8200200EB15212046BC
:102D200000F0FAFC0028CED1E8B204EB400006889F
:102D3000C9E7D4F8200200EBD511204600F0ECFCE6
:102D40000028C0D140F2FF1000EA8500204401783D
:102D5000D0F8010041EA002020F07046B3E70020DF
:102D6000704730B5036901F10902EBB140690023F6
:102D70002E25C45C5B1C202C08D0052C00D1E5243A
:102D8000092B01D102F8015B02F8014B0B2BF0D3A8
:102D9000C37A0B72037FD0F81D4043EA04230B6013
:102DA000038B8B80C08AC8800020107030BD10B5A6
:102DB00004464FF0FF302268002A13D0114600E08D
:102DC000491C0B78212B0ED33A2BF9D112F8013B79
:102DD000303B0A2B06D28A4204D1002B02D1491C77
:102DE0001846216010BD002010BD0000F0B503465C
:102DF000234AD3F80040002000EB400552F825603C
:102E0000A64209D102EB85059E686F68B74203D1DF
:102E10002D89DE88B54202D0401C0228ECD302285E
:102E200018D1002002E0401C022805D200EB40052A
:102E300052F82550002DF6D1022813D000EB4005A2
:102E400042F8254002EB85049E686660DB8823819A
:102E500000236381002900EB400102EB81014989D5
:102E600002D019B10020F0BD491C01E04FF480717F
:102E700000EB400302EB8302401C5181F0BD0000D7
:102E8000BC0700202DE9FC41010A8DF80400294807
:102E90008DF80010284F4178284E4FF496354FF4A6
:102EA0000074522922D00021084600F0EBFA0021DC
:102EB000222000F04DFB012221463846FDF79CFA06
:102EC000002240213046FDF797FA0024FF2301221B
:102ED00069461B48FDF734FEFF23012201A918486B
:102EE000FDF72EFE641CAC42F0D31CE0007800F02D
:102EF0004DFD012221463846FDF77EFA0022402191
:102F00003046FDF779FA0024FF23012269460C4878
:102F1000FDF716FEFF23012201A90948FDF710FE67
:102F2000641CAC42F0D3012240213046FDF764FA24
:102F3000BDE8FC810000002000080140000C0140B9
:102F4000240700202DE9FF5F1F460C468346894673
:102F50000025DDF838A039E00C2F02D0102F0CD05E
:102F600014E002981B4900EB400001EB800028446C
:102F7000A0F5805090F8806E08E01749029801EBA8
:102F800000102844A0F5805090F8006E4FF0000823
:102F9000300604D552462146584600F04BF87006DC
:102FA000641C060EA4B2A4EB0900B84205D10BF1D3
:102FB00001004C461FFA80FB06E008F1010000F01A
:102FC000FF08B8F1080FE3D36D1CEDB2BD42C3D3C7
:102FD000BDE8FF9F843C0008F84000082DE9F84F49
:102FE00006461D46F02014468846A0EB5507C3F55B
:102FF000A079DDF828A018E0B7420AD208EB050056
:1030000000261FFA80F8C14503D2B0464046FFF7BC
:1030100039FFCDF800A022782B4641463046FFF715
:1030200091FF06EB550086B2641C20780028E3D19E
:10303000BDE8F88F10B50A4B14465A78522A0AD0C8
:1030400000F020FA0021222000F082FA2046BDE89C
:10305000104000F0ADBA00F015FA00212C20F3E783
:103060000000002010B501224021EB48FDF7C4F913
:1030700001228021E948FDF7BFF900F0D3F9E849C2
:10308000522848704FF000017DD0EA2000F084FA09
:103090002021EB2000F080FA0C21EC2000F07CFADB
:1030A000C421ED2000F078FA3821E82000F074FA0D
:1030B0001021E92000F070FA0121F12000F06CFAF3
:1030C0001021F22000F068FA0121402000F064FA9B
:1030D0000021412000F060FA0021422000F05CFA5B
:1030E0001021432000F058FA0E21442000F054FA39
:1030F0002421452000F050FA0421462000F04CFA2B
:103100005021472000F048FA0221482000F044FAFC
:103110001321492000F040FA19214A2000F03CFA1E
:1031200019214B2000F038FA16214C2000F034FA17
:103130001B21502000F030FA3121512000F02CFAF0
:103140002F21522000F028FA3F21532000F024FACA
:103150003F21542000F020FA3E21552000F01CFAB7
:103160002F21562000F018FA7B21572000F014FA86
:103170000921582000F010FA0621592000F00CFA1D
:1031800006215A2000E077E000F006FA0C215B20CF
:1031900000F002FA1D215C2000F0FEF9CC215D2038
:1031A00000F0FAF91B21084600F0F6F901211A2077
:1031B00000F0F2F92F21242000F0EEF9572125200C
:1031C00000F0EAF98821232000F0E6F934211820E4
:1031D00000F0E2F90121192000F0DEF900210120C0
:1031E00000F0DAF988211F2000F0D6F980211F2095
:1031F00000F0D2F990211F2000F0CEF9D0211F203D
:1032000000F0CAF90521172000F0C6F90221362086
:1032100000F0C2F93821282000F0BEF93F21282013
:1032200000F0BAF91821162000F0B6F900210220AA
:1032300000F0B2F90021032000F0AEF900210420D3
:1032400000F0AAF9EF21052000F0A6F900210620E0
:1032500000F0A2F90021072000F09EF901210820CA
:1032600000F09AF93F21092000F096F9BDE81040DE
:103270004FF6FF70FFF706BE112000F069F96420D9
:10328000FCF7B8FF0021362000F086F955213A20DE
:1032900000F082F90021B22000F05AF901210C203F
:1032A00000F056F901210C2000F052F90121002014
:1032B00000F04EF90121332000F04AF901213320BA
:1032C00000F046F93521B72000F066F92821BB202F
:1032D00000F062F93C21C02000F05EF90121C2201B
:1032E00000F05AF90B21C32000F056F92021C42028
:1032F00000F052F90F21C62000F04EF90021D02035
:1033000000F026F90121A42000F022F90121A120DA
:1033100000F01EF90021E02000F01AF90121D02070
:1033200000F016F90121084600F012F901210820E9
:1033300000F00EF901210F2000F00AF901211120FF
:1033400000F006F901212A2000F002F901213620BF
:1033500000F0FEF80121552000F0FAF80121442088
:1033600000F0F6F801213A2000F0F2F801210B20DC
:1033700000F0EEF80121062000F0EAF8012111200A
:1033800000F0E6F80121202000F0E2F80021E12021
:1033900000F0DEF80121D02000F0DAF8012102204F
:1033A00000F0D6F80121072000F0D2F801210A2010
:1033B00000F0CEF801210B2000F0CAF801211820FE
:1033C00000F0C6F80121342000F0C2F801214320AA
:1033D00000F0BEF801214A2000F0BAF801212B20AC
:1033E00000F0B6F801211B2000F0B2F801211C20EA
:1033F00000F0AEF80121222000F0AAF801211F20E0
:1034000000F0A6F8B021552000F0C6F800212920D0
:1034100000F09EF82AE70000000C01400010014077
:10342000000000201FB5DC208DF804000020124CA5
:103430008DF80800024640212046FCF7DDFF0022FF
:1034400061150E48FCF7D8FFFF23012201A90C48A3
:10345000FDF776FBFF200090012303AA02A908488C
:10346000FDF721FC012240212046FCF7C5FF9DF815
:103470000C0004B010BD0000000C01400008014029
:10348000240700202DE9F041054630480C46270A64
:1034900041782E0A522922D03146022000F07CF8D1
:1034A000E9B2032000F078F83946062000F074F8FD
:1034B000E1B2072000F070F83146022000F06CF80D
:1034C000E9B2032000F068F83946062000F064F8FD
:1034D000E1B2072000F060F8002122201EE0007811
:1034E00001281FD003281DD000212A2000F030F829
:1034F0000121002000F02CF8E8B2012100F028F8AA
:1035000000212B2000F024F80121384600F020F89B
:10351000E0B2012100F01CF800212C20BDE8F041B0
:1035200000F016B800212A2000F012F801213046E0
:1035300000F00EF8E8B2012100F00AF800212B207B
:1035400000F006F801210020E0E700000000002064
:1035500013B50E484FF4007309B1012200E00022B8
:103560001946FCF749FF0A4C002240212046FCF78F
:1035700043FFFF23012269460648FDF7E1FA0122D5
:1035800040212046FCF738FF1CBD00000008014028
:10359000000C01402407002010B50C460021FFF765
:1035A000D7FF2046BDE810400121FFF7D1BF000042
:1035B0001CB5010A8DF800108DF80400012251029B
:1035C0000D48FCF719FF0D4C002240212046FCF766
:1035D00013FFFF23012269460948FDF7B1FAFF23D3
:1035E000012201A90648FDF7ABFA0122402120463D
:1035F000FCF702FF1CBD000000080140000C014068
:10360000240700200246488B92F80022032A02D1A8
:10361000898A40EA0140704708B50024FCF700FFA2
:10362000FDF724FFFDF716FDFDF790FDFDF7B2FD58
:10363000FDF702FDFFF716FD00220DA10D48FEF774
:1036400069FF48B14FF47840102300900AA2194650
:103650000020FFF7C3FC09E0064D643D0D2000F09B
:1036600015F845F82400641C192CF7D3FEF7AEFEBC
:103670002F000000E004002046415446535F4E4FA7
:10368000545F4D4F554E544544000000F0B50B308B
:10369000154D20F007010024144A0FE003688B4207
:1036A0000BD38B4205D95E1A43184768C3E90067FC
:1036B00000E04368136002C004E0021D10680028A7
:1036C000ECD12046002802D1286808B10020F0BDC6
:1036D000064A07481060074A121A22F00702C0E99A
:1036E000002401202860D7E754000020500000206B
:1036F000E4070020E009002004E000BF11F8013BCE
:1037000000F8013B521EF9D27047C9B201E000F83F
:10371000011B521EFBD2704770B50546D0F82C0233
:103720000C460026A04210D0284600F01CFA0600E5
:103730000BD195F80102012322462946FEF71EFE11
:1037400008B1741E0126C5F82C42304670BD2DE923
:10375000F04717460D460446022903D3D4F8140255
:10376000A84202D80220BDE8F08794F8001207F0C2
:10377000FF084FF00109012920D0022950D0032968
:10378000F0D1D4F8200200EBD5112046FFF7C4FF9A
:103790000028E8D140F2FF1101EA85010A194FF033
:1037A0007043D2F8011003EA0121394311700B0A6A
:1037B00053700B0C9370090ED17041E0D4F82002C5
:1037C00005EB550600EB56212046FFF7A5FF002824
:1037D000C9D1C6F30800761C2044E90703D001785C
:1037E00068F31F1100E03946017084F80492D4F8A0
:1037F000200200EB56212046FFF78EFF0028B2D1B1
:10380000C6F308012144EA0702D0C7F3071205E016
:103810000A78C7F3032302F0F0021A430A700FE09C
:10382000D4F8200200EB15212046FFF775FF002891
:1038300099D1E9B204EB41013A0A81F800804A705B
:1038400084F804928FE7000070B505460C46C82046
:10385000FDF7D0FCFF2000F0DDF9FF2803D0FE28A3
:1038600006D0002070BDFDF7D1FC0028F2D1F8E7AA
:103870002646002404E000BF00F0CCF92855641C63
:10388000B4424FF0FF00F7D300F0C4F9FF2000F07E
:10389000C1F9012070BD2DE9F0410F46064602290D
:1038A00017D3D6F81402B84213D9002523E03946BD
:1038B0003046FFF7F3F9040021D0012C09D0601C39
:1038C00009D0002239463046FFF741FF050016D1E6
:1038D00003E0022513E0012511E0D6F81002411C97
:1038E00008D0401CC6F8100296F8050240F001000E
:1038F00086F805022746D6F81402B842D7D82846DB
:10390000BDE8F08170B504460D46000607D504F009
:103910007F0400213720FFF7F5FF012822D80C2C67
:1039200004D0FEF7DBFB00F0A3F8D0B144F0400078
:1039300000F070F9280E00F06DF9C5F3074000F0B3
:1039400069F9C5F3072000F065F9E8B200F062F903
:10395000012044B1082C08D000F05CF90C2C12D0E6
:1039600006E0FF2070BD952000E0872000F052F9AE
:103970000A24FF2000F04EF90106F3D5641E14F06E
:10398000FF04F6D170BDFF20F0E70000374810B506
:103990004178522969D10078C0B3012838D0022873
:1039A00038D0032861D1A0213620FFF7F5FD002192
:1039B0002A20FFF7CDFD01210020FFF7C9FD0121DD
:1039C0000020FFF7C5FD01210846FFF7C1FD0121D9
:1039D0003F20FFF7BDFD00212B20FFF7B9FD01219E
:1039E0000020FFF7B5FD01210020FFF7B1FD012107
:1039F0000020FFF7ADFD01215FF0EF00FFF7A8FD0C
:103A00000021BDE810402C20FFF7A2BD002102E0FC
:103A10006021C9E7C0213620FFF7BEFD00212A2022
:103A2000FFF796FD01210020FFF792FD0121002004
:103A3000FFF78EFD01210020FFF78AFD0121EF2015
:103A4000FFF786FD00212B20FFF782FD01210020DA
:103A5000FFF77EFD01210020FFF77AFD01210846D6
:103A6000FFF776FD01213F20C8E710BD00000020D0
:103A700010B500224FF480610848FCF7BDFCFF2020
:103A800000F0C8F84FF4FA7000F0B1F808B1012066
:103A900010BDFEF723FB002010BD0000000C01400C
:103AA00081760A0AC2760A0C0275090E41757047C2
:103AB00070B5044600F057F8050052D194F80002A2
:103AC000032846D194F80502012842D14202002180
:103AD0002046FFF71AFE552084F8FE01AA2084F83C
:103AE000FF015220207060706120A0704121E170C0
:103AF000722284F8E42184F8E52184F8E61184F840
:103B0000E701D4F8100284F8E801010A84F8E91109
:103B1000010C84F8EA11000E84F8EB01D4F80C02D1
:103B200084F8EC01010A84F8ED11010C84F8EE111F
:103B3000000E84F8EF01D4F81C220123521CC4F8B3
:103B40002C2294F801022146FEF732FC002084F872
:103B50000502002294F801021146FEF701FC00B1B3
:103B60000125284670BD2DE9F041044690F8040275
:103B7000002728B3D4F82C5294F8010201232A46D6
:103B80002146FEF715FC08B1012719E0002084F852
:103B90000402D4F82002D4F81812281A88420FD24E
:103BA00094F803620AE0D4F818020123054494F85B
:103BB00001022A462146FEF7FBFB761E022EF2D2B8
:103BC0003846BDE8F08110B578B1016869B191F867
:103BD000002252B1B1F806228088824205D191F8C4
:103BE0000102FEF7D9FBC00700D0092010BD70B557
:103BF0000546FCF707FC0446FF2000F00BF8FF2801
:103C000006D0FCF7FFFB001BA842F5D3002070BDD7
:103C1000012070BD01B582B032200090012301AABD
:103C200002A90348FDF73FF89DF804000EBD00000F
:103C30002407002070B505460C464FF4FA70FFF7D4
:103C4000D6FF00281BD02046FFF7E4FFFD2C17D03D
:103C50004FF400760024285DFFF7DCFF641CB442BB
:103C6000F9D3FF20FFF7D6FFFF20FFF7D3FFFF2098
:103C7000FFF7D0FF00F01F00052801D0002070BD25
:103C8000012070BD000000000000000000000000E6
:103C9000000000003F400000000000000000300075
:103CA000400030004000000009000BC03D000BC088
:103CB0003D00090018C024407FE022403180000010
:103CC000180024C01B000D803240018003801C407E
:103CD00027401C80074000401000600000000000EA
:103CE000000000000000000000001F802040402075
:103CF0000000402020401F80000000000900060056
:103D00001F80060009000000040004003F8004003A
:103D1000040000000010006000000000000000002F
:103D2000040004000400040004000000000000403F
:103D30000000000000000000002001C00600380064
:103D4000400000001F802040204020401F800000D5
:103D5000000010403FC000400000000018C021409B
:103D6000224024401840000010802040244024407D
:103D70001B80000002000D0011003FC00140000048
:103D80003C80244024402440238000001F802440A5
:103D900024403440038000003000200027C0380059
:103DA000200000001B802440244024401B80000091
:103DB0001C0022C0224022401F80000000000000A2
:103DC0000840000000000000000000000460000047
:103DD00000000000000004000A00110020804040A4
:103DE0000900090009000900090000000000404026
:103DF000208011000A000400180020002340240045
:103E0000180000001F802040274029401F4000006C
:103E1000004007C039000F0001C0004020403FC0F3
:103E2000244024401B8000001F8020402040204070
:103E30003080000020403FC0204020401F80000014
:103E400020403FC024402E4030C0000020403FC0F2
:103E500024402E00300000000F001080204022403F
:103E60003380020020403FC0040004003FC02040D7
:103E7000204020403FC02040204000000060202023
:103E800020203FC02000200020403FC024400B00E5
:103E900030C0204020403FC020400040004000C0D3
:103EA0003FC03C0003C03C003FC0000020403FC07A
:103EB0000C4023003FC020001F80204020402040B5
:103EC0001F80000020403FC0244024001800000054
:103ED0001F802140214020E01FA0000020403FC063
:103EE0002440260019C0004018C02440244022402D
:103EF00031800000300020403FC0204030000000F2
:103F000020003F80004000403F80200020003E0015
:103F100001C0070038002000380007C03C0007C07F
:103F200038000000204039C0060039C020400000A1
:103F30002000384007C0384020000000304021C039
:103F40002640384020C00000000000007FE04020F4
:103F500040200000000070000C00038000400000C2
:103F60000000402040207FE0000000000000200012
:103F700040002000000000000010001000100010A1
:103F800000100010000000004000000000000000D1
:103F9000000002800540054003C0004020003FC0F3
:103FA00004400440038000000000038004400440FB
:103FB0000640000000000380044024403FC0004051
:103FC000000003800540054003400000000004405D
:103FD0001FC0244024402000000002E0055005508E
:103FE0000650042020403FC00440040003C00040AD
:103FF0000000044027C00040000000000010001036
:10400000041027E00000000020403FC001400700EE
:1040100004C00440204020403FC000400040000059
:1040200007C0040007C0040003C00000044007C02C
:104030000440040003C0004000000380044004402A
:1040400003800000041007F00450044003800000C7
:10405000000003800440045007F00010044007C033
:104060000240040004000000000006400540054036
:1040700004C00000000004001F8004400040000055
:10408000040007800040044007C00040040007000F
:1040900004C0018006000400060001C0070001C042
:1040A00006000000044006C0010006C004400000F5
:1040B0000410071004E00180060004000000044022
:1040C00005C00640044000000000000004007BE042
:1040D00040200000000000000000FFF00000000091
:1040E000000040207BE00400000000004000800051
:1040F0004000200020004000000000000000000000
:1041000000000000000000000000000000001FCCC4
:10411000000C0000000000000000080030006000FB
:104120000800300060000000022003FC1E20022076
:1041300003FC1E200220000000000E1811043FFFA7
:1041400010840C78000000000F0010840F3800C0AD
:10415000077818840078000000780F8410C41124B8
:104160000E9800E400840008080068007000000059
:10417000000000000000000000000000000007E058
:104180001818200440020000000040022004181803
:1041900007E00000000000000240024001800FF034
:1041A00001800240024000000080008000800FF883
:1041B00000800080008000000001000D000E000063
:1041C000000000000000000000000080008000806F
:1041D00000800080008000800000000C000C0000C7
:1041E0000000000000000000000000060018006051
:1041F0000180060018002000000007F008081004E5
:104200001004080807F000000000080408041FFC60
:10421000000400040000000000000E0C1014102424
:10422000104411840E0C000000000C18100411043E
:10423000110412880C700000000000E00320042428
:1042400008241FFC0024000000001F9810841104A3
:104250001104108810700000000007F00888110495
:10426000110418880070000000001C00100010FCF1
:1042700013001C001000000000000E3811441084D0
:10428000108411440E38000000000700088C104410
:104290001044088807F00000000000000000030C34
:1042A000030C0000000000000000000000010106F7
:1042B000000000000000000000000080014002201B
:1042C000041008081004000002200220022002202E
:1042D0000220022002200000000010040808041040
:1042E000022001400080000000000E001200100CAF
:1042F000106C10800F00000003E00C1813E414246D
:1043000017C4082807D000000004003C03C41C4068
:10431000074000E4001C000410041FFC11041104F9
:1043200011040E880070000003E00C181004100443
:10433000100410081C10000010041FFC10041004CE
:104340001004080807F0000010041FFC11041104F9
:1043500017C410040818000010041FFC11041100F9
:1043600017C010000800000003E00C18100410042F
:1043700010441C780040000010041FFC10840080D2
:10438000008010841FFC10040000100410041FFCA7
:1043900010041004000000000003000110011001CF
:1043A0001FFE10001000000010041FFC1104038009
:1043B0001464181C1004000010041FFC10040004F6
:1043C00000040004000C000010041FFC1F0000FC8F
:1043D0001F001FFC1004000010041FFC0C0403004D
:1043E00000E010181FFC100007F00808100410046B
:1043F0001004080807F0000010041FFC108410804F
:10440000108010800F00000007F0081810241024FE
:10441000101C080A07F2000010041FFC1104110010
:1044200011C011300E0C000400000E1C1104108489
:10443000108410441C3800001800100010041FFCE9
:10444000100410001800000010001FF810040004F1
:10445000000410041FF8100010001E0011E0001CE2
:10446000007013801C0010001FC0103C00E01F00F3
:1044700000E0103C1FC000001004180C163401C0EE
:1044800001C01634180C100410001C00130400FCAA
:1044900013041C00100000000804101C1064108499
:1044A00013041C04101800000000000000007FFE30
:1044B0004002400240020000000030000C00038077
:1044C0000060001C000300000000400240024002A7
:1044D0007FFE0000000000000000000020004000FF
:1044E0004000400020000000000100010001000128
:1044F0000001000100010001000040004000200018
:1045000000000000000000000000009801240144A9
:104510000144014400FC000410001FFC0088010459
:104520000104008800700000000000700088010491
:1045300001040104008800000000007000880104EC
:10454000010411081FFC0004000000F801440144AC
:104550000144014400C800000000010401040FFCF4
:104560001104110411001800000000D601290129CE
:10457000012901C90106000010041FFC008401008C
:104580000100010400FC000400000104190419FCEE
:10459000000400040000000000000003000101010D
:1045A000190119FE0000000010041FFC0024004047
:1045B00001B4010C010400000000100410041FFCF1
:1045C0000004000400000000010401FC01040100DB
:1045D00001FC0104010000FC010401FC0084010055
:1045E0000100010400FC0004000000F801040104C3
:1045F0000104010400F80000010101FF008501042D
:1046000001040088007000000000007000880104B0
:104610000104010501FF00010104010401FC008403
:104620000104010001800000000000CC01240124ED
:10463000012401240198000000000100010007F896
:104640000104010400000000010001F8000400045E
:104650000004010801FC0004010001800170000C4D
:10466000001001600180010001F0010C003001C068
:104670000030010C01F0010000000104018C007405
:104680000170018C01040000010101810171000E23
:10469000001801600180010000000184010C013458
:1046A00001440184010C0000000000000000000033
:1046B00001003EFC4002400200000000000000003B
:1046C000FFFF0000000000000000400240023EFC2E
:1046D0000100000000000000000060008000800079
:1046E000400040002000200000000000000000000A
:1046F0000102030406070809000000000102030488
:104700002047000800000020580000006C1A000834
:104710007847000858000020881900007C1A00081B
:104720000000000001000000000000000000000088
:10473000000000000000000000000000ED1900086B
:10474000F9190008F5190008FD190008F119000809
:104750000000000000000000010000001000000048
:10476000000000000024F400000000000000000031
:08477000000000000000000041
:04000005080000ED02
:00000001FF
